:020000042001D9
:100000009711FF5F9381012A97020000938282017A
:100010007390523093021000638402007350107C7E
:100020009702000093828215739052301701FFDF10
:10003000130141FD63140100138101D0732540F1C8
:10004000814213030040137101FF6385A2001A91DE
:100050008502D5BF970000009380A0046383000051
:100060008290732540F181450146392A9700FFDFD0
:10007000938040F96383000082909702000093828E
:10008000C2007390523003230000F5BF000000004F
:100090008280232003001103E34D73FE82800684D7
:1000A0009702FFDF938202F66385020C9702FFDF5F
:1000B000938242F5F32740F1A14673B00630639670
:1000C000570A1703FFE71303E3F39723FFE793832D
:1000D00063F3630E7300753F1703FFDF130383F2AF
:1000E0009703FFDF938303F2630373005D37170306
:1000F000FF5F130323F19743FF5F9383A3F0630331
:100100007300413F1703FFDF1303C3EF9703FFDFC4
:10011000938343EF63037300AD3F1703FFDF1303C4
:1001200063EE9703FFDF9383E3ED6303730095377B
:100130001703FFDF130303ED9703FFDF938383ECC4
:1001400063037300B9371703FFDF1303A3EB9703B0
:10015000FFDF938323EB63037300253F3707000220
:1001600085471CC30F00300129A0370700021C433C
:10017000EDDFA28082800000F3222034732310344C
:10018000F3233034D5BF828006849711FF5F9381BB
:100190006111930200006317550A97420000938291
:1001A000626A1703FF5F1303E3E59713FF5F93830F
:1001B000E394638C6200635A730003A5020091020A
:1001C0002320A3001103E34A73FE971200009382D9
:1001D00062D91703FFE71303E3E29703FFE7938373
:1001E00063E2638C6200635A730003A5020091020C
:1001F0002320A3001103E34A73FE0F10000017131E
:10020000FF5F1303A38F9383C18F63577300232072
:1002100003001103E34D73FE1712FF5F1302028EFA
:1002200011C2029617450000130545CBEF30B046CA
:10023000EF30104E174500001305855DEF30B045D7
:10024000EF40A05C8937FD5673B0463073B046343A
:10025000F3271030372704007D8F09C773B036307D
:1002600073B02630370704007D8F19C373B00618AA
:100270003707010013078702F98F89CBF327003076
:100280000967D98F73900730735030000545971573
:1002900000009385E5BB171600001306A6BB3120AE
:1002A000EF30D040A28082808280411106C2F322CA
:1002B00040F1130300006385620073005010F5BF26
:0A02C000EF00104C924041018280D3
:0C02D000E8020120DC020120FC020120F9
:1002DC0037050080130505096F20D072B725F4008F
:1002EC003705008093850540130505096F305008CC
:1002FC00F1653715008093850520130505A66F3031
:02030C00D00C13
:1003100048656C6C6F2C20576F726C642120000054
:100320004E6F7420666F756E64204750494F20648D
:1003300065766963652E0000000000000000000083
:1003400000000000000000000000000000000000AD
:10035000000000000000000000000000000000009D
:10036000000000000000000000000000000000008D
:10037000000000000000000000000000000000007D
:10038000000000000000000000000000000000006D
:100390000000000000000000321C01200C1C0120A5
:1003A000F41B012000000000000000003A1E0120A4
:1003B000581E0120241D0120F01B0120D61C012005
:1003C000881C012000000000000000000000000068
:1003D000000000000000000000000000000000001D
:1003E00000000000B21D0120C41B0120000000001D
:1003F000000000000000000000000000FE1F0120BF
:1004000010200120322001205821012064200120E9
:100410006E2001203E220120722001207620012042
:10042000A6200120D6200120062101201222012031
:100430001C2101202E210120342101203C210120FA
:10044000B421012048220120802B0120000000005F
:10045000000000000000000000000000B82B012098
:1004600000000000FC2C0120002D012000000000F5
:10047000000000000000000000000000000000007C
:10048000000000000000000000000000FA1F012032
:10049000000000000000000000000000000000005C
:1004A000000000007E2F012000000000000000007E
:1004B000000000000000000000000000000000003C
:1004C000522D0120000000004E3001208E3001200E
:1004D00000000000000000001A2F0120942E0120CF
:1004E0002A2D0120042D0120000000000000000042
:1004F0000000000000000000CE3001202E3101205D
:10050000B02E0120322F0120103201206032012054
:100510001E3301200100000020000000001BB70076
:1005200000366E01010000001F0000000300000003
:100530003F000000010000002000000000366E01B6
:10054000006CDC02030000001F000000020000003D
:100550003F0000000100000010000000808D5B00E3
:10056000001BB700000000001F0000000300000097
:100570003F0000000100000010000000001BB70059
:1005800000366E01010000001F00000002000000A4
:100590003F000000010000001000000000366E0166
:1005A000006CDC02030000001F00000002000000DD
:1005B0001F0000000100000008000000808D5B00AB
:1005C000001BB700000000001F0000000300000037
:1005D0001F0000000100000008000000001BB70021
:1005E00000366E01010000001F0000000200000044
:1005F0001F000000010000000800000000366E012E
:10060000006CDC02030000001F000000020000007C
:100610000F0000000100000004000000808D5B005E
:10062000001BB700000000001F00000003000000D6
:100630000F0000000100000004000000001BB700D4
:1006400000366E01010000001F00000002000000E3
:100650000F000000010000000400000000366E01E1
:10066000006CDC02030000001F000000020000001C
:10067000070000000100000002000000808D5B0008
:10068000001BB700000000001F0000000200000077
:100690000F0000000100000002000000001BB70076
:1006A00000366E01010000001F0000000100000084
:1006B0000F000000010000000200000000366E0183
:1006C000006CDC02030000001F00000001000000BD
:1006D000070000000200000001000000808D5B00A8
:1006E000001BB700000000001F0000000100000018
:1006F000070000000200000001000000001BB7001E
:1007000000366E01010000001F0000000100000023
:1007100003000000020000000100000000366E012E
:10072000006CDC02030000001F000000030000005A
:10073000FFFFFFFF0400000001000000808D5B0050
:10074000001BB700000000001F00000003000000B5
:10075000000000000400000001000000001BB700C2
:1007600000366E01010000001F00000003000000C1
:10077000FFFFFFFF040000000100000000366E01D3
:10078000006CDC02030000001F00000002000000FB
:10079000FFFFFFFF0600000001000000808D5B00EE
:1007A000AAC2A20000000000230000000100000017
:1007B000020000000600000001000000AAC2A20022
:1007C000001BB7000000000017000000030000003D
:1007D000FFFFFFFF0600000001000000001BB70044
:1007E0000024F400010000002F00000003000000BE
:1007F000FFFFFFFF06000000010000000024F400DE
:1008000080A8120101000000170000000200000093
:10081000FFFFFFFF060000000100000080A812019A
:100820005585450102000000230000000200000081
:10083000FFFFFFFF0800000001000000808D5B004B
:10084000001BB700000000001F00000003000000B4
:10085000FFFFFFFF0800000001000000001BB700C1
:1008600000366E01010000001F00000002000000C1
:10087000FFFFFFFF080000000100000000366E01CE
:10088000006CDC02030000001F00000001000000FB
:10089000FFFFFFFF0A00000001000000808D5B00E9
:1008A000007C920000000000270000000300000010
:1008B000FFFFFFFF0A00000001000000007C920023
:1008C000001BB70000000000130000000200000041
:1008D000FFFFFFFF0A00000001000000001BB7003F
:1008E00000F82401010000002700000002000000C1
:1008F000FFFFFFFF0A0000000100000000F82401D4
:1009000000366E010100000013000000010000002D
:10091000FFFFFFFF0A0000000100000000366E012B
:1009200000F0490203000000270000000100000061
:10093000FFFFFFFF0C00000001000000808D5B0046
:1009400000127A00000000002F00000003000000E9
:10095000FFFFFFFF0C0000000100000000127A0002
:10096000001BB7000000000017000000020000009C
:10097000FFFFFFFF0C00000001000000001BB7009C
:100980000024F400010000002F000000020000001D
:10099000FFFFFFFF0C000000010000000024F40036
:1009A00000366E0101000000170000000100000089
:1009B000FFFFFFFF0C0000000100000000366E0189
:1009C00080C3C901030000002F00000001000000E7
:1009D000FFFFFFFF0C0000000100000080C3C90101
:1009E0000048E801030000002F00000001000000A3
:1009F000FFFFFFFF0E00000001000000808D5B0084
:100A0000B6A16800000000003700000003000000ED
:100A1000FFFFFFFF0E00000001000000B7A168000B
:100A2000001BB700000000001B00000002000000D7
:100A3000FFFFFFFF0E00000001000000001BB700D9
:100A40006D43D100010000003700000002000000EB
:100A5000FFFFFFFF0E000000010000006E43D10009
:100A600000366E01010000001B00000001000000C4
:100A7000FFFFFFFF0E0000000100000000366E01C6
:100A8000DB86A20103000000370000000100000027
:100A9000FFFFFFFF1000000001000000808D5B00E1
:100AA000001BB700000000001F0000000200000053
:100AB000FFFFFFFF1000000001000000001BB70057
:100AC00000366E01010000001F0000000100000060
:100AD000FFFFFFFF1200000001000000808D5B009F
:100AE000AAC2A200000000002300000002000000D3
:100AF000FFFFFFFF1200000001000000ABC2A200D8
:100B0000001BB70000000000110000000100000001
:100B1000FFFFFFFF1200000001000000001BB700F4
:100B20005585450101000000230000000100000080
:100B3000FFFFFFFF1400000001000000808D5B003C
:100B4000007C92000000000027000000020000006E
:100B5000FFFFFFFF1400000001000000007C920076
:100B6000001BB7000000000013000000010000009F
:100B7000FFFFFFFF1400000001000000001BB70092
:100B800000F824010100000027000000010000001F
:100B9000FFFFFFFF1600000001000000808D5B00DA
:100BA000E82A8500000000002B0000000200000081
:100BB000FFFFFFFF1600000001000000E92A85008A
:100BC000001BB7000000000015000000010000003D
:100BD000FFFFFFFF1600000001000000001BB70030
:100BE000D1550A01010000002B00000001000000A7
:100BF000FFFFFFFF1800000001000000808D5B0078
:100C000000127A00000000002F0000000200000027
:100C1000FFFFFFFF180000000100000000127A0033
:100C2000001BB700000000001700000001000000DA
:100C3000FFFFFFFF1800000001000000001BB700CD
:100C40000024F400010000002F000000010000005B
:100C5000FFFFFFFF1A00000001000000808D5B0015
:100C600027AE70000000000033000000020000000A
:100C7000FFFFFFFF1A0000000100000028AE700017
:100C8000001BB70000000000190000000100000078
:100C9000FFFFFFFF1A00000001000000001BB7006B
:100CA0006658E10001000000330000000100000070
:100CB000FFFFFFFF1C00000001000000808D5B00B3
:100CC000B6A168000000000037000000020000002C
:100CD000FFFFFFFF1C00000001000000B7A168003B
:100CE000001BB700000000001B0000000100000016
:100CF000FFFFFFFF1C00000001000000001BB70009
:100D00006D43D10001000000370000000100000029
:100D1000FFFFFFFF1E00000001000000808D5B0050
:100D200000A86100000000003B000000020000007D
:100D3000FFFFFFFF1E0000000100000000A861008F
:100D4000001BB700000000001D00000001000000B3
:100D5000FFFFFFFF1E00000001000000001BB700A6
:100D60000050C300010000003B0000000100000033
:100D7000FFFFFFFF2000000001000000808D5B00EE
:100D8000001BB700000000001F0000000100000071
:100D9000FFFFFFFF36360120543601206436012064
:100DA0005E360120863601206C3601208036012017
:100DB00074360120B2360120C2360120BC36012033
:100DC000E4360120CA360120DE360120D236012069
:100DD00014350120FC340120303501204435012038
:100DE00058350120743501208C350120A4350120AF
:100DF000C0350120D8350120F635012012360120FA
:100E00008C360120EC36012002370120963A012071
:100E100054390120E03801207A3901209A39012023
:100E2000243A012042380120683801208C38012002
:100E3000A2380120B6380120CC380120F03801203A
:100E4000103901202239012042390120540E01209D
:100E5000000000006C6962676C6F73730000000033
:100E60000001020203030303040404040404040451
:100E70000505050505050505050505050505050522
:100E80000606060606060606060606060606060602
:100E900006060606060606060606060606060606F2
:100EA00007070707070707070707070707070707D2
:100EB00007070707070707070707070707070707C2
:100EC00007070707070707070707070707070707B2
:100ED00007070707070707070707070707070707A2
:100EE0000808080808080808080808080808080882
:100EF0000808080808080808080808080808080872
:100F00000808080808080808080808080808080861
:100F10000808080808080808080808080808080851
:100F20000808080808080808080808080808080841
:100F30000808080808080808080808080808080831
:100F40000808080808080808080808080808080821
:100F50000808080808080808080808080808080811
:100F80003705012041111305053106C622C49D2AEB
:100F90000145EF00B0412A8411E537050120130512
:100FA00005328D2295452285EF00903995452285A1
:100FB000EF00503A95452285EF00103E05469545D5
:100FC0002285EF00703A95452285EF00B03B13056E
:100FD000401F1120CDBF411122C426C22A8406C65B
:100FE00039289307803E3304F402AA840928058D2A
:100FF000E36E85FEB240224492444101828097070D
:10100000FF5F938727AA884301118A8506CE1122A4
:10101000FD576309F500924702453E95A2473E956C
:10102000B2473E95F24005618280011126CA4AC846
:1010300006CE22CC4EC652C4AA842E8901C51C4DB0
:1010400091E329239C4C804499E32685012397F75B
:10105000FFFF9387A730631CF402C0408357C4008E
:10106000A18BB1C71C48A1C7FD59294A1C4483451F
:101070000900FD17B1E91CC463DE07062286A945F5
:1010800026855928FD576308F502294535A097F7AD
:10109000FFFF9387A72E6314F4008044C1B797F72E
:1010A000FFFF9387A729E31BF4FAC04445BFA2853D
:1010B00026851D2255D97D55F2406244D2444249CD
:1010C000B249224A056182801CC4050963D7070022
:1010D000184C63CBE700638945011C401387170058
:1010E00018C02380B70059B7228626853520E31F14
:1010F00035F7D1B71C401387170018C02947238044
:10110000E70061B79707FF5F9387C799AA85884370
:1011100029BF2E856F20104C011122CC26CA4AC847
:1011200006CE4EC6AA842E89328401C51C4D91E399
:10113000312997F7FFFF938767226319F406C040B0
:101140001C4C1CC48357C400A18BC9C31C48BDCF11
:101150001C4808409379F90F1379F90F1D8D5C48ED
:101160006346F500A2852685E9242DE51C44050586
:10117000FD171CC41C401387170018C023803701BB
:101180005C486389A7008357C400858B81CBA9473E
:101190006316F900A2852685692C0DEDF2406244A4
:1011A0004A85D2444249B2490561828097F7FFFFE0
:1011B0009387C71C6314F400804459B797F7FFFF67
:1011C0009387C717E31EF4F6C0449DBFA28526850A
:1011D00021203DDD7D59D9B741119707FF5F9387E6
:1011E000678C26C2844322C44AC006C62A892E843C
:1011F00089C49C4C99E32685912E97F7FFFF93872E
:10120000E715631CF402C0400317C40093170701DD
:10121000C18393F68700B5EE93F607019DEEA547CF
:101220002320F900136707042316E4007D55B2401C
:101230002244924402494101828097F7FFFF93873D
:10124000E7136314F4008044C1B797F7FFFF938757
:10125000E70EE31BF4FAC04445BF918B8DC74C5891
:1012600089C9930744046384F5004A85A12B232A86
:1012700004028357C4002322040093F7B7FD23160A
:10128000F4001C481CC08357C40093E78700231652
:10129000F4001C4881EF8357C4001307002093F724
:1012A00007286385E700A2854A85BD218357C400CE
:1012B00013F7170005C75C4823240400B307F04068
:1012C0001CCC1C480145A5F78317C40013F7070879
:1012D00039DF93E707042316F40089BF898B0147A0
:1012E00091E3584818C4F1BF83D7C500011122CC3F
:1012F00026CA06CE4AC84EC613F78700AA842E8493
:1013000065E7D8416347E000B8416344E000014528
:10131000C1A058546DDF03A904009396370123A0A0
:10132000040063DE060668488357C400918B99C7A2
:101330005C401D8D5C5899C33C401D8D5C540C5025
:101340002A86814626858297FD570357C400631D70
:10135000F5009440F54763E4D708B70740208507B8
:10136000B3D7D700858BA5CF1C48232204001CC00F
:101370009317370163D80700FD576314F5009C40AD
:1013800091E368C84C5823A02401D1D193074404A9
:101390006384F50026853D21232A04028DBF0C506D
:1013A0008546014626850297FD57E31FF5F69C40CA
:1013B000A5DF75476385E70059476395E70023A0DC
:1013C0002401B1B78357C40093E707042316F40040
:1013D000F2406244D2444249B249056182801367B7
:1013E00007042316E400EDB783A90501E38109F2A0
:1013F00003A905008D8B23A035013309394101472D
:1014000091E3D84918C4E35420F11C540C50CA8607
:101410004E8626858297634AA0008357C4007D5577
:1014200093E707042316F40065B7AA993309A94086
:10143000D9BF9C49B9CF011122CC06CE2A8411C54F
:101440001C4D81E72EC61922B24597F7FFFF9387FF
:10145000E7F0639BF5004C408397C50095C7228554
:101460006244F240056149B597F7FFFF938707F1A2
:101470006394F5000C44CDB797F7FFFF938707EC13
:10148000E39CF5FC4C44C9BFF24062440145056150
:10149000828001458280411122C406C62A84231617
:1014A000B5002317C50023200500232205002324AF
:1014B00005002322050623280500232A0500232CE6
:1014C0000500214681451305C505ED249707000059
:1014D0009387C74A5CD0970700009387274D1CD499
:1014E00097070000938767515CD4970700009387A4
:1014F000275400D01CD8B240224441018280970575
:101500000000938545F3B9A2411126C21306800657
:101510009384F5FFB384C4024AC02E8922C406C650
:1015200093854407B1262A8419C923200500232264
:101530002501310508C4138684068145A52C228522
:10154000B240224492440249410182801C4DBDE3D5
:10155000411106C622C497070000938787FA1CD55D
:1015600097F7FE5F938747549C4323240504232663
:101570000504232805046314F50085471CCD2A843F
:101580001D2848C02285052808C422852D2048C46E
:10159000484001469145013708440546A545E53DCB
:1015A00048440946C945C53D85471CCCB240224444
:1015B000410182808280411197F7FE5F9387C74E79
:1015C00026C284434AC006C69C4C22C42A8999E399
:1015D0002685AD3F938484048044DC40FD1763D6A8
:1015E00007009C40B1CF8440C5BF0317C40031E75A
:1015F000C177850723220406232004002322040048
:10160000232404005CC423280400232A0400232C80
:101610000400214681451305C405692A232A0402D2
:10162000232C040223240404232604042285B2402C
:10163000224492440249410182801304840679BF06
:1016400091454A85D13588C02A8451FDB147232070
:10165000F900E9BF797122D44AD052CC56CA5AC88F
:101660005EC606D626D24ECE2A8AAE8A13048504DA
:101670000149054BFD5B09ECB25022544A85925456
:101680000259F249624AD24A424BB24B45618280CA
:10169000044483294400FD1963D409000040E1BFDC
:1016A00083D7C400637BFB008397E40063877701E3
:1016B000A6855285829A3369A90093848406E1BF86
:1016C0001971A6DAAE848395E500A2DC86DE328449
:1016D00063DC050083D7C40023A0060093F7070846
:1016E0009DE39307004015A0300836C6792EB24618
:1016F000E34205FE7247BD67F98F7977BA9793B7D2
:1017000017009CC2F9BF930700041CC0F650665432
:10171000D65401450961828083D7C500011122CCCE
:1017200006CE26CA4AC8898B2E8489CF93077404B3
:101730001CC01CC885475CC8F2406244D244424980
:101740000561828074003000AA849D3FA2452A89E9
:101750002685392A01ED8317C40013F7072069FF96
:10176000F19B93E727002316F400C9B79707000001
:10177000938727D99CD48357C40008C008C893E72F
:1017800007082316F400A2475CC8B24789CF831527
:10179000E40026850D2601C98357C400F19B93E719
:1017A00017002316F4008357C4003369F900231689
:1017B000240159B72A8311C62300B3007D160503FF
:1017C00065FE8280CDC583A7C5FF411122C406C630
:1017D00026C21384C5FF63D307003E94AA84052E56
:1017E00097F7FE5F938787319C4389EF232204009C
:1017F00097F7FE5F23A487302244B24026859244A7
:10180000410139A6637EF40014403307D400639687
:10181000E7009843DC43369718C05CC0D1BFBA8755
:10182000D84319C3E37DE4FE94433386D700631F96
:1018300086001040B29694C33386D700E31EC7FAE1
:1018400010435843B29694C3D8C37DB76375C400A0
:10185000B1479CC055B71040B306C4006316D7000B
:1018600014435843B29614C058C0C0C371B78280A5
:10187000011126CA93843500F19806CE22CC4AC8BD
:101880004EC6A104B14763F7F404B14463E6B4045F
:101890002A89B52C97F7FE5F9387472698433A84A9
:1018A00031E497F7FE5F9387A7259C4381EB814541
:1018B0004A85712897F7FE5F23A4A724A6854A8549
:1018C0007920FD5963193507B1472320F9004A856E
:1018D000812429A0E3DC04FAB1471CC10145F24090
:1018E0006244D2444249B249056182801C40858FDE
:1018F00063C00704AD4663F6F6001CC03E9404C006
:1019000001A85C406314870217F7FE5F2328F71EC7
:101910004A85FD2A1305B4009307440061993307F3
:10192000F54055DF3A94898F1CC055BF5CC3CDB7D5
:1019300022874040B5B7130435007198E30185FC58
:10194000B305A4404A852120E31B35FBB5BF4111F7
:1019500022C42A842E8523AC018E06C6EF20404582
:10196000FD576317F5009387818F9C4391C31CC07B
:10197000B240224441018280411122C42E848395C9
:10198000E50006C67922634905007C48AA977CC811
:10199000B2402244410182808357C4007D777D1785
:1019A000F98F2316F400EDB783D7C500011122CCBF
:1019B00026CA4AC84EC606CE93F70710AA842E84BC
:1019C0003289B68991C78395E50089460146092A7F
:1019D0008357C4007D777D17F98F2316F400831594
:1019E000E4006244F240CE864A86B24942492685E6
:1019F000D24405613DA8411122C42E848395E5009F
:101A000006C6F928FD570357C400631BF500FD7790
:101A1000FD17F98F2316F400B24022444101828061
:101A20008567D98F2316F40068C8FDB78395E50054
:101A300005A8411122C42A842E85B285368623AC9E
:101A4000018E06C6EF206041FD576317F5009387AE
:101A5000818F9C4391C31CC0B240224441018280CB
:101A6000411122C42A842E8523AC018E06C6EF20A4
:101A7000A02EFD576317F5009387818F9C4391C378
:101A80001CC0B240224441018280411122C42A84F8
:101A90002E85B28523AC018E06C6EF20202DFD5782
:101AA0006317F5009387818F9C4391C31CC0B2409C
:101AB000224441018280411122C42A842E8523AC14
:101AC000018E06C6EF20C02BFD576317F5009387E4
:101AD000818F9C4391C31CC0B2402244410182804B
:101AE000411122C42A842E85B285368623AC018E0C
:101AF00006C6EF206029FD576317F5009387818F95
:101B00009C4391C31CC0B240224441018280828028
:101B10008280411122C42A842E85B285368623AC68
:101B2000018E06C6EF208027FD576317F5009387C7
:101B3000818F9C4391C31CC0B240224441018280EA
:101B400001C91C4103A307008547B395B700028371
:101B50000545828001C91C4103A347018547B39510
:101B6000B70002830545828001CD85471841B395B2
:101B7000B70001E60323C701028303238701EDBFFA
:101B80000545828001C91C4103A307028547B3951F
:101B9000B70002830545828001C91C4103A3870267
:101BA0008547B395B700028305458280854763E981
:101BB000A70093172500138581803E9508418280F8
:101BC00001458280B71700809387C7AA37070002B4
:101BD0006383A70001478E05BA95116793074700F5
:101BE000AE977D5588C3BA9590C194C30145828054
:101BF0007D5582806F00F076411106C6732540F155
:101C0000EF10107CB24041016F10107B011106CE25
:101C10002EC6DD3719C9B24505476368B7001C41B8
:101C2000F24003A3470005610283F2407D55056140
:101C300082800111B71700804AC806CE22CC26CA7E
:101C40004EC69387C7AA01496313F5000949444169
:101C500081E82A84B7090080639B240185475CC022
:101C6000F2406244D2444249B249056182808D45C6
:101C700091C09D4583A7890BA2860146DC4F138541
:101C8000890B85048297C9BFA9C5011122CC2EC634
:101C900006CE2A849537B71700809387C7AAB24526
:101CA0006314F402B70700809387870B631EF50067
:101CB00093F7B5FF8D466399D7001C416244F2400B
:101CC00003A3870205610283F24062447D550561EA
:101CD00082807D558280A9C5011122CC2EC606CEF8
:101CE0002A84193FB71700809387C7AAB2456314A7
:101CF000F402B70700809387870B631EF50093F704
:101D0000B5FF8D466399D7001C416244F24003A39E
:101D1000470205610283F24062447D55056182807D
:101D20007D55828001112EC632C436C206CE22CC29
:101D300026CAAA84EF00F0622A847D3DB71700808E
:101D40009387C7AA92462246B2456395F400854719
:101D500063F88700F2406244D2447D550561828079
:101D6000B70700809387870B2A87E315F5FE93F763
:101D7000B5FF0D48E39007FF1C436244F240D24494
:101D800003A3C70105610283371700801307C7AAA1
:101D9000B70700026303A7008147B1661387C6FF38
:101DA000E1163E97B697144388430C43E39DD5FE56
:101DB0008280B71700809387C7AA01476314F50094
:101DC0003707000289476386F50463C8B700854773
:101DD0006382F502FD573E8582808D476384F5045A
:101DE0009147E399F5FE81477DD61C428A07BA9751
:101DF0009C43D5B7FD5765D2411122C406C6328433
:101E0000613708C04CC0B240224481473E85410141
:101E10008280FD5769D21C428A07BA9723A0070027
:101E2000814755BFFD5745DA1C428A07BA970547D7
:101E300098C30F0080049C43E5B7011106CE22CC65
:101E40002A84EF10B0582AC670002285894595373C
:101E5000F240624405618280011106CE22CC2A84C0
:101E6000EF10D0562AC6700022858D459937F24072
:101E7000624405618280AA85F32740F11397270009
:101E800093874182BA978843F32720340DC593F78F
:101E9000F73F138741819387870E631BE500370760
:101EA00000808A071307870BBA9703A307000283F2
:101EB0008A079C430290828082800000000000001C
:101EC0000000000000000000000000000000000012
:101ED0000000000000000000000000000000000002
:101EE00000000000000000000000000000000000F2
:101EF00000000000000000000000000000000000E2
:101F0000397106DE16DC1ADA1ED82AD62ED432D261
:101F100036D03ACE3ECC42CA46C872C676C47AC2E1
:101F20007EC0F32740F11397270093874182BA9729
:101F3000944373262034F3271034F3273034732767
:101F400050308DC6938741816385F60481471375B0
:101F5000F63F635D0606930600086311D50403A7E8
:101F6000073983A58739130500080297F250E2521A
:101F70005253C2533255A255125682567247E24707
:101F80005248C248324EA24E124F824F2161730016
:101F90002030B70700809387870B55BFAD4663D5C8
:101FA000A6001377F70311EB61473307E502BA97F1
:101FB00003A7070983A587094DBF8946E318D7FA08
:101FC00073277030184383A5C70D45B71307850ED7
:101FD0000A07BA979C43AA853685829741BF0000BD
:101FE00000000000000000000000000000000000F1
:101FF0000000000000000000000001458280F32581
:1020000000B8732500B0F32700B8E39AF5FE82808C
:1020100011CD938741816306F50001459355F54144
:1020200082803725F40013050540CDBF0145814569
:1020300082800111814701483EC406CE42C6938783
:102040004181639CA700B707008003A5471F11C506
:102050001C4130008545FC478297F2402245B2453D
:1020600005618280371500801305C5AA82801D4551
:1020700082800D458280011106CE2EC69387418154
:102080006391A702B707008083A747197D5599C7B9
:10209000984370008D4578473E850297F240056170
:1020A00082807D55E5BF011106CE2EC69387418102
:1020B0006391A702B707008083A747197D5599C789
:1020C00098437000894578473E850297F240056144
:1020D00082807D55E5BF011106CE2EC693874181D2
:1020E0006391A702B707008083A74719014599C7E5
:1020F00098437000914578473E850297F24005610C
:1021000082800145E5BF938741816384A700014533
:102110008280370500801305850B828083D70500F8
:102120000D4711458D8B6383E70009458280732538
:10213000103482807390153401458280014582807D
:1021400041111305400606C6EF10B02841111305D2
:10215000800C06C6EF10F02793874181B2862E8649
:10216000639CA700B707008003A5471F11C51C414A
:10217000814503A3070502837D558280411106C670
:1021800022C4F32740F101446348F000139727006D
:1021900093874182BA9780432285613D9307A500CA
:1021A00033B5A7003306B50022852244B240BE8570
:1021B00041015DB75C41A9EF930705091307053994
:1021C00023A0070023A2070023A40700E107E39947
:1021D000E7FE372701209307053A9306053D1307CD
:1021E000071498C39107E39EF6FE73275030B70794
:1021F000012093878717631BF700F3275030B72719
:102200000120938707F0F19B7390573085475CC19D
:102210008280938741816392A702AD477D5563CF4A
:10222000B70009CEB70700809385850E9387870B8B
:102230008A05BE9590C1014582807D558280371503
:1022400000801305C5AA828081EDF3275030B7279F
:102250000120938707F0F19B7390573001458280EE
:1022600085477D55E39DF5FEF3275030B7470120A4
:10227000938707C093E71700C5B7732540F18280A5
:1022800039712AD61305C01206DE16DC1ADA1ED8FA
:102290002ED432D236D03ACE3ECC42CA46C872C6CE
:1022A00076C47AC27EC0EF10D012397106DE16DC19
:1022B0001ADA1ED82AD62ED432D236D03ACE3ECC16
:1022C00042CA46C872C676C47AC27EC0F32740F1BD
:1022D0001397270093874182BA97984319CF938722
:1022E0004181631FF702B70700809387870B03A71D
:1022F000870D83A5070E0D450297F250E252525307
:10230000C2533255A255125682567247E24752487E
:10231000C248324EA24E124F824F216173002030CC
:102320008327000E0290397106DE16DC1ADA1ED8F9
:102330002AD62ED432D236D03ACE3ECC42CA46C865
:1023400072C676C47AC27EC0F32740F11397270085
:1023500093874182BA97984319CF93874181631F2E
:10236000F702B70700809387870B03A7871383A51E
:1023700007141D450297F250E2525253C253325590
:10238000A255125682567247E2475248C248324E10
:10239000A24E124F824F2161730020308327001418
:1023A0000290397106DE16DC1ADA1ED82AD62ED42F
:1023B00032D236D03ACE3ECC42CA46C872C676C475
:1023C0007AC27EC0F32740F113972700938741829A
:1023D000BA97984319CF93874181631FF702B707D4
:1023E00000809387870B03A7072183A58721414599
:1023F0000297F250E2525253C2533255A25512562E
:1024000082567247E2475248C248324EA24E124F9D
:10241000824F21617300203083278021029039711F
:1024200006DE16DC1ADA1ED82AD62ED432D236D0E0
:102430003ACE3ECC42CA46C872C676C47AC27EC084
:10244000F32740F11397270093874182BA97984367
:1024500019CF93874181631FF702B70700809387E5
:10246000870B03A7872283A5072345450297F250D0
:10247000E2525253C2533255A255125682567247F7
:10248000E2475248C248324EA24E124F824F21615B
:1024900073002030832700230290397106DE16DC9A
:1024A0001ADA1ED82AD62ED432D236D03ACE3ECC24
:1024B00042CA46C872C676C47AC27EC0F32740F1CB
:1024C0001397270093874182BA97984319CF938730
:1024D0004181631FF702B70700809387870B03A72B
:1024E000072483A5872449450297F250E2525253AC
:1024F000C2533255A255125682567247E24752488D
:10250000C248324EA24E124F824F216173002030DA
:10251000832780240290397106DE16DC1ADA1ED871
:102520002AD62ED432D236D03ACE3ECC42CA46C873
:1025300072C676C47AC27EC0F32740F11397270093
:1025400093874182BA97984319CF93874181631F3C
:10255000F702B70700809387870B03A7872583A51A
:1025600007264D450297F250E2525253C25332555C
:10257000A255125682567247E2475248C248324E1E
:10258000A24E124F824F2161730020308327002614
:102590000290397106DE16DC1ADA1ED82AD62ED43D
:1025A00032D236D03ACE3ECC42CA46C872C676C483
:1025B0007AC27EC0F32740F11397270093874182A8
:1025C000BA97984319CF93874181631FF702B707E2
:1025D00000809387870B03A7072783A5872751458B
:1025E0000297F250E2525253C2533255A25512563C
:1025F00082567247E2475248C248324EA24E124FAC
:10260000824F216173002030832780270290397127
:1026100006DE16DC1ADA1ED82AD62ED432D236D0EE
:102620003ACE3ECC42CA46C872C676C47AC27EC092
:10263000F32740F11397270093874182BA97984375
:1026400019CF93874181631FF702B70700809387F3
:10265000870B03A7872883A5072955450297F250C2
:10266000E2525253C2533255A25512568256724705
:10267000E2475248C248324EA24E124F824F216169
:1026800073002030832700290290397106DE16DCA2
:102690001ADA1ED82AD62ED432D236D03ACE3ECC32
:1026A00042CA46C872C676C47AC27EC0F32740F1D9
:1026B0001397270093874182BA97984319CF93873E
:1026C0004181631FF702B70700809387870B03A739
:1026D000072A83A5872A59450297F250E25252539E
:1026E000C2533255A255125682567247E24752489B
:1026F000C248324EA24E124F824F216173002030E9
:102700008327802A0290397106DE16DC1ADA1ED879
:102710002AD62ED432D236D03ACE3ECC42CA46C881
:1027200072C676C47AC27EC0F32740F113972700A1
:1027300093874182BA97984319CF93874181631F4A
:10274000F702B70700809387870B03A7872B83A522
:10275000072C5D450297F250E2525253C253325554
:10276000A255125682567247E2475248C248324E2C
:10277000A24E124F824F2161730020308327002C1C
:102780000290397106DE16DC1ADA1ED82AD62ED44B
:1027900032D236D03ACE3ECC42CA46C872C676C491
:1027A0007AC27EC0F32740F11397270093874182B6
:1027B000BA97984319CF93874181631FF702B707F0
:1027C00000809387870B03A7072D83A5872D61457D
:1027D0000297F250E2525253C2533255A25512564A
:1027E00082567247E2475248C248324EA24E124FBA
:1027F000824F2161730020308327802D0290397130
:1028000006DE16DC1ADA1ED82AD62ED432D236D0FC
:102810003ACE3ECC42CA46C872C676C47AC27EC0A0
:10282000F32740F11397270093874182BA97984383
:1028300019CF93874181631FF702B7070080938701
:10284000870B03A7872E83A5072F65450297F250B4
:10285000E2525253C2533255A25512568256724713
:10286000E2475248C248324EA24E124F824F216177
:10287000730020308327002F0290397106DE16DCAA
:102880001ADA1ED82AD62ED432D236D03ACE3ECC40
:1028900042CA46C872C676C47AC27EC0F32740F1E7
:1028A0001397270093874182BA97984319CF93874C
:1028B0004181631FF702B70700809387870B03A747
:1028C000073083A5873069450297F250E252525390
:1028D000C2533255A255125682567247E2475248A9
:1028E000C248324EA24E124F824F216173002030F7
:1028F000832780300290397106DE16DC1ADA1ED882
:102900002AD62ED432D236D03ACE3ECC42CA46C88F
:1029100072C676C47AC27EC0F32740F113972700AF
:1029200093874182BA97984319CF93874181631F58
:10293000F702B70700809387870B03A7873183A52A
:1029400007326D450297F250E2525253C25332554C
:10295000A255125682567247E2475248C248324E3A
:10296000A24E124F824F2161730020308327003224
:102970000290397106DE16DC1ADA1ED82AD62ED459
:1029800032D236D03ACE3ECC42CA46C872C676C49F
:102990007AC27EC0F32740F11397270093874182C4
:1029A000BA97984319CF93874181631FF702B707FE
:1029B00000809387870B03A7073383A5873371456F
:1029C0000297F250E2525253C2533255A255125658
:1029D00082567247E2475248C248324EA24E124FC8
:1029E000824F216173002030832780330290397138
:1029F00006DE16DC1ADA1ED82AD62ED432D236D00B
:102A00003ACE3ECC42CA46C872C676C47AC27EC0AE
:102A1000F32740F11397270093874182BA97984391
:102A200019CF93874181631FF702B707008093870F
:102A3000870B03A7873483A5073575450297F250A6
:102A4000E2525253C2533255A25512568256724721
:102A5000E2475248C248324EA24E124F824F216185
:102A600073002030832700350290397106DE16DCB2
:102A70001ADA1ED82AD62ED432D236D03ACE3ECC4E
:102A800042CA46C872C676C47AC27EC0F32740F1F5
:102A90001397270093874182BA97984319CF93875A
:102AA0004181631FF702B70700809387870B03A755
:102AB000073683A5873679450297F250E252525382
:102AC000C2533255A255125682567247E2475248B7
:102AD000C248324EA24E124F824F21617300203005
:102AE000832780360290397106DE16DC1ADA1ED88A
:102AF0002AD62ED432D236D03ACE3ECC42CA46C89E
:102B000072C676C47AC27EC0F32740F113972700BD
:102B100093874182BA97984319CF93874181631F66
:102B2000F702B70700809387870B03A7873783A532
:102B300007387D450297F250E2525253C253325544
:102B4000A255125682567247E2475248C248324E48
:102B5000A24E124F824F216173002030832700382C
:102B60000290F327503093F7F703FD17094701450B
:102B70006367F70013878182BA9703C507008280D5
:102B8000CDB7AD476308F50263CBA7000D47854776
:102B90006305E5006515933715003E858280414742
:102BA0008147E34CE5FE7D478547E358A7FE1305C3
:102BB00005F8D5B78547D5B7011122CC2A842E85D3
:102BC00026CA4AC84EC606CEAE84B2893689553F5B
:102BD000D55701C993070008639AF4085937CD57B0
:102BE0002DCDF2406244D2444249B2493E8505614E
:102BF000828023283439232C243909A8E145B38461
:102C0000B402269423283409232C24098147D1BFF8
:102C1000138704FFBD46D157E3E5E6FCE145B384E5
:102C2000B402B72701209387C71426942328F408F9
:102C3000232A2409E1BFB7270120938767E7232CC4
:102C4000F40C232E240DD9B7B72701209387C7177B
:102C5000232CF412232E241355BFE39C09F8B72725
:102C60000120938787EB2328F43871B7E39809F89C
:102C7000AD47E385F4FAE3CD97F88D47E38DF4FA99
:102C80009D47E383F4FCD157A9BF11C99D47638ACF
:102C9000F50463E8B7009DC58D47638FF5027D5647
:102CA00015A8AD476382F504E3EBF5FE938705FFB6
:102CB0003D47E366F7FE8547B395B7000DCEF3A514
:102CC000453029A0A14709C6F3A70730014619A03E
:102CD000F3B7073032858280A14719CAF3A747307E
:102CE000F5B793070008D5BF856793870780F5B7C9
:102CF000F3B74730C5B7F3B54530E9BF054671B7FF
:102D0000014661B7B707008093878748639DA70096
:102D100099477D5563EAC700B707000C8A05BE9541
:102D200090C1014582807D558280B70700809387DE
:102D300087486387A70081478A05BE9588418280BE
:102D4000B707000CD5BF41111305C01206C6EF002E
:102D500050680111B707008022CC06CE26CA4AC8A7
:102D60004EC652C4938787482A8401476314F500EE
:102D7000130750037D5563D5E502B689328AAE84C8
:102D80001399250015C622850946AD3FE145B38458
:102D9000B40222992324490126942328340F0145A3
:102DA000F2406244D2444249B249224A05618280DB
:102DB00022850546813FE145B384B402B73701203F
:102DC0002299938767D42324F90026942326340F6D
:102DD000F9B7B70700809387874801476394A70036
:102DE0003707000CB70720009107B205BE95BA95CA
:102DF00088418280B7070080938787483707000C97
:102E00006383A7000147B7072000B2059107BE956D
:102E1000BA9590C18280011106CE22CC26CA2E849A
:102E2000EFF0AFC53335A000B304A040A6852285DE
:102E30004D37B7070080938787482A866314F402CA
:102E40009307400363E0A70293172500A2979847D2
:102E500011CBE147B307F5022AC6A29783A5070F56
:102E60000297324622856244F240A685D24405612B
:102E700051B7B7070080938787483707000C6383F3
:102E8000A7000147B7072000B205BE95BA9590C1CB
:102E900001458280011122CC06CE2A842EC6EFF095
:102EA000CFBDAA85228562443246F2400561D1B782
:102EB000011122CC26CA4AC84EC652C406CEAA89DF
:102EC000328A2E8981440144631B0900F240624426
:102ED00026854249D244B249224A0561828009C806
:102EE0005286A2854E857137058933158500C98CB8
:102EF000050413591900C9BFB70700809387874895
:102F0000638AA700814737072000B205BA95BE95AE
:102F100088418280B707000CFDB7411122C406C664
:102F20002A84EFF08FB5AA8522852244B240410160
:102F3000E1B7411106C6C937B2400145410182805F
:102F400037070080130787483708000C6303A70082
:102F50000148135756400A0793977500BA970967B7
:102F6000BA97C2978C4305473316C70089C64D8E62
:102F700090C3014582801346F6FF6D8ED5BF0111C7
:102F800026CA444106CE22CC4AC84EC652C456C2B6
:102F90005AC099C8F2406244D2444249B249224AD6
:102FA000924A024B05618280B70700809387874869
:102FB000930A50036303F500814A37090080832791
:102FC000890B2A841305890B9C439309C40E130AA9
:102FD000890B8297130B0040814626868145228506
:102FE000853763DF54010146A6852285213B9397EF
:102FF0002400A29723A4070023A0090023A209000C
:103000008504E109E39A64FD0146814522859535F1
:1030100083270A00A2860146DC4FAD451305890BC4
:10302000829783270A0037360120A286DC4F1306D9
:1030300066E1AD451305890B829783270A00AD45EC
:103040001305890BDC53829785475CC0A1B7B7078E
:1030500000809387874801476314F50013075003E6
:10306000FD5763D4E502011106CE22CC2EC62A8478
:10307000EFF0AFA03246AA8585462285D135F240D1
:10308000624481473E85056182803E858280B70724
:1030900000809387874801476314F50013075003A6
:1030A000FD5763D4E502011106CE22CC2EC62A8438
:1030B000EFF0AF9C3246AA85814622855135F24019
:1030C000624481473E85056182803E858280011190
:1030D000B707008006CE22CC26CA4AC84EC652C4C4
:1030E0009387874801476314F50013075003FD5485
:1030F0006358E600328AAA892E848144014911E886
:10310000F240624426854249D244B249224A0561CE
:103110008280630B090085465286CA854E850D352F
:10312000058933152501C98C05090580C9BF011121
:10313000B707008006CE22CC26CA4AC84EC652C463
:103140009387874801476314F50013075003FD5424
:103150006358E600328AAA892E848144014911E825
:10316000F240624426854249D244B249224A05616E
:103170008280630B090081465286CA854E85C93319
:10318000058933152501C98C05090580C9BF83A7A9
:10319000C183411122C406C68145138501828297ED
:1031A0002A84931714007D5563DF0700635D0400D4
:1031B00037050080130585071374F403EF00901B97
:1031C000050433558502B240224441018280C1B7D3
:1031D00083A7C183411106C6914513850182829759
:1031E0009317150063DC0700635A0500B2403705EA
:1031F00000801305050641016F00D017B2407D55D0
:1032000041018280F1B7138501828280214582804D
:10321000411122C42A84484106C6EF007012B787C4
:10322000001098479316F70063D706009847C176B9
:10323000FD16758F98C7378700101C47B706020028
:10324000B725F400D58F1CC71C4022859385054007
:10325000DC43829708442244B24041016F00500E83
:10326000011106CE22CC26CA2A844D372AC62285D1
:10327000593F83A4C183B24582942A84B145138502
:10328000018282949317F40063CC07006244F240F9
:10329000D244370500801305450805616F00900D85
:1032A0009317E400AA8463C5070637050080130559
:1032B0004508EF00300C9317D40063C607049357FA
:1032C00044008566938606C093F7F703137774006E
:1032D0008507758C9306F03F0507860763FF860216
:1032E0003345E50229803305F5028547339487008D
:1032F00093F704103345850299E793F4F4038504AA
:10330000860433559502F2406244D24405618280BE
:10331000370500801305C50669BF7D55EDB7797186
:1033200022D426D24AD006D64ECE52CCAA842E899A
:1033300037840010E13D2A941C401397F70063572F
:1033400007001C4041777D17F98F1CC01C40139764
:10335000E700634D07023705008013054508EF00BD
:1033600070010D473307E50291463347D7026344A6
:10337000E9029547B307F502B3C7D70263CD27012A
:103380001C4037070400D98F1CC021AA37050080D4
:103390001305C506E9B73717012037080080130762
:1033A00047D7FD561348F8FF13063004FD551C4758
:1033B000636AF5025C4763E7A7021C438328470062
:1033C000B307F502B3D71703638EB700B38727415E
:1033D00093D8F741B3C7F800B387174163D4070107
:1033E0003E88B2867D160117E313B6FC1C40E38AC3
:1033F000C6F8E19B1CC0B70701209606938747518A
:10340000B697984B10401D8B518F18C018401377FA
:10341000F7C018C0D84B144012071377073F558FD9
:1034200018C01840FD769386F63F758F18C0984FE8
:10343000104085662A07938606C0758F518F18C085
:10344000D84FB7870010635C0706D847136707108B
:10345000D8C7D847137707FCD8C7D84713671700D2
:10346000D8C71C403707FCFF7D17F98FB7190080BC
:103470001CC0300085451385C9AAEFE09F932249FF
:10348000B247130A490033392A013E99B2476367AC
:10349000F90063932705A2476370FA041C40E3DF39
:1034A00007FE1C4041672685D98F1CC0553BB25092
:1034B000225492540259F249624A45618280D447AB
:1034C0001377F70393F6F6EFD4C7D44793F606FCC9
:1034D000D4C7D447558F69B7300085451385C9AA2D
:1034E000EFE03F8D65B7B7870010BE9588418280B9
:1034F000B7870010BE9590C1328582801387C18145
:10350000B72701106303A7008147D8430145D98D30
:10351000CCC382801387C181B72701106303A70042
:103520008147D84393C5F5FF0145F98DCCC382800F
:103530009387C1816385A700814788438280B7272D
:103540000110E5BF9387C1816385A7008147C84704
:103550008280B7270110E5BF1387C181B72701100B
:103560006303A7008147984793C5F5FF0145F98D8F
:103570008CC782801387C181B72701106303A7001E
:10358000814798470145D98D8CC782801387C181B7
:10359000B72701106303A7008147D8470145D98D9C
:1035A000CCC782801387C181B72701106303A700AE
:1035B0008147D84793C5F5FF0145F98DCCC7828077
:1035C0001387C181B72701106303A7008147D8473C
:1035D0000145B98DCCC782801387C181B7270110FF
:1035E0006303A7008147D85F0145D98DCCDF985F81
:1035F000598E90DF82801387C181B7270110630342
:10360000A7008147985F93C5F5FF0145F98D8CDFD1
:1036100082801387C181B72701106303A700814708
:103620001D47636CC70237170120130747D90A06E5
:103630003A9618420287984F93C5F5FF6D8F98CF41
:1036400098536D8F98D398576D8F98D7985BF98D55
:103650008CDB21A0984FD98D8CCF01458280984F6B
:103660004D8F98CF9853D98D8CD3C5BF9857D98D8E
:103670008CD7E5B7984F4D8F98CF98534D8F98D3EF
:1036800098574D8F98D7985BD98DD9B71387C1813B
:10369000B72701106303A70081477D161947636DA3
:1036A000C70037170120130747DB0A063A9618426E
:1036B0000287D84FD98DCCCF01458280D84F4D8F0E
:1036C000D8CFD853D98DCCD3C5BFD857D98DCCD767
:1036D000E5B7D84F4D8FD8CFD8534D8FD8D3D857C3
:1036E0004D8FD8D7D85BD98DCCDBF9B79387C18103
:1036F0006384A70001458280370500801305854853
:1037000082809387C1816398A71021456386051045
:10371000854725456382F51089472945638EF50E57
:103720008D472D45638AF50E914731456386F50E29
:10373000954735456382F50E99473945638EF50CFB
:103740009D473D45638AF50CA14741456386F50CCD
:10375000A54745456382F50CA9474945638EF50A9F
:10376000AD474D45638AF50AB14751456386F50A71
:10377000B54755456382F50AB9475945638EF50843
:10378000BD475D45638AF508C14761456386F50815
:10379000C54765456382F508C9476945638EF506E7
:1037A000CD476D45638AF506D14771456386F506B9
:1037B000D54775456382F506D9477945638EF5048B
:1037C000DD477D45638AF504E14713050002638503
:1037D000F504E547130510026380F504E947130576
:1037E0002002638BF502ED47130530026386F50274
:1037F000F147130540026381F502F5476D45638D7E
:10380000F500F94771456389F500FD47014563956A
:10381000F5007545828001458280B7170080938747
:1038200007A6630DF50037170080130707A8B73701
:1038300002106303E50081473E858280B73701109F
:10384000E5BFB7170080938707A6630AF500B7178F
:103850000080938707A86304F5000145828037053F
:103860000080130585488280B7170080938707A6DC
:10387000630CF50037170080130707A8914763030F
:10388000E50081473E8582808D47EDBF411106C628
:1038900069371C49B24093E717001CC90145410133
:1038A0008280411106C6953F1C49B240F99B1CC954
:1038B000014541018280411106C685371C49B2404D
:1038C00093E727001CC9014541018280411106C6CA
:1038D000A9371C49B240F59B1CC9014541018280B2
:1038E000411106C61D3F0841B2407D8141018280E1
:1038F000011106CE2EC61537B2451C453707070005
:10390000C205F240F98DDD8D0CC50145056182804F
:10391000411106C619370845B24041811D89410150
:103920008280011106CE2EC6CD3DB2455C453707DB
:103930000700C205F240F98DDD8D4CC501450561DA
:103940008280411106C6D13D4845B24041811D8962
:1039500041018280411122C426C24AC006C62A897A
:10396000AE84653D2A844A85A53F75FD04C0B240FA
:103970002244924402494101828001112EC606CEA2
:10398000693D5841B2459377F70F63530700FD57E0
:10399000F2409CC10145056182804841828001114D
:1039A00026CA06CE22CCAA848D3DB7170080938705
:1039B00007A6638DF404B7170080938707A8638771
:1039C000F40481471845B706F9FFFD16758F18C531
:1039D0001845C166558F18C55849058B75DF984342
:1039E00000453E85184309881334140002972504C6
:1039F0003305A402C04002C633558502B24763CCEA
:103A0000A700F2406244D24405618280B70700807B
:103A10009387070945BF0100B24785073EC6F9BF36
:103A20004C41D1A2B7170080938707A6630BF5001E
:103A3000B7170080938707A86305F5004CC10145BF
:103A40008280411106C622C426C24AC02E84AA849E
:103A5000E9332A893705008083270509C0C013058B
:103A600005099C43829733458502B2402244924423
:103A70007D15232CA90083278900014593E71700B2
:103A80002324F9008327C90093E717002326F900B0
:103A900002494101828001114AC83719008022CCB5
:103AA0004EC606CE26CA130909A62A84AE89630922
:103AB0002501B7170080938707A88144631EF5028C
:103AC000B704008093840409C840B7470120938756
:103AD000E7991CC49305840040C44920C8C0B74777
:103AE00001208844938707A25CC800CC9305440159
:103AF000B52088C49384C181CE852285ED2095C8E8
:103B000037060300630B2401B7170080938707A8CB
:103B1000370684006303F40001469C406244F2408F
:103B20004249B24903A347022685D2448145056133
:103B30000283F2406244D2444249B2490561828024
:103B4000411122C406C62A8409E4B240224441013C
:103B500082801C40484082970044FDB723A40500A2
:103B6000AA8701E52E858280BA87984775FF8CC7A2
:103B7000AA85CDBF1C4103A307000283011122CCFB
:103B80002A84484106CE26CA2EC65D3F1C40B24557
:103B90002285DC438297AA8408445D37F240624460
:103BA0002685D244056182801C4103A3070002835D
:103BB0001C4103A3470002831C4103A3C7020283E5
:103BC00001E503A54184828001458280732540F18F
:103BD00082800100FDBF1C4103A3070002831C413A
:103BE00003A3470002831C4103A347010283000093
:103BF00000000000000000000000000000000000C5
:103C00006FE00FE86FE0CFE76FE08FE76FE0EFE97D
:103C10006FE00FE76FE0CFE66FE08FE66FE0AFF0A9
:103C20006FE00FE66FE0CFE56FE08FE56FE04FE507
:103C30006FE00FE56FE0CFE46FE08FE46FE04FE4FB
:103C40006FE02FF66FE0AFFD6FE03F856FE0BF8C58
:103C50006FE03F946FE0BF9B6FE03FA36FE0BFAAB0
:103C60006FE03FB26FE0BFB96FE03FC16FE0BFC828
:103C70006FE03FD06FE0BFD76FE03FDF6FE0BFE6A0
:103C8000B7070080938707066308F502B70700802F
:103C9000938787076307F502370700801307C70973
:103CA000A1676309E500370700801307870A6303EC
:103CB000E50081473E858280B727F400938707405F
:103CC000D5BFB7A74A0493870720EDB7B707008091
:103CD000938707066308F502B70700809387870775
:103CE0006307F502370700801307C709A167630957
:103CF000E500370700801307870A6303E500814763
:103D00003E858280B727F40093870740D5BFB7A7C9
:103D10004A0493870720EDB7411122C406C62E84BA
:103D2000453509C9513508C04CC00145B24022444F
:103D3000410182807D55DDBF411122C406C62E841B
:103D4000413509C9B53508C04CC00145B2402244CF
:103D5000410182807D55DDBF411106C69122B240EE
:103D6000930780051CC17D5541018280411106C623
:103D7000052AB240930780FA1CC17D55410182801B
:103D80007D15133515008280411106C6112AB240F7
:103D9000930780051CC17D5541018280411106C6F3
:103DA0000122B240930780051CC17D5541018280EC
:103DB000938701D013870150638CE70093870185B7
:103DC000944336956375E50088C33685828098C331
:103DD000FD56E5BF797106D622D426D24AD052CEFE
:103DE00056CC5ACA5EC82A89D5332C002A84A937F2
:103DF0008A8522851537224AB24A024B924B528657
:103E0000D6862322090023240900232609005A8587
:103E1000DE8537440F00092D13040424B3378502CF
:103E20005286D686B385850233058502BE95712CF0
:103E3000AA845286D6865A85DE85412C33058502B2
:103E4000B2502254724AE24A524BC24B269523206A
:103E5000A9009254025945618280411106C622C4CC
:103E600026C285476319F5002E84B384C500631EFE
:103E70009400014531A02D20930780051CC17D557C
:103E8000B24022449244410182800345040005046B
:103E9000EF00D018E9BFAA85814601460145F1A887
:103EA00097D7FE5F938707C088438280411122C461
:103EB00006C697070000938707152A8499C3814592
:103EC000892297D7FE5F938727BE88431C5591C3ED
:103ED00082972285EF005016411197C7FFFF938705
:103EE000674022C417C4FFFF1304C43F1D8C26C2C1
:103EF00006C60984BE8411E4B240224492444101C2
:103F000082807D1493172400A6979C438297E5B77F
:103F1000411197C7FFFF9387E73B22C417C4FFFFF8
:103F20001304443B1D8C26C24AC006C60984814442
:103F30003E896396840297C7FFFF9387A73917C40A
:103F4000FFFF130424391D8C098481443E89639F3B
:103F50008400B240224492440249410182809397F6
:103F60002400CA979C4385048297E1B79397240065
:103F7000CA979C4385048297D9BF97D7FE5F9387E2
:103F800067B89C432A8E9DE317D7FE5F130747B897
:103F900097D7FE5F23A8E7B617C5FEDF1305850692
:103FA000BA8709C51C4123AAF18EBA87D8437D4838
:103FB0007D556347E804630E0E0203A8870863017A
:103FC000080493182700C29823A0C80003230810F0
:103FD00005463316E6003363C3002320681023A090
:103FE000D80889466317DE0083264810558E2322A1
:103FF000C810930617000A07D4C3BA978CC70145A7
:104000008280797152CC56CA5AC85EC606D622D46E
:1040100026D24AD04ECE62C42A8B2E8A97DAFE5F11
:10402000938A4AAE854B03A40A0011C844408329F1
:1040300084081389F4FF8A04A294635E0900B250D5
:10404000225492540259F249624AD24A424BB24B2C
:10405000224C45618280630E0A00639509007D1938
:10406000F114E1BF93172900CE9783A70708E398BF
:1040700047FF5840DC407D176318270323222401A3
:10408000F9DF032C44006388090083A609103397E5
:104090002B01F98E89EE8297584083A70A00E3141A
:1040A00087F9E30EF4FA41B723A20400D1BF9316B7
:1040B0002900CE968C4283A64910758F01E75A8558
:1040C0008297D9BF2E858297C1BFAE873288368747
:1040D0002A836396062097D8FFFF9388A8D863FEAB
:1040E000C50A41676374E60A1307F00F3337C70048
:1040F0000E07B356E600B69883C6080036979306B7
:104100000002998E99CAB397D7003357E500331848
:10411000D600B365F7003313D5001355080133F704
:10412000A50213160801418293560301B3D5A502D7
:104130004207D98EB307B6022E8763FCF600C296FB
:104140001387F5FF63E7060163F5F6001387E5FFC4
:10415000C2969D8EB3F7A602420313530301B3D652
:10416000A602C20733E36700B305D6023685637B38
:10417000B30042931385F6FF636603016374B300D3
:104180001385E6FF4207498F81454DA8B706000118
:104190004147E360D6F66147A9BF01E6854633D8BB
:1041A000C602C166637ED8089306F00F63F306016A
:1041B0002147B356E800B69883C60800BA9613079D
:1041C0000002158F49E7B38707418545135608015B
:1041D0009318080193D808019356030133F7C702D7
:1041E000B3D7C7024207D98E3385F8023E8763FCF6
:1041F000A600C2961387F7FF63E7060163F5A600E2
:104200001387E7FFC296898EB3F7C60242031353A2
:104210000301B3D6C602C20733E36700B388D802EE
:104220003685637B130142931385F6FF63660301B2
:10423000637413011385E6FF4207498F3A85828034
:10424000B70600014147E366D8F661479DB73318CA
:10425000E800B3D5D7003313E500B356D5001355A6
:104260000801B397E70033F7A502B3E8F600931708
:104270000801C18313D60801B3D5A5024207518FA7
:10428000B386B7022E86637CD70042971386F5FF6C
:10429000636707016375D7001386E5FF4297B3068E
:1042A000D74033F7A602C20893D80801B3D6A602B6
:1042B0004207B385D702B3671701368763FCB7009F
:1042C000C2971387F6FF63E7070163F5B70013870B
:1042D000E6FFC2978D8F93150601D98DC5BD63E2A8
:1042E000D514416763FEE6021308F00F3337D80098
:1042F0000E0733D8E60097D5FFFF9385A5B6C29584
:1043000003C80500930500023A98B385054185E18D
:104310000547E3E5F6F23335C5001347150039BF0D
:10432000B70500014147E3E6B6FC6147D9B733570B
:104330000601B396B600D98E93DE060133D7070186
:10434000B378D703B397B700335805013363F80048
:1043500093970601C183135803013316B6003357F0
:10436000D703C20833E80801338FE7023A8E637C33
:10437000E8013698130EF7FF6367D8006375E8010C
:10438000130EE7FF36983308E841B378D803335863
:10439000D803C208B38E070393170301C183B3E7A1
:1043A000F800428763FCD701B6971307F8FF63E76D
:1043B000D70063F5D7011307E8FFB697420EB3871E
:1043C000D741C16E3367EE001388FEFF33730701D8
:1043D00093580701337806014182330E0303338873
:1043E000080393560E013303C30242939A96B3888F
:1043F000C80263F30601F69813D60601B29863E08B
:104400001703E39317D9C167FD17FD8EC206337EEC
:10441000FE003315B500F2968145E371D5E27D17B4
:10442000A5B38145014719BDB2883687AA872E8872
:104430006398061C97D6FFFF9386C6A263F8C50A49
:104440004163637E66081303F00F6373C300214763
:104450003353E6009A9603CE0600130300023A9EF9
:104460003303C341630C0300B3956500335EC5019C
:10447000B31866003368BE00B317650013D6080191
:104480003377C80213950801418193D60701335849
:10449000C8024207D98E3308050363F80601C696A1
:1044A00063E5160163F30601C696B386064133F74A
:1044B000C602C207C183B3D6C602B306D50213151E
:1044C0000701C98F63F8D700C69763E5170163F347
:1044D000D700C697958F33D5670081458280370313
:1044E00000014147E36666F661479DB701E6054670
:1044F000B3581603416663F3C8081306F00F6373DD
:104500001601214733D6E800B29603CE0600130306
:1045100000023A9E3303C34163190306B385154174
:1045200013D7080113950801418113D60701B3F68B
:10453000E502B3D5E502C206D18EB305B50263F834
:10454000B600C69663E5160163F3B600C696B3855A
:10455000B640B3F6E502C207C183B3D5E502B305A1
:10456000B50213950601C98F63F8B700C69763E5D6
:10457000170163F3B700C6978D8FB1BF37060001EF
:104580004147E3E1C8F86147B5BFB398680033D746
:10459000C501B3176500335EC50113D50801B376B5
:1045A000A702B3956500336EBE0093950801C181E3
:1045B00013560E013357A702C206D18E3387E50288
:1045C00063F8E600C69663E5160163F3E600C69657
:1045D0003386E640B376A602420E135E0E013356D2
:1045E000A602C2063386C502B3E5C60163F8C5005C
:1045F000C69563E5150163F3C500C695918D0DB7AA
:10460000E3EED5EC416763F5E604930EF00F33B7A4
:10461000DE000E0733D3E60097D8FFFF9388888427
:104620009A9883CE0800130E0002BA9E330EDE4124
:1046300063170E0263E4B6006369C500B307C540A3
:10464000958D3335F5003388A5403E85C28579B513
:10465000B70800014147E3EF16FB614765BF3357D9
:10466000D601B396C601D98E13D8060133D7D5012A
:1046700033730703B395C501B357D501CD8F939518
:104680000601C18193D807013316C6013315C50150
:10469000335707034203B3681301338FE5023A83AC
:1046A00063FCE801B6981303F7FF63E7D80063F5EE
:1046B000E8011303E7FFB698B388E84133FF080326
:1046C000B3D80803420F3388150393950701C181BE
:1046D000B365BF00C68763FC0501B6959387F8FFF5
:1046E00063E7D50063F505019387E8FFB6954203BC
:1046F000416F3363F3009307FFFFB378F300B38593
:1047000005411353030113580601F18F3387F80253
:10471000B307F302B388080333030303BE981358A7
:10472000070146986373F8007A93935708013E9304
:10473000C167FD173378F80042087D8F429763E622
:104740006500639C6500637AE5003306C740333734
:10475000C70036973303E34032873307E5403335EC
:10476000E500B3856540898DB397D5013357C701FF
:1047700033E5E700B3D5C50195B3B717008093873C
:1047800087B0984315EF411122C426C23704012097
:1047900006C60547B704012098C39384C42D930728
:1047A000042D1304042D63EA9700B240224492447E
:1047B000410182801C4011048297E31D94FEF5B7ED
:1047C0008280B7170080938747B0984315EF411157
:1047D00022C426C23704012006C60547B7040120BB
:1047E00098C39384042E9307042E1304042E63EAC3
:1047F0009700B24022449244410182801C4011043F
:104800008297E31D94FEF5B7828085BF5DBFAA85C0
:1048100037150080130505A66FF06FBC411122C447
:1048200006C6A9472A846314F5003545CD3722858D
:104830002244B2404101E1BF411106C6EFF06FB919
:1048400000000000580301207803012038030120F4
:104850000000000000000000000000000000000058
:104860000000000000000000000000000000000048
:104870000000000000000000000000000000000038
:104880000000000000000000000000000000000028
:104890000000000000000000000000000000000018
:1048A000E80A00800000000000000000D40A008038
:1048B0000000000000000000E80A00800000000086
:1048C00000000000CC0A0080000000000000000092
:1048D0000C0501200000000000000000E80A008034
:1048E0000000000000000000E80A00800000000056
:1048F0000000000000000000400401200000000053
:1049000000000000000000000000000000000000A7
:104910000000000000000000000000000000000097
:104920000000000000000000000000000000000087
:104930000000000000000000000000000000000077
:104CC0000000000000000000A4040120000000001B
:104CD00000000000000000000000000000000000D4
:104CE00000000000000000000000000000000000C4
:104CF00000000000000000000000000000000000B4
:104D000000000000000000000000000000000000A3
:1052A0000C0E0120000000000000000000000000C3
:1052B00000000000000000000000000000000000EE
:1052C0000C0E0120000000000000000000000000A3
:1052D00000000000000000000000000000000000CE
:1052E0000000008000000080BC0A008098030120BC
:1052F00000000000FC03012000000000D00D012090
:10530000DC0A0080B40A0080010304008E31012011
:10531000CE310120D031012004320120E6340120B9
:10532000F0340120B40A0080803C0120CC3C0120F4
:04533000A00F00804A
:0400000520010000D6
:00000001FF
