:020000042001D9
:100000009711FF5F938181769702000093828201AE
:100010007390523093021000638402007350107C7E
:100020009702000093828215739052301701FFDF10
:10003000130141FD63140100138181D0732540F148
:10004000814213030040137101FF6385A2001A91DE
:100050008502D5BF970000009380A0046383000051
:100060008290732540F181450146392A9700FFDFD0
:10007000938040F96383000082909702000093828E
:10008000C2007390523003230000F5BF000000004F
:100090008280232003001103E34D73FE82800684D7
:1000A0009702FFDF938202F66385020C9702FFDF5F
:1000B000938242F5F32740F1A14673B00630639670
:1000C000570A1703FFE71303E3F39723FFE793832D
:1000D00063F3630E7300753F1703FFDF130383F2AF
:1000E0009703FFDF938303F2630373005D37170306
:1000F000FF5F130323F19743FF5F9383A3F0630331
:100100007300413F1703FFDF1303C3EF9703FFDFC4
:10011000938343EF63037300AD3F1703FFDF1303C4
:1001200063EE9703FFDF9383E3ED6303730095377B
:100130001703FFDF130303ED9703FFDF938383ECC4
:1001400063037300B9371703FFDF1303A3EB9703B0
:10015000FFDF938323EB63037300253F3707000220
:1001600085471CC30F00300129A0370700021C433C
:10017000EDDFA28082800000F3222034732310344C
:10018000F3233034D5BF828006849711FF5F9381BB
:10019000E15D930200006317550A976200009382A5
:1001A00062FB1703FF5F1303E3E59713FF5F93837E
:1001B00063E1638C6200635A730003A5020091023D
:1001C0002320A3001103E34A73FE971200009382D9
:1001D000E2641703FFE71303E3E29703FFE7938368
:1001E00063E2638C6200635A730003A5020091020C
:1001F0002320A3001103E34A73FE0F10000017131E
:10020000FF5F130323DC9383019063577300232064
:1002100003001103E34D73FE1712FF5F130282DA2E
:1002200011C20296175500001305E55BEF504057C9
:10023000EF50A05E17650000130525EEEF50405605
:10024000EF50506D8937FD5673B0463073B0463469
:10025000F3271030372704007D8F09C773B036307D
:1002600073B02630370704007D8F19C373B00618AA
:100270003707010013078702F98F89CBF327003076
:100280000967D98F73900730735030000545971573
:10029000000093852547171600001306E646312017
:1002A000EF506051A28082808280411106C2F32209
:1002B00040F1130300006385620073005010F5BF26
:0A02C000EF10005C924041018280C3
:0C02D000E8020120DC020120FC020120F9
:1002DC0037050080130505536F40C02AB725F4007D
:1002EC003705008093850540130505536F50000AB0
:1002FC00F1653715008093850520130585F26F5045
:02030C00601A75
:100310000000000000000000002F000000000700A7
:10032000070000147F147F1400242A7F2A12006221
:1003300064081323003649552250000005030000CD
:1003400000001C224100000041221C000014083E55
:1003500008140008083E0808000000A0600000081B
:10036000080808080000606000000020100804026F
:10037000003E5149453E0000427F4000004261512D
:100380004946002141454B31001814127F100027C7
:1003900045454539003C4A4949300001710905038A
:1003A00000364949493600064949291E00003636BB
:1003B000000000005636000000081422410000141E
:1003C00014141414000041221408000201510906FB
:1003D00000324959513E007C1211127C007F49497C
:1003E0004936003E41414122007F4141221C007FAD
:1003F00049494941007F09090901003E4149497ABB
:10040000007F0808087F0000417F41000020404134
:100410003F01007F08142241007F40404040007FA0
:10042000020C027F007F0408107F003E4141413EE4
:10043000007F09090906003E4151215E007F09192C
:1004400029460046494949310001017F0101003F29
:100450004040403F001F2040201F003F4038403FA9
:10046000006314081463000708700807006151490D
:10047000454300007F41410000552A552A550000A0
:1004800041417F000004020102040040404040401E
:10049000000001020400002054545478007F4844B6
:1004A000443800384444442000384444487F0038ED
:1004B0005454541800087E0901020018A4A4A47C16
:1004C000007F080404780000447D400000408084E0
:1004D0007D00007F102844000000417F4000007C28
:1004E00004180478007C0804047800384444443834
:1004F00000FC242424180018242418FC007C080480
:10050000040800485454542000043F444020003C58
:100510004040207C001C2040201C003C4030403CDF
:10052000004428102844001CA0A0A07C004464546F
:100530004C441414141414140000000000000000B3
:100540000000000000000000000000F800000000B3
:10055000000000333000000000100C06100C0600F4
:10056000000000000000000040C07840C07840005B
:10057000043F04043F040400007088FC08300000BD
:10058000001820FF211E0000F008F000E018000015
:1005900000211C031E211E0000F0088870000000CE
:1005A0001E2123241927211010160E000000000020
:1005B0000000000000000000000000E0180402003D
:1005C000000000071820400000020418E0000000AE
:1005D0000040201807000000404080F080404000AC
:1005E0000202010F01020200000000F00000000002
:1005F0000101011F010101000000000000000000D6
:1006000080B070000000000000000000000000004A
:1006100000010101010101010000000000000000D3
:10062000003030000000000000000000806018046E
:10063000006018060100000000E010080810E0004B
:10064000000F102020100F00001010F80000000014
:100650000020203F2020000000700808088870005B
:1006600000302824222130000030088888483000DB
:100670000018202020110E000000C02010F80000FB
:1006800000070424243F240000F808888808080094
:100690000019212020110E0000E0108888180000A9
:1006A000000F112020110E0000380808C83808007B
:1006B0000000003F000000000070880808887000FB
:1006C000001C222121221C0000E010080810E0007C
:1006D0000000312222110F00000000C0C000000005
:1006E000000000303000000000000080000000002A
:1006F0000000806000000000000080402010080022
:1007000000010204081020004040404040404000EA
:1007100004040404040404000008102040800000C5
:100720000020100804020100007048080808F000CA
:100730000000003036010000C030C828E810E0009A
:100740000718272423140B000000C038E000000025
:10075000203C23020227382008F88888887000008F
:10076000203F202020110E00C03008080808380063
:10077000071820202010080008F808080810E000DA
:10078000203F202020100F0008F88888E80810007B
:10079000203F20202320180008F88888E80810004F
:1007A000203F200003000000C03008080838000087
:1007B00007182020221E020008F808000008F80888
:1007C000203F210101213F20000808F8080800000F
:1007D0000020203F2020000000000808F808080042
:1007E000C08080807F00000008F888C028180800BA
:1007F000203F20012638200008F8080000000000F3
:10080000203F20202020300008F8F800F8F80800E9
:10081000203F003F003F200008F830C00008F808E3
:10082000203F200007183F00E01008080810E000F3
:100830000F10202020100F0008F808080808F0000A
:10084000203F210101010000E01008080810E0002D
:100850000F18242438504F0008F8888888887000C2
:10086000203F2000030C3020007088080808380062
:100870000038202121221C00180808F80808180058
:100880000000203F2000000008F808000008F808D9
:10089000001F202020201F000878880000C838088A
:1008A000000007380E010000F80800F80008F80002
:1008B000033C0700073C030008186880806818089C
:1008C00020302C03032C30200838C800C83808001A
:1008D0000000203F2000000010080808C838080069
:1008E0002038262120201800000000FE020202000D
:1008F0000000007F40404000000C30C000000000BD
:10090000000000010638C00000020202FE000000E4
:10091000004040407F00000000000402020204008A
:1009200000000000000000000000000000000000C7
:1009300080808080808080800002020400000000AF
:1009400000000000000000000000808080800000A7
:100950000019242222223F2008F800808000000095
:10096000003F112020110E00000000808080000058
:10097000000E112020201100000000808088F80067
:10098000000E112020103F20000080808080000099
:10099000001F222222221300008080F088888818FD
:1009A0000020203F20200000000080808080800008
:1009B000006B94949493600008F80080808000009D
:1009C000203F210000203F20008098980000000078
:1009D0000020203F202000000000008098980000A8
:1009E00000C08080807F000008F8000080808000C8
:1009F000203F24022D302000000808F800000000ED
:100A00000020203F202000008080808080808000A7
:100A1000203F20003F20003F808000808080000039
:100A2000203F210000203F200000808080800000C7
:100A3000001F202020201F008080008080000000F8
:100A400080FFA12020110E00000000808080800027
:100A5000000E112020A0FF80808080008080800018
:100A600020203F2120000100000080808080800045
:100A70000033242424241900008080E080800000BA
:100A80000000001F20200000808000000080800007
:100A9000001F202020103F20808080000080808068
:100AA00000010E30080601008080008000808080F8
:100AB0000F300C030C300F0000808000808080001D
:100AC0000020312E0E312000808080000080808048
:100AD00080818E70180601000080808080808000F8
:100AE0000021302C2221300000000000807C020216
:100AF00000000000003F404000000000FF00000038
:100B000000000000FF0000000002027C80000000E6
:100B10000040403F00000000000601010202040402
:100B2000000000000000000031363A33393A353811
:100B3000000000004F637420333120323032300027
:100B40002573202573200A004F4C45442064656DB1
:100B50006F20746573742E2E00000000493243200C
:100B60006E6F7420617661696C61626C6520000053
:100B7000537061726B46756E205265642D5620422B
:100B80006F6172640000000048656C6C6F204675F0
:100B90006E7061636B000000000000000000000048
:100BA0000000000000000000000000000000000045
:100BB0000000000000000000000000000000000035
:100BC0000000000000000000000000000000000025
:100BD0000000000000000000000000000000000015
:100BE0000000000000000000000000000000000005
:100BF0000000000000000000232D302B200000002A
:100C0000686C4C00656667454647000030313233FA
:100C100034353637383941424344454600000000F8
:100C20003031323334353637383961626364656662
:100C300000000000F02F0120CA2F0120B22F012058
:100C40000000000000000000F831012016320120F1
:100C5000E2300120AE2F01209430012046300120E7
:100C60000000000000000000000000000000000084
:100C70000000000000000000000000000000000074
:100C800070310120822F01200000000000000000D0
:100C900000000000000000007E330120903301209E
:100CA000B2330120D8340120E4330120EE33012097
:100CB000BE350120F2330120F63301202634012015
:100CC0005634012086340120923501209C340120C5
:100CD000AE340120B4340120BC340120343501206D
:100CE000C8350120003F0120000000000000000086
:100CF0000000000000000000383F0120000000005C
:100D00007C40012080400120000000000000000025
:100D100000000000000000000000000000000000D3
:100D200000000000000000007A33012000000000F5
:100D300000000000000000000000000000000000B3
:100D4000FE42012000000000000000000000000042
:100D5000000000000000000000000000D240012060
:100D600000000000CE4301200E44012000000000DE
:100D7000000000009A42012014420120AA400120F4
:100D8000844001200000000000000000000000007E
:100D9000000000004E440120AE44012030420120FA
:100DA000B242012090450120E04501209E460120ED
:100DB0000100000020000000001BB70000366E019B
:100DC000010000001F000000030000003F000000C1
:100DD000010000002000000000366E01006CDC0203
:100DE000030000001F000000020000003F000000A0
:100DF0000100000010000000808D5B00001BB700A8
:100E0000000000001F000000030000003F00000081
:100E10000100000010000000001BB70000366E014A
:100E2000010000001F000000020000003F00000061
:100E3000010000001000000000366E01006CDC02B2
:100E4000030000001F000000020000001F0000005F
:100E50000100000008000000808D5B00001BB7004F
:100E6000000000001F000000030000001F00000041
:100E70000100000008000000001BB70000366E01F2
:100E8000010000001F000000020000001F00000021
:100E9000010000000800000000366E01006CDC025A
:100EA000030000001F000000020000000F0000000F
:100EB0000100000004000000808D5B00001BB700F3
:100EC000000000001F000000030000000F000000F1
:100ED0000100000004000000001BB70000366E0196
:100EE000010000001F000000020000000F000000D1
:100EF000010000000400000000366E01006CDC02FE
:100F0000030000001F0000000200000007000000B6
:100F10000100000002000000808D5B00001BB70094
:100F2000000000001F000000020000000F00000091
:100F30000100000002000000001BB70000366E0137
:100F4000010000001F000000010000000F00000071
:100F5000010000000200000000366E01006CDC029F
:100F6000030000001F000000010000000700000057
:100F70000200000001000000808D5B00001BB70034
:100F8000000000001F00000001000000070000003A
:100F90000200000001000000001BB70000366E01D7
:100FA000010000001F00000001000000030000001D
:100FB000020000000100000000366E01006CDC023F
:100FC000030000001F00000003000000FFFFFFFF00
:100FD0000400000001000000808D5B00001BB700D2
:100FE000000000001F0000000300000000000000DF
:100FF0000400000001000000001BB70000366E0175
:10100000010000001F00000003000000FFFFFFFFC1
:10101000040000000100000000366E01006CDC02DC
:10102000030000001F00000002000000FFFFFFFFA0
:101030000600000001000000808D5B00AAC2A20033
:10104000000000002300000001000000020000007A
:101050000600000001000000AAC2A200001BB700A9
:10106000000000001700000003000000FFFFFFFF6A
:101070000600000001000000001BB7000024F4007F
:10108000010000002F00000003000000FFFFFFFF31
:1010900006000000010000000024F40080A81201F6
:1010A000010000001700000002000000FFFFFFFF2A
:1010B000060000000100000080A8120155854501CE
:1010C000020000002300000002000000FFFFFFFFFD
:1010D0000800000001000000808D5B00001BB700CD
:1010E000000000001F00000003000000FFFFFFFFE2
:1010F0000800000001000000001BB70000366E0170
:10110000010000001F00000002000000FFFFFFFFC1
:10111000080000000100000000366E01006CDC02D7
:10112000030000001F00000001000000FFFFFFFFA0
:101130000A00000001000000808D5B00007C92002E
:10114000000000002700000003000000FFFFFFFF79
:101150000A00000001000000007C9200001BB700A4
:10116000000000001300000002000000FFFFFFFF6E
:101170000A00000001000000001BB70000F8240175
:10118000010000002700000002000000FFFFFFFF39
:101190000A0000000100000000F8240100366E0182
:1011A000010000001300000001000000FFFFFFFF2E
:1011B0000A0000000100000000366E0100F0490244
:1011C000030000002700000001000000FFFFFFFFF8
:1011D0000C00000001000000808D5B0000127A000E
:1011E000000000002F00000003000000FFFFFFFFD1
:1011F0000C0000000100000000127A00001BB70084
:10120000000000001700000002000000FFFFFFFFC9
:101210000C00000001000000001BB7000024F400D7
:10122000010000002F00000002000000FFFFFFFF90
:101230000C000000010000000024F40000366E01E4
:10124000010000001700000001000000FFFFFFFF89
:101250000C0000000100000000366E0180C3C901CF
:10126000030000002F00000001000000FFFFFFFF4F
:101270000C0000000100000080C3C9010048E80123
:10128000030000002F00000001000000FFFFFFFF2F
:101290000E00000001000000808D5B00B6A1680018
:1012A000000000003700000003000000FFFFFFFF08
:1012B0000E00000001000000B7A16800001BB7008D
:1012C000000000001B00000002000000FFFFFFFF05
:1012D0000E00000001000000001BB7006D43D100AC
:1012E000010000003700000002000000FFFFFFFFC8
:1012F0000E000000010000006E43D10000366E01B8
:10130000010000001B00000001000000FFFFFFFFC4
:101310000E0000000100000000366E01DB86A20115
:10132000030000003700000001000000FFFFFFFF86
:101330001000000001000000808D5B00001BB70062
:10134000000000001F00000002000000FFFFFFFF80
:101350001000000001000000001BB70000366E0105
:10136000010000001F00000001000000FFFFFFFF60
:101370001200000001000000808D5B00AAC2A200E4
:10138000000000002300000002000000FFFFFFFF3C
:101390001200000001000000ABC2A200001BB70059
:1013A000000000001100000001000000FFFFFFFF2F
:1013B0001200000001000000001BB7005585450128
:1013C000010000002300000001000000FFFFFFFFFC
:1013D0001400000001000000808D5B00007C920082
:1013E000000000002700000002000000FFFFFFFFD8
:1013F0001400000001000000007C9200001BB700F8
:10140000000000001300000001000000FFFFFFFFCC
:101410001400000001000000001BB70000F82401C8
:10142000010000002700000001000000FFFFFFFF97
:101430001600000001000000808D5B00E82A850096
:10144000000000002B00000002000000FFFFFFFF73
:101450001600000001000000E92A8500001BB7000B
:10146000000000001500000001000000FFFFFFFF6A
:101470001600000001000000001BB700D1550A0152
:10148000010000002B00000001000000FFFFFFFF33
:101490001800000001000000808D5B0000127A003F
:1014A000000000002F00000002000000FFFFFFFF0F
:1014B000180000000100000000127A00001BB700B5
:1014C000000000001700000001000000FFFFFFFF08
:1014D0001800000001000000001BB7000024F40009
:1014E000010000002F00000001000000FFFFFFFFCF
:1014F0001A00000001000000808D5B0027AE700024
:10150000000000003300000002000000FFFFFFFFAA
:101510001A0000000100000028AE7000001BB70098
:10152000000000001900000001000000FFFFFFFFA5
:101530001A00000001000000001BB7006658E1001F
:10154000010000003300000001000000FFFFFFFF6A
:101550001C00000001000000808D5B00B6A1680047
:10156000000000003700000002000000FFFFFFFF46
:101570001C00000001000000B7A16800001BB700BC
:10158000000000001B00000001000000FFFFFFFF43
:101590001C00000001000000001BB7006D43D100DB
:1015A000010000003700000001000000FFFFFFFF06
:1015B0001E00000001000000808D5B0000A861009B
:1015C000000000003B00000002000000FFFFFFFFE2
:1015D0001E0000000100000000A86100001BB70011
:1015E000000000001D00000001000000FFFFFFFFE1
:1015F0001E00000001000000001BB7000050C300E7
:10160000010000003B00000001000000FFFFFFFFA1
:101610002000000001000000808D5B00001BB7006F
:10162000000000001F00000001000000FFFFFFFF9E
:10163000B6490120D4490120E4490120DE490120B6
:10164000064A0120EC490120004A0120F44901200A
:10165000324A0120424A01203C4A0120644A0120CA
:101660004A4A01205E4A0120524A01209448012042
:101670007C480120B0480120C4480120D8480120FE
:10168000F44801200C49012024490120404901204F
:101690005849012076490120924901200C4A012035
:1016A0006C4A0120824A0120284F0120604E01200F
:1016B000A04D0120624C0120BC4B0120724F012043
:1016C000B25201206E510120FA50012094510120A4
:1016D000B45101203E5201205C5001208250012073
:1016E000A6500120BC500120D0500120E65001201E
:1016F0000A5101202A5101203C5101205C51012056
:1017000008170120000000006C6962676C6F73733A
:1017100000000000000102020303030304040404A8
:10172000040404040505050505050505050505056D
:10173000050505050606060606060606060606064D
:101740000606060606060606060606060606060639
:10175000060606060707070707070707070707071D
:101760000707070707070707070707070707070709
:1017700007070707070707070707070707070707F9
:1017800007070707070707070707070707070707E9
:1017900007070707080808080808080808080808CD
:1017A00008080808080808080808080808080808B9
:1017B00008080808080808080808080808080808A9
:1017C0000808080808080808080808080808080899
:1017D0000808080808080808080808080808080889
:1017E0000808080808080808080808080808080879
:1017F0000808080808080808080808080808080869
:101800000808080808080808080808080808080858
:081810000808080800000000B0
:1018800037160120B7150120371501200111130665
:1018900086B2938545B3130505B406CE22CC26CA7D
:1018A0004AC84EC652C45D2937150120130585B4B8
:1018B000E9230145EF303035371700802320A7FC9E
:1018C00051C9E16505469385056AEF305032154AE6
:1018D000FD28B719012037190120B704008013052E
:1018E000F00FB5241305007D612001458D241305FB
:1018F000007DBD2801441376F40F131546005905E9
:1019000081451375E50F0504B12EE31644FF130559
:10191000007DB9288546138609B78D4501456D249C
:10192000130689B891450145B52A1305007D892024
:101930009524BD2C1305007D2528B92C13870400A0
:10194000A146130600088145014551261305007D77
:10195000052071B7371501201305C5B5392BF240A5
:101960006244D2444249B249224A05450561828017
:10197000411122C426C22A8406C65D2E9307803EEA
:101980003304F402AA846D26058DE36E85FEB24011
:1019900022449244410182800111B717008023063E
:1019A000A10003A507FCA306B10074000547094682
:1019B0009305C00306CEEF301024F240056182800B
:1019C000AA850145D1BFAA8513050004F1B74111CD
:1019D0001305400606C6693F1305E00AD53713050F
:1019E0000002F93F4145E93F1305000BD13F1305C4
:1019F000800CF9370145E9374145D9371305000413
:101A0000C137130510086D3F1305F00F553F13053F
:101A1000100A7D371305600A65371305800A4D37B4
:101A20001305F003713F1305400A593F1305300DAC
:101A3000413F014571371305500D59371305000F0C
:101A400041371305900DAD3F13052002953F130557
:101A5000A00DBD374945AD371305B00D95371305BA
:101A60000002B93F1305D008A13F5145913FB24054
:101A70001305F00A4101A9B74111938505FB22C462
:101A80002A8413F5F50F06C6253F13554400136548
:101A900005013D371375E4002244B240136515007B
:101AA000410139BF797152CC370A012026D24AD080
:101AB0004ECE56CA5AC85EC606D622D462C4AA847E
:101AC0002E89B28A8149130B8007130A8A53A14BCE
:101AD000B3873A0103C4070009ECB2502254925470
:101AE0000259F249624AD24A424BB24B224C4561FA
:101AF000828001141374F40F63769B000509137937
:101B0000F90F8144CA8526851204BD37014C5294D1
:101B1000B307840103C50700050C7535E31A7CFF84
:101B20009305190093F5F50F2685B937214C034528
:101B300084007D1C137CFC0F79350504E3190CFE31
:101B4000A104850993F4F40F93F9F90F51B701112A
:101B500022CC4AC84EC606CE26CAAA891304000B58
:101B60001309800B2285A93D0145993D4145893DD9
:101B7000930400084E85FD14B935EDFC050413747B
:101B8000F40FE31124FFF2406244D2444249B249C7
:101B900005618280014565BF41111305D00806C665
:101BA00005355145313DB2401305F00A410109BDEB
:101BB00041111305D00806C6213541451135B24003
:101BC0001305E00A4101EDBB85476385F6068947A9
:101BD0006389F6088280811713F4F70F63769B0000
:101BE000850B93FBFB0F814433044403DE8526857C
:101BF0006135014CB3078401CE9703C50700050C7E
:101C0000D933E3194CFF9904050993F4F40F1379C0
:101C1000F90FB3872A0183C70700D5FFB2502254BA
:101C200092540259F249624AD24A424BB24B224C78
:101C30004561828079714ECEB709012026D24AD003
:101C400052CC56CA5AC85EC606D622D462C4AA84EA
:101C5000AE8BB28A0149130BE007194A9389093107
:101C60004DBF89B5011122CC4AC81314560037095B
:101C7000008026CA4EC652C456C206CEAA8A2E8AF2
:101C800093040401D53BA28913090940B307390124
:101C900003C507008509053BE39A99FE93051A00E1
:101CA00093F5F50F5685C93B13040402B307990059
:101CB00003C507008504013BE39A84FEF2406244B9
:101CC000D2444249B249224A924A056182800111B6
:101CD00022CC26CA4AC84EC652C456C206CE5AC0E4
:101CE0002A89AE84328AB689BA8A014463EC340107
:101CF000F2406244D2444249B249224A924A024BDB
:101D000005618280A6854A85853B330B8940B307F0
:101D10008B0093F7F70F63E64701850493F4F40F04
:101D2000F1B7B3878A0003C5070005046939C5B751
:101D300097F7FE5F93878723884301118A8506CE34
:101D4000A122FD576309F500924702453E95A2473F
:101D50003E95B2473E95F2400561828039713EDA88
:101D60002ED232D436D63AD842DC46DE97F7FE5F22
:101D70009387C71F22CC804326CA06CEAA8409C4F3
:101D80001C4C99E32285352B0C4454102686228561
:101D900036C6EF00F019F2406244D24421618280DD
:101DA000011126CA4AC806CE22CC4EC652C4AA8405
:101DB0002E8901C51C4D91E329239C4C804499E355
:101DC0002685012397F7FFFF938747DF631CF40203
:101DD000C0408357C400A18BB1C71C48A1C7FD599F
:101DE000294A1C4483450900FD17B1E91CC463DE80
:101DF00007062286A94526855928FD576308F5025E
:101E0000294535A097F7FFFF938747DD6314F4005A
:101E10008044C1B797F7FFFF938747D8E31BF4FAD5
:101E2000C04445BFA28526851D2255D97D55F24067
:101E30006244D2444249B249224A056182801CC4AC
:101E4000050963D70700184C63CBE7006389450198
:101E50001C401387170018C02380B70059B722868B
:101E600026853520E31F35F7D1B71C4013871700AF
:101E700018C029472380E70061B797F7FE5F938773
:101E8000E70EAA85884329BF2E856F3030050111E2
:101E900022CC26CA4AC806CE4EC6AA842E893284CF
:101EA00001C51C4D91E3312997F7FFFF938707D1B7
:101EB0006319F406C0401C4C1CC48357C400A18B9A
:101EC000C9C31C48BDCF1C4808409379F90F13794A
:101ED000F90F1D8D5C486346F500A2852685E9242F
:101EE0002DE51C440505FD171CC41C401387170075
:101EF00018C0238037015C486389A7008357C4005A
:101F0000858B81CBA9476316F900A2852685692CAC
:101F10000DEDF24062444A85D2444249B24905611E
:101F2000828097F7FFFF938767CB6314F4008044A8
:101F300059B797F7FFFF938767C6E31EF4F6C044CF
:101F40009DBFA285268521203DDD7D59D9B7411150
:101F500097F7FE5F9387870126C2844322C44AC055
:101F600006C62A892E8489C49C4C99E32685912E25
:101F700097F7FFFF938787C4631CF402C0400317E1
:101F8000C40093170701C18393F68700B5EE93F65B
:101F900007019DEEA5472320F900136707042316C8
:101FA000E4007D55B24022449244024941018280BE
:101FB00097F7FFFF938787C26314F4008044C1B78B
:101FC00097F7FFFF938787BDE31BF4FAC04445BF33
:101FD000918B8DC74C5889C9930744046384F500DD
:101FE0004A85A12B232A04028357C400232204001C
:101FF00093F7B7FD2316F4001C481CC08357C40098
:1020000093E787002316F4001C4881EF8357C40030
:102010001307002093F707286385E700A2854A8508
:10202000BD218357C40013F7170005C75C4823245C
:102030000400B307F0401CCC1C480145A5F78317EA
:10204000C40013F7070839DF93E707042316F400E9
:1020500089BF898B014791E3584818C4F1BF83D7E2
:10206000C500011122CC26CA06CE4AC84EC613F7B7
:102070008700AA842E8465E7D8416347E000B84111
:102080006344E0000145C1A058546DDF03A904007A
:102090009396370123A0040063DE06066848835741
:1020A000C400918B99C75C401D8D5C5899C33C401E
:1020B0001D8D5C540C502A86814626858297FD57DB
:1020C0000357C400631DF5009440F54763E4D70847
:1020D000B70740208507B3D7D700858BA5CF1C480D
:1020E000232204001CC09317370163D80700FD5753
:1020F0006314F5009C4091E368C84C5823A0240168
:10210000D1D1930744046384F50026853D21232A19
:1021100004028DBF0C508546014626850297FD5767
:10212000E31FF5F69C40A5DF75476385E700594737
:102130006395E70023A02401B1B78357C40093E758
:1021400007042316F400F2406244D2444249B249E3
:1021500005618280136707042316E400EDB783A9A5
:102160000501E38109F203A905008D8B23A0350148
:1021700033093941014791E3D84918C4E35420F1A8
:102180001C540C50CA864E8626858297634AA0004E
:102190008357C4007D5593E707042316F40065B701
:1021A000AA993309A940D9BF9C49B9CF011122CCC2
:1021B00006CE2A8411C51C4D81E72EC61922B245D0
:1021C00097F7FFFF9387879F639BF5004C408397AA
:1021D000C50095C722856244F240056149B597F76D
:1021E000FFFF9387A79F6394F5000C44CDB797F743
:1021F000FFFF9387A79AE39CF5FC4C44C9BFF240CC
:10220000624401450561828001458280411122C4FA
:1022100006C62A842316B5002317C500232005000F
:102220002322050023240500232205062328050078
:10223000232A0500232C0500214681451305C505E9
:10224000ED24970700009387077B5CD09707000079
:102250009387677D1CD4971700009387A7815CD470
:10226000971700009387678400D01CD8B24022449F
:102270004101828097050000938545F3B9A2411181
:1022800026C2130680069384F5FFB384C4024AC0B5
:102290002E8922C406C693854407B1262A8419C90B
:1022A0002320050023222501310508C41386840656
:1022B0008145A52C2285B240224492440249410125
:1022C00082801C4DBDE3411106C622C49707000061
:1022D000938787FA1CD597F7FE5F938767C99C435E
:1022E0002324050423260504232805046314F5008C
:1022F00085471CCD2A841D2848C02285052808C48E
:1023000022852D2048C448400146914501370844A4
:102310000546A545E53D48440946C945C53D8547AF
:102320001CCCB2402244410182808280411197F747
:10233000FE5F9387E7C326C284434AC006C69C4C0F
:1023400022C42A8999E32685AD3F9384840480447E
:10235000DC40FD1763D607009C40B1CF8440C5BF69
:102360000317C40031E7C177850723220406232021
:10237000040023220400232404005CC42328040056
:10238000232A0400232C0400214681451305C4059B
:10239000692A232A0402232C04022324040423266A
:1023A00004042285B24022449244024941018280C1
:1023B0001304840679BF91454A85D13588C02A84A3
:1023C00051FDB1472320F900E9BF797122D44AD0E9
:1023D00052CC56CA5AC85EC606D626D24ECE2A8AD5
:1023E000AE8A130485040149054BFD5B09ECB2502C
:1023F00022544A8592540259F249624AD24A424BC7
:10240000B24B45618280044483294400FD1963D4A2
:1024100009000040E1BF83D7C400637BFB008397C2
:10242000E40063877701A6855285829A3369A90003
:1024300093848406E1BF1971A6DAAE848395E50022
:10244000A2DC86DE328463DC050083D7C40023A0CF
:10245000060093F707089DE39307004015A0300896
:1024600036C64D25B246E34205FE7247BD67F98F79
:102470007977BA9793B717009CC2F9BF9307000406
:102480001CC0F6506654D65401450961828083D73A
:10249000C500011122CC06CE26CA4AC8898B2E84DB
:1024A00089CF930774041CC01CC885475CC8F240E0
:1024B0006244D24442490561828074003000AA849B
:1024C0009D3FA2452A892685392A01ED8317C4003C
:1024D00013F7072069FFF19B93E727002316F40009
:1024E000C9B797070000938727D99CD48357C400A6
:1024F00008C008C893E707082316F400A2475CC881
:10250000B24789CF8315E40026851D2501C983576D
:10251000C400F19B93E717002316F4008357C4000F
:102520003369F9002316240159B72A8311C6230001
:10253000B3007D16050365FE8280CDC583A7C5FF68
:10254000411122C406C626C21384C5FF63D3070007
:102550003E94AA84B92597F7FE5F9387E7A69C432C
:1025600089EF2322040097F7FE5F23AF87A422445C
:10257000B24026859244410135A5637EF4001440A3
:102580003307D4006396E7009843DC43369718C0BE
:102590005CC0D1BFBA87D84319C3E37DE4FE94433E
:1025A0003386D700631F86001040B29694C33386EB
:1025B000D700E31EC7FA10435843B29694C3D8C35A
:1025C0007DB76375C400B1479CC055B71040B306D2
:1025D000C4006316D70014435843B29614C058C0C1
:1025E000C0C371B78280011126CA93843500F19867
:1025F00006CE22CC4AC84EC6A104B14763F7F40404
:10260000B14463E6B4042A89692B97F7FE5F938788
:10261000A79B98433A8431E497F7FE5F9387079B23
:102620009C4381EB81454A85452697F7FE5F23AFA2
:10263000A798A6854A85492EFD5963193507B147E4
:102640002320F9004A85B92B29A0E3DC04FAB1471D
:102650001CC10145F2406244D2444249B24905617D
:1026600082801C40858F63C00704AD4663F6F60088
:102670001CC03E9404C001A85C406314870217F795
:10268000FE5F2323F7944A85312B1305B40093078B
:10269000440061993307F54055DF3A94898F1CC097
:1026A00055BF5CC3CDB722874040B5B71304350092
:1026B0007198E30185FCB305A4404A853126E31BEC
:1026C00035FBB5BF1C46FD171CC663DA0700184E64
:1026D00063C5E700A9476394F5006FF04FFB1C4208
:1026E0002E851387170018C22380B700828001113E
:1026F00022CC26CA4AC84EC652C406CE2A89AE8902
:102700003284B304D6007D5A63149400014509A8AD
:10271000834504004E864A8575370504E31645FF58
:10272000F2406244D2444249B249224A0561828061
:10273000357122CD26CB4AC94EC706CF52C556C3E6
:102740005AC1DEDEE2DCE6DAAA89AE84328936845A
:1027500001C51C4D91E3B53697E7FFFF9387074608
:10276000639BF40C83A4490083D7C400A18BF5C7F5
:102770009C48E5C793070002A304F10293070003F6
:1027800002D22305F10222C6930B500297EAFFFF03
:10279000938ACA46054C294B4A848347040099C34F
:1027A0006390770FB30C2441638D0C00E6864A8654
:1027B000A6854E852D3FFD576306F51E9256E6967B
:1027C00036D283470400638F071CFD57130914009A
:1027D00002C802CE3ECA02CCA309010482D48345BA
:1027E0000900154656854D2613041900C24759E9BC
:1027F00013F7070109C713070002A309E10413F740
:10280000870009C71307B002A309E1048346090042
:102810001307A0026380E608F2474A8481462546F2
:102820000347040093051400130707FD6379E60AC4
:10283000B5CA3ECE85A897E7FFFF9387273A6395F1
:10284000F40083A489000DB797E7FFFF938707354E
:10285000E39CF4F083A4C90001BFA6854E85EFF088
:102860000FEF09D97D55FA406A44DA444A49BA491A
:102870002A4A9A4A0A4BF65B665CD65C0D618280F6
:10288000050421BF330555413315AC00C98F3EC83F
:102890002289B1B7324793064700184336C66349C9
:1028A00007023ACE034704009307E002631FF704D0
:1028B000034714009307A002631BF702B247090401
:1028C000138747009C433AC663C107023ECA35A836
:1028D0003307E04093E727003ACE3EC8E1B7B3871D
:1028E000670385462E84BA9725BFFD57C5B70504F3
:1028F00002CA814681472546034704009305140018
:10290000130707FD6376E606F1F2834504000D46E2
:1029100017E5FFFF1305052F852C11CD97E7FFFF66
:102920009387472E1D8D93070004B397A700424558
:1029300005045D8D2AC883450400194617E5FFFF8D
:102940001305852C130914002304B102352C3DC155
:1029500097D7FEDF9387076B95E74247B247137718
:10296000071009CF91073EC69257D2973ED22DB598
:10297000B387670385462E84BA97BDBF9D07E19B49
:10298000A107D5B7780097060000938686D62686DD
:102990000C084E8597000000E7000000FD572A8ACA
:1029A000E314F5FC83D7C40093F70704E39C07EA1C
:1029B000125555BD780097060000938686D326866B
:1029C0000C084E85FD24D9BF411122C42A842E85CE
:1029D00023AE018E06C6EF20304EFD576317F5007B
:1029E0009387C18F9C4391C31CC0B24022444101D4
:1029F0008280411122C42E848395E50006C6992B5E
:102A0000634905007C48AA977CC8B2402244410132
:102A100082808357C4007D777D17F98F2316F400D9
:102A2000EDB783D7C500011122CC26CA4AC84EC6CD
:102A300006CE93F70710AA842E843289B68991C7EF
:102A40008395E50089460146092A8357C4007D77AE
:102A50007D17F98F2316F4008315E4006244F240D9
:102A6000CE864A86B24942492685D24405613DA8B0
:102A7000411122C42E848395E50006C6F928FD572E
:102A80000357C400631BF500FD77FD17F98F23166C
:102A9000F400B2402244410182808567D98F231619
:102AA000F40068C8FDB78395E50005A8411122C46C
:102AB0002A842E85B285368623AE018E06C6EF2087
:102AC000704AFD576317F5009387C18F9C4391C3EC
:102AD0001CC0B240224441018280411122C42A8498
:102AE0002E8523AE018E06C6EF209037FD57631763
:102AF000F5009387C18F9C4391C31CC0B240224410
:102B000041018280411122C42A842E85B28523AEE0
:102B1000018E06C6EF201036FD576317F500938728
:102B2000C18F9C4391C31CC0B240224441018280AA
:102B3000411122C42A842E8523AE018E06C6EF20C1
:102B4000B034FD576317F5009387C18F9C4391C341
:102B50001CC0B240224441018280411122C42A8417
:102B60002E85B285368623AE018E06C6EF20503202
:102B7000FD576317F5009387C18F9C4391C31CC019
:102B8000B24022444101828093F5F50F2A966314E6
:102B9000C5000145828083470500E38DB7FE05052A
:102BA000FDB782808280797156CA9C49BA8A98455D
:102BB00022D426D24ECE52CC06D64AD05AC85EC6B1
:102BC000AA892E84B284368A63D3E700BA879CC070
:102BD0000347340419C385079CC01C4093F70702C0
:102BE00081C79C4089079CC00329040013796900B0
:102BF000631A0900130B9401FD5B5C449840998FA4
:102C0000634CF9041C408346340493F70702B3363F
:102C1000D000A5EB13063404D2854E85829AFD5769
:102C20006303F5041C4011469840998B5444814439
:102C30006397C700B384E64063D3040081441C4417
:102C400018486354F700998FBE94014969047D5B6D
:102C500063982405014509A885465A86D2854E8584
:102C6000829A631E75017D55B250225492540259C6
:102C7000F249624AD24A424BB24B45618280050911
:102C8000ADBF3307D40013060003A301C7040347F5
:102C9000540493871600A2978906A381E7049DBF79
:102CA00085462286D2854E85829AE30E65FB05090C
:102CB00045B7797122D426D24AD04ECE06D652CC10
:102CC00056CA5AC8B68983C685019307E006328979
:102CD000AA842E84138635046380F61E63E2D70629
:102CE000930730066382F60A63EDD700638A061EF7
:102CF000930780056386F616930A24042301D404FF
:102D000069A8930740066386F60093079006E3954B
:102D1000F6FE1C40084393F6070893054500C1C220
:102D20001C410CC363D807001307D002B307F0405F
:102D3000A301E40497E6FFFF938686ED294765A08B
:102D4000930730076382F61A63EFD7009307F00604
:102D5000638FF60493070007E390F6FA9C4193E72C
:102D600007029CC109A8930750076382F6049307E2
:102D70008007E393F6F893078007A302F40497E62D
:102D8000FFFF938626EADDA01C43938A25049386E1
:102D900047009C4314C32381F5048547ADA293F6F5
:102DA00007041C410CC3BDDEC207C187A5BF0C4090
:102DB0001C4313F80508138547006305080008C382
:102DC0009C4339A093F5050408C3FDD983D70700B8
:102DD0001307F006638AE60C97E6FFFF938646E347
:102DE0002947A30104044C400CC463C505000840F6
:102DF0006D9908C099E3B28A91CDB28AB3F5E70222
:102E0000FD1AB69583C505002380BA00B3D5E70245
:102E100063F2E70AA147631EF7001C40858B91CB44
:102E200058401C4863C7E70093070003A38FFAFECE
:102E3000FD1A3306564110C84E87CA867000A28517
:102E4000268595337D5A6314450D7D55B250225425
:102E500092540259F249624AD24A424B45618280F9
:102E6000A382D50497E6FFFF938686DA0C400843D9
:102E700013F805081C4111056300080208C313F785
:102E8000150001C793E505020CC04147B9FB0C4092
:102E900093F5F5FD0CC0B1B713F8050408C3E300C2
:102EA00008FEC207C183E1BF97E6FFFF938646D6BF
:102EB000214705BFAE8799B794411C43CC4913F80D
:102EC0000608138547006306080008C39C438CC3AB
:102ED00001A808C393F606049C43F5DA2390B700D3
:102EE00023280400B28A89BF1C43D04181459386C0
:102EF000470014C383AA07005685793101C53305FD
:102F0000554148C05C401CC8A301040435B71448AF
:102F10005686CA8526858299E30945F31C40898B2C
:102F20008DE7B2474844E353F5F23E8505B7854641
:102F30005686CA8526858299E30965F1050A5C44AF
:102F40003247998FE345FAFEE9BF014A930A94019B
:102F50007D5BF5B7411122C42A842E85B285368661
:102F600023AE018E06C6EF20E073FD576317F50010
:102F70009387C18F9C4391C31CC0B240224441013E
:102F80008280B7170080938707F7370700026383B3
:102F9000A70001478E05BA95116793074700AE97C2
:102FA0007D5588C3BA9590C194C3014582807D55F3
:102FB00082806F001073411106C6732540F1EF2027
:102FC000E041B24041016F20E040011106CE2EC623
:102FD000DD3719C9B24505476368B7001C41F240A7
:102FE00003A3470005610283F2407D55056182809D
:102FF0000111B71700804AC806CE22CC26CA4EC699
:10300000938707F701496313F5000949444181E8B3
:103010002A84B7090080639B240185475CC0F24085
:103020006244D2444249B249056182808D4591C0D3
:103030009D4583A78955A2860146DC4F1385895596
:1030400085048297C9BFA9C5011122CC2EC606CE20
:103050002A849537B7170080938707F7B245631422
:10306000F402B707008093878755631EF50093F736
:10307000B5FF8D466399D7001C416244F24003A31B
:10308000870205610283F24062447D5505618280BA
:103090007D558280A9C5011122CC2EC606CE2A8478
:1030A000193FB7170080938707F7B2456314F402FE
:1030B000B707008093878755631EF50093F7B5FF28
:1030C0008D466399D7001C416244F24003A3470236
:1030D00005610283F24062447D55056182807D5521
:1030E000828001112EC632C436C206CE22CC26CA38
:1030F000AA84EF00105F2A847D3DB7170080938774
:1031000007F792462246B2456395F400854763F877
:103110008700F2406244D2447D5505618280B70742
:103120000080938787552A87E315F5FE93F7B5FF4F
:103130000D48E39007FF1C436244F240D24403A3CE
:10314000C7010561028337170080130707F7B70728
:1031500000026303A7008147B1661387C6FFE1162B
:103160003E97B697144388430C43E39DD5FE828077
:10317000B7170080938707F701476314F5003707F7
:10318000000289476386F50463C8B70085476382F8
:10319000F502FD573E8582808D476384F504914793
:1031A000E399F5FE81477DD61C428A07BA979C4376
:1031B000D5B7FD5765D2411122C406C632846137A6
:1031C00008C04CC0B240224481473E854101828004
:1031D000FD5769D21C428A07BA9723A0070081478E
:1031E00055BFFD5745DA1C428A07BA97054798C371
:1031F0000F0080049C43E5B7011106CE22CC2A843F
:10320000EF20801E2AC67000228589459537F2403E
:10321000624405618280011106CE22CC2A84EF200F
:10322000A01C2AC6700022858D459937F240624461
:1032300005618280AA85F32740F1139727009387C1
:103240000182BA978843F32720340DC593F7F73FDF
:10325000138701819387870E631BE5003707008082
:103260008A0713078755BA9703A3070002838A07C3
:103270009C430290828082800000000000000000D9
:10328000397106DE16DC1ADA1ED82AD62ED432D2CE
:1032900036D03ACE3ECC42CA46C872C676C47AC24E
:1032A0007EC0F32740F11397270093870182BA97D6
:1032B000944373262034F3271034F32730347327D4
:1032C00050308DC6938701816385F604814713755D
:1032D000F63F635D0606930600086311D50403A755
:1032E000073983A58739130500080297F250E25287
:1032F0005253C2533255A255125682567247E24774
:103300005248C248324EA24E124F824F2161730082
:103310002030B70700809387875555BFAD4663D5EA
:10332000A6001377F70311EB61473307E502BA975D
:1033300003A7070983A587094DBF8946E318D7FA74
:1033400073277030184383A5C70D45B71307850E43
:103350000A07BA979C43AA853685829741BF000029
:10336000000000000000000000000000000000005D
:103370000000000000000000000001458280F325ED
:1033800000B8732500B0F32700B8E39AF5FE8280F9
:1033900011CD938701816306F50001459355F541F1
:1033A00082803725F40013050540CDBF01458145D6
:1033B00082800111814701483EC406CE42C69387F0
:1033C0000181639CA700B707008003A5476911C569
:1033D0001C4130008545FC478297F2402245B245AA
:1033E0000561828037150080130505F782801D4531
:1033F00082800D458280011106CE2EC69387018101
:103400006391A702B707008083A747637D5599C7DB
:10341000984370008D4578473E850297F2400561DC
:1034200082807D55E5BF011106CE2EC693870181AE
:103430006391A702B707008083A747637D5599C7AB
:1034400098437000894578473E850297F2400561B0
:1034500082807D55E5BF011106CE2EC6938701817E
:103460006391A702B707008083A74763014599C707
:1034700098437000914578473E850297F240056178
:1034800082800145E5BF938701816384A7000145E0
:1034900082803705008013058555828083D705001B
:1034A0000D4711458D8B6383E700094582807325A5
:1034B00010348280739015340145828001458280EA
:1034C00041111305400606C6EF10B07441111305F3
:1034D000800C06C6EF10F07393870181B2862E86AA
:1034E000639CA700B707008003A5476911C51C416D
:1034F000814503A3070502837D558280411106C6DD
:1035000022C4F32740F101446348F00013972700D9
:1035100093870182BA9780432285613D9307A50076
:1035200033B5A7003306B50022852244B240BE85DC
:1035300041015DB75C41A9EF930705091307053900
:1035400023A0070023A2070023A40700E107E399B3
:10355000E7FE373701209307053A9306053D130729
:10356000074C98C39107E39EF6FE73275030B707C8
:10357000012093878717631BF700F3275030B73775
:10358000012093870728F19B7390573085475CC1D2
:103590008280938701816392A702AD477D5563CFF7
:1035A000B70009CEB70700809385850E93878755AE
:1035B0008A05BE9590C1014582807D558280371570
:1035C0000080130505F7828081EDF3275030B7376F
:1035D000012093870728F19B739057300145828023
:1035E00085477D55E39DF5FEF3275030B757012001
:1035F0009387075093E71700C5B7732540F1828082
:1036000039712AD61305C01206DE16DC1ADA1ED866
:103610002ED432D236D03ACE3ECC42CA46C872C63A
:1036200076C47AC27EC0EF10D05E397106DE16DC39
:103630001ADA1ED82AD62ED432D236D03ACE3ECC82
:1036400042CA46C872C676C47AC27EC0F32740F129
:103650001397270093870182BA97984319CF9387CE
:103660000181631FF702B70700809387875503A77F
:10367000870D83A5070E0D450297F250E252525373
:10368000C2533255A255125682567247E2475248EB
:10369000C248324EA24E124F824F21617300203039
:1036A0008327000E0290397106DE16DC1ADA1ED866
:1036B0002AD62ED432D236D03ACE3ECC42CA46C8D2
:1036C00072C676C47AC27EC0F32740F113972700F2
:1036D00093870182BA97984319CF93870181631F1B
:1036E000F702B70700809387875503A7871383A541
:1036F00007141D450297F250E2525253C2533255FD
:10370000A255125682567247E2475248C248324E7C
:10371000A24E124F824F2161730020308327001484
:103720000290397106DE16DC1ADA1ED82AD62ED49B
:1037300032D236D03ACE3ECC42CA46C872C676C4E1
:103740007AC27EC0F32740F1139727009387018246
:10375000BA97984319CF93870181631FF702B70780
:1037600000809387875503A7072183A587214145BB
:103770000297F250E2525253C2533255A25512569A
:1037800082567247E2475248C248324EA24E124F0A
:10379000824F21617300203083278021029039718C
:1037A00006DE16DC1ADA1ED82AD62ED432D236D04D
:1037B0003ACE3ECC42CA46C872C676C47AC27EC0F1
:1037C000F32740F11397270093870182BA97984314
:1037D00019CF93870181631FF702B7070080938792
:1037E000875503A7872283A5072345450297F250F3
:1037F000E2525253C2533255A25512568256724764
:10380000E2475248C248324EA24E124F824F2161C7
:1038100073002030832700230290397106DE16DC06
:103820001ADA1ED82AD62ED432D236D03ACE3ECC90
:1038300042CA46C872C676C47AC27EC0F32740F137
:103840001397270093870182BA97984319CF9387DC
:103850000181631FF702B70700809387875503A78D
:10386000072483A5872449450297F250E252525318
:10387000C2533255A255125682567247E2475248F9
:10388000C248324EA24E124F824F21617300203047
:10389000832780240290397106DE16DC1ADA1ED8DE
:1038A0002AD62ED432D236D03ACE3ECC42CA46C8E0
:1038B00072C676C47AC27EC0F32740F11397270000
:1038C00093870182BA97984319CF93870181631F29
:1038D000F702B70700809387875503A7872583A53D
:1038E00007264D450297F250E2525253C2533255C9
:1038F000A255125682567247E2475248C248324E8B
:10390000A24E124F824F2161730020308327002680
:103910000290397106DE16DC1ADA1ED82AD62ED4A9
:1039200032D236D03ACE3ECC42CA46C872C676C4EF
:103930007AC27EC0F32740F1139727009387018254
:10394000BA97984319CF93870181631FF702B7078E
:1039500000809387875503A7072783A587275145AD
:103960000297F250E2525253C2533255A2551256A8
:1039700082567247E2475248C248324EA24E124F18
:10398000824F216173002030832780270290397194
:1039900006DE16DC1ADA1ED82AD62ED432D236D05B
:1039A0003ACE3ECC42CA46C872C676C47AC27EC0FF
:1039B000F32740F11397270093870182BA97984322
:1039C00019CF93870181631FF702B70700809387A0
:1039D000875503A7872883A5072955450297F250E5
:1039E000E2525253C2533255A25512568256724772
:1039F000E2475248C248324EA24E124F824F2161D6
:103A000073002030832700290290397106DE16DC0E
:103A10001ADA1ED82AD62ED432D236D03ACE3ECC9E
:103A200042CA46C872C676C47AC27EC0F32740F145
:103A30001397270093870182BA97984319CF9387EA
:103A40000181631FF702B70700809387875503A79B
:103A5000072A83A5872A59450297F250E25252530A
:103A6000C2533255A255125682567247E247524807
:103A7000C248324EA24E124F824F21617300203055
:103A80008327802A0290397106DE16DC1ADA1ED8E6
:103A90002AD62ED432D236D03ACE3ECC42CA46C8EE
:103AA00072C676C47AC27EC0F32740F1139727000E
:103AB00093870182BA97984319CF93870181631F37
:103AC000F702B70700809387875503A7872B83A545
:103AD000072C5D450297F250E2525253C2533255C1
:103AE000A255125682567247E2475248C248324E99
:103AF000A24E124F824F2161730020308327002C89
:103B00000290397106DE16DC1ADA1ED82AD62ED4B7
:103B100032D236D03ACE3ECC42CA46C872C676C4FD
:103B20007AC27EC0F32740F1139727009387018262
:103B3000BA97984319CF93870181631FF702B7079C
:103B400000809387875503A7072D83A5872D61459F
:103B50000297F250E2525253C2533255A2551256B6
:103B600082567247E2475248C248324EA24E124F26
:103B7000824F2161730020308327802D029039719C
:103B800006DE16DC1ADA1ED82AD62ED432D236D069
:103B90003ACE3ECC42CA46C872C676C47AC27EC00D
:103BA000F32740F11397270093870182BA97984330
:103BB00019CF93870181631FF702B70700809387AE
:103BC000875503A7872E83A5072F65450297F250D7
:103BD000E2525253C2533255A25512568256724780
:103BE000E2475248C248324EA24E124F824F2161E4
:103BF000730020308327002F0290397106DE16DC17
:103C00001ADA1ED82AD62ED432D236D03ACE3ECCAC
:103C100042CA46C872C676C47AC27EC0F32740F153
:103C20001397270093870182BA97984319CF9387F8
:103C30000181631FF702B70700809387875503A7A9
:103C4000073083A5873069450297F250E2525253FC
:103C5000C2533255A255125682567247E247524815
:103C6000C248324EA24E124F824F21617300203063
:103C7000832780300290397106DE16DC1ADA1ED8EE
:103C80002AD62ED432D236D03ACE3ECC42CA46C8FC
:103C900072C676C47AC27EC0F32740F1139727001C
:103CA00093870182BA97984319CF93870181631F45
:103CB000F702B70700809387875503A7873183A54D
:103CC00007326D450297F250E2525253C2533255B9
:103CD000A255125682567247E2475248C248324EA7
:103CE000A24E124F824F2161730020308327003291
:103CF0000290397106DE16DC1ADA1ED82AD62ED4C6
:103D000032D236D03ACE3ECC42CA46C872C676C40B
:103D10007AC27EC0F32740F1139727009387018270
:103D2000BA97984319CF93870181631FF702B707AA
:103D300000809387875503A7073383A58733714591
:103D40000297F250E2525253C2533255A2551256C4
:103D500082567247E2475248C248324EA24E124F34
:103D6000824F2161730020308327803302903971A4
:103D700006DE16DC1ADA1ED82AD62ED432D236D077
:103D80003ACE3ECC42CA46C872C676C47AC27EC01B
:103D9000F32740F11397270093870182BA9798433E
:103DA00019CF93870181631FF702B70700809387BC
:103DB000875503A7873483A5073575450297F250C9
:103DC000E2525253C2533255A2551256825672478E
:103DD000E2475248C248324EA24E124F824F2161F2
:103DE00073002030832700350290397106DE16DC1F
:103DF0001ADA1ED82AD62ED432D236D03ACE3ECCBB
:103E000042CA46C872C676C47AC27EC0F32740F161
:103E10001397270093870182BA97984319CF938706
:103E20000181631FF702B70700809387875503A7B7
:103E3000073683A5873679450297F250E2525253EE
:103E4000C2533255A255125682567247E247524823
:103E5000C248324EA24E124F824F21617300203071
:103E6000832780360290397106DE16DC1ADA1ED8F6
:103E70002AD62ED432D236D03ACE3ECC42CA46C80A
:103E800072C676C47AC27EC0F32740F1139727002A
:103E900093870182BA97984319CF93870181631F53
:103EA000F702B70700809387875503A7873783A555
:103EB00007387D450297F250E2525253C2533255B1
:103EC000A255125682567247E2475248C248324EB5
:103ED000A24E124F824F2161730020308327003899
:103EE0000290F327503093F7F703FD170947014578
:103EF0006367F70013874182BA9703C50700828082
:103F0000CDB7AD476308F50263CBA7000D478547E2
:103F10006305E5006515933715003E8582804147AE
:103F20008147E34CE5FE7D478547E358A7FE13052F
:103F300005F8D5B78547D5B7011122CC2A842E853F
:103F400026CA4AC84EC606CEAE84B2893689553FC7
:103F5000D55701C993070008639AF4085937CD571C
:103F60002DCDF2406244D2444249B2493E850561BA
:103F7000828023283439232C243909A8E145B384CD
:103F8000B402269423283409232C24098147D1BF65
:103F9000138704FFBD46D157E3E5E6FCE145B38452
:103FA000B402B73701209387C74C26942328F4081E
:103FB000232A2409E1BFB737012093874723232C05
:103FC000F40C232E240DD9B7B73701209387C74FA0
:103FD000232CF412232E241355BFE39C09F8B73782
:103FE0000120938767272328F43871B7E39809F8ED
:103FF000AD47E385F4FAE3CD97F88D47E38DF4FA06
:104000009D47E383F4FCD157A9BF11C99D47638A3B
:10401000F50463E8B7009DC58D47638FF5027D56B3
:1040200015A8AD476382F504E3EBF5FE938705FF22
:104030003D47E366F7FE8547B395B7000DCEF3A580
:10404000453029A0A14709C6F3A70730014619A0AA
:10405000F3B7073032858280A14719CAF3A74730EA
:10406000F5B793070008D5BF856793870780F5B735
:10407000F3B74730C5B7F3B54530E9BF054671B76B
:10408000014661B7B717008093870795639DA70026
:1040900099477D5563EAC700B707000C8A05BE95AE
:1040A00090C1014582807D558280B717008093873B
:1040B00007956387A70081478A05BE95884182805E
:1040C000B707000CD5BF41111305C01206C6EF108B
:1040D00040340111B717008022CC06CE26CA4AC848
:1040E0004EC652C4938707952A8401476314F5008E
:1040F000130750037D5563D5E502B689328AAE8435
:104100001399250015C622850946AD3FE145B384C4
:10411000B40222992324490126942328340F01450F
:10412000F2406244D2444249B249224A0561828047
:1041300022850546813FE145B384B402B74701209B
:1041400022999387670C2324F90026942326340FA1
:10415000F9B7B71700809387079501476394A700C5
:104160003707000CB70720009107B205BE95BA9536
:1041700088418280B7170080938707953707000C26
:104180006383A7000147B7072000B2059107BE95DA
:10419000BA9590C18280011106CE22CC26CA2E8407
:1041A000EFF0AFC53335A000B304A040A68522854B
:1041B0004D37B7170080938707952A866314F4025A
:1041C0009307400363E0A70293172500A29798473F
:1041D00011CBE147B307F5022AC6A29783A5070FC3
:1041E0000297324622856244F240A685D244056198
:1041F00051B7B7170080938707953707000C638383
:10420000A7000147B7072000B205BE95BA9590C137
:1042100001458280011122CC06CE2A842EC6EFF001
:10422000CFBDAA85228562443246F2400561D1B7EE
:10423000011122CC26CA4AC84EC652C406CEAA894B
:10424000328A2E8981440144631B0900F240624492
:1042500026854249D244B249224A0561828009C872
:104260005286A2854E857137058933158500C98C24
:10427000050413591900C9BFB71700809387079524
:10428000638AA700814737072000B205BA95BE951B
:1042900088418280B707000CFDB7411122C406C6D1
:1042A0002A84EFF08FB5AA8522852244B2404101CD
:1042B000E1B7411106C6C937B240014541018280CC
:1042C00037170080130707953708000C6303A70012
:1042D0000148135756400A0793977500BA97096724
:1042E000BA97C2978C4305473316C70089C64D8ECF
:1042F00090C3014582801346F6FF6D8ED5BF011134
:1043000026CA444106CE22CC4AC84EC652C456C222
:104310005AC099C8F2406244D2444249B249224A42
:10432000924A024B05618280B717008093870795F8
:10433000930A50036303F500814A370900808327FD
:1043400089552A84130589559C439309C40E130A81
:1043500089558297130B0040814626868145228528
:10436000853763DF54010146A6852285213B93975B
:104370002400A29723A4070023A0090023A2090078
:104380008504E109E39A64FD01468145228595355E
:1043900083270A00A2860146DC4FAD4513058955E7
:1043A000829783270A0037460120A286DC4F130636
:1043B0006619AD4513058955829783270A00AD45D7
:1043C00013058955DC53829785475CC0A1B7B717A1
:1043D00000809387079501476314F5001307500386
:1043E000FD5763D4E502011106CE22CC2EC62A84E5
:1043F000EFF0AFA03246AA8585462285D135F2403E
:10440000624481473E85056182803E858280B71780
:1044100000809387079501476314F5001307500345
:10442000FD5763D4E502011106CE22CC2EC62A84A4
:10443000EFF0AF9C3246AA85814622855135F24085
:10444000624481473E85056182803E8582800111FC
:10445000B717008006CE22CC26CA4AC84EC652C420
:104460009387079501476314F50013075003FD5424
:104470006358E600328AAA892E848144014911E8F2
:10448000F240624426854249D244B249224A05613B
:104490008280630B090085465286CA854E850D359C
:1044A000058933152501C98C05090580C9BF01118E
:1044B000B717008006CE22CC26CA4AC84EC652C4C0
:1044C0009387079501476314F50013075003FD54C4
:1044D0006358E600328AAA892E848144014911E892
:1044E000F240624426854249D244B249224A0561DB
:1044F0008280630B090081465286CA854E85C93386
:10450000058933152501C98C05090580C9BF83A715
:104510008183411122C406C681451385C1818297DA
:104520002A84931714007D5563DF0700635D040040
:1045300037050080130585511374F403EF005065AF
:10454000050433558502B240224441018280C1B73F
:1045500083A78183411106C691451385C181829746
:104560009317150063DC0700635A0500B240370556
:1045700000801305055041016F009061B2407D55E8
:1045800041018280F1B71385C181828021458280FB
:10459000411122C42A84484106C6EF00305CB78727
:1045A000001098479316F70063D706009847C17626
:1045B000FD16758F98C7378700101C47B706020095
:1045C000B725F400D58F1CC71C4022859385054074
:1045D000DC43829708442244B24041016F001058E6
:1045E000011106CE22CC26CA2A844D372AC622853E
:1045F000593F83A48183B24582942A84B1451385AF
:10460000C18182949317F40063CC07006244F240A6
:10461000D244370500801305455205616F0050579D
:104620009317E400AA8463C50706370500801305C5
:104630004552EF00F0559317D40063C60704935713
:1046400044008566938606C093F7F70313777400DA
:104650008507758C9306F03F0507860763FF860282
:104660003345E50229803305F502854733948700F9
:1046700093F704103345850299E793F4F403850416
:10468000860433559502F2406244D244056182802B
:10469000370500801305C55069BF7D55EDB77971A9
:1046A00022D426D24AD006D64ECE52CCAA842E8907
:1046B00037840010E13D2A941C401397F70063579C
:1046C00007001C4041777D17F98F1CC01C401397D1
:1046D000E700634D07023705008013054552EF00E0
:1046E000304B0D473307E50291463347D702634409
:1046F000E9029547B307F502B3C7D70263CD270197
:104700001C4037070400D98F1CC021AA3705008040
:104710001305C550E9B73717012037080080130784
:104720000761FD561348F8FF13063004FD551C477A
:10473000636AF5025C4763E7A7021C4383284700CE
:10474000B307F502B3D71703638EB700B3872741CA
:1047500093D8F741B3C7F800B387174163D4070173
:104760003E88B2867D160117E313B6FC1C40E38A2F
:10477000C6F8E19B1CC0B71701209606938707DB9C
:10478000B697984B10401D8B518F18C01840137767
:10479000F7C018C0D84B144012071377073F558F46
:1047A00018C01840FD769386F63F758F18C0984F55
:1047B000104085662A07938606C0758F518F18C0F2
:1047C000D84FB7870010635C0706D84713670710F8
:1047D000D8C7D847137707FCD8C7D847136717003F
:1047E000D8C71C403707FCFF7D17F98FB719008029
:1047F0001CC030008545138509F7EFE07F972249FB
:10480000B247130A490033392A013E99B247636718
:10481000F90063932705A2476370FA041C40E3DFA5
:1048200007FE1C4041672685D98F1CC0553BB250FE
:10483000225492540259F249624A45618280D44717
:104840001377F70393F6F6EFD4C7D44793F606FC35
:10485000D4C7D447558F69B730008545138509F70C
:10486000EFE01F9165B7B7870010BE958841828041
:10487000B7870010BE9590C13285828013878181F1
:10488000B72701106303A7008147D8430145D98D9D
:10489000CCC3828013878181B72701106303A700EF
:1048A0008147D84393C5F5FF0145F98DCCC382807C
:1048B000938781816385A700814788438280B727DA
:1048C0000110E5BF938781816385A7008147C847B1
:1048D0008280B7270110E5BF13878181B7270110B8
:1048E0006303A7008147984793C5F5FF0145F98DFC
:1048F0008CC7828013878181B72701106303A700CB
:10490000814798470145D98D8CC782801387818163
:10491000B72701106303A7008147D8470145D98D08
:10492000CCC7828013878181B72701106303A7005A
:104930008147D84793C5F5FF0145F98DCCC78280E3
:1049400013878181B72701106303A7008147D847E8
:104950000145B98DCCC7828013878181B7270110AB
:104960006303A7008147D85F0145D98DCCDF985FED
:10497000598E90DF828013878181B72701106303EE
:10498000A7008147985F93C5F5FF0145F98D8CDF3E
:10499000828013878181B72701106303A7008147B5
:1049A0001D47636CC70237170120130707630A0608
:1049B0003A9618420287984F93C5F5FF6D8F98CFAE
:1049C00098536D8F98D398576D8F98D7985BF98DC2
:1049D0008CDB21A0984FD98D8CCF01458280984FD8
:1049E0004D8F98CF9853D98D8CD3C5BF9857D98DFB
:1049F0008CD7E5B7984F4D8F98CF98534D8F98D35C
:104A000098574D8F98D7985BD98DD9B713878181E7
:104A1000B72701106303A70081477D161947636D0F
:104A2000C70037170120130707650A063A96184290
:104A30000287D84FD98DCCCF01458280D84F4D8F7A
:104A4000D8CFD853D98DCCD3C5BFD857D98DCCD7D3
:104A5000E5B7D84F4D8FD8CFD8534D8FD8D3D8572F
:104A60004D8FD8D7D85BD98DCCDBF9B793878181AF
:104A70006384A700014582803715008013050595E2
:104A80008280938781816398A710214563860510F2
:104A9000854725456382F51089472945638EF50EC4
:104AA0008D472D45638AF50E914731456386F50E96
:104AB000954735456382F50E99473945638EF50C68
:104AC0009D473D45638AF50CA14741456386F50C3A
:104AD000A54745456382F50CA9474945638EF50A0C
:104AE000AD474D45638AF50AB14751456386F50ADE
:104AF000B54755456382F50AB9475945638EF508B0
:104B0000BD475D45638AF508C14761456386F50881
:104B1000C54765456382F508C9476945638EF50653
:104B2000CD476D45638AF506D14771456386F50625
:104B3000D54775456382F506D9477945638EF504F7
:104B4000DD477D45638AF504E1471305000263856F
:104B5000F504E547130510026380F504E9471305E2
:104B60002002638BF502ED47130530026386F502E0
:104B7000F147130540026381F502F5476D45638DEA
:104B8000F500F94771456389F500FD4701456395D7
:104B9000F5007545828001458280B71700809387B4
:104BA0008792376701106383A70001478347070196
:104BB000898BEDFF82800C456F0070040845828070
:104BC000011122CC26CA4EC652C456C206CE4AC8CD
:104BD000AA892E8AB284EF00B00B930A150033B570
:104BE000AA003304B50083C7090113890901898B21
:104BF00095EF060AB3E4440193F4F40F2386990079
:104C0000930700F92300F900EF00900893041500C2
:104C100033B5A4003304B50083470900898B8DEBBD
:104C2000034509001D813305A04011A8EF0050067F
:104C30006346B400E39985FAE3F7AAFA7D55F2409A
:104C40006244D2444249B249224A924A0561828072
:104C5000EF001004E344B4FEE39085FCE3FEA4FA05
:104C6000F1BF5D7137180080A2C486C6A6C2CAC053
:104C70004EDE52DC56DA5AD85ED662D466D26AD09C
:104C80006ECE130888920144631405013764011045
:104C900015E17D59B64026444A8596440649F259A5
:104CA000625AD25A425BB25B225C925C025DF24D68
:104CB00061618280484171DDBE893A8B368AB28B50
:104CC000AE8AB9CE01462285E53D2A8961F5814D3E
:104CD000414C130DFAFFB387BB0183C707002306BE
:104CE000F4006316BD0163940900130C000523084A
:104CF0008401EF00E079130715003335A700930C0A
:104D00000401B304B50083C70C00898BADE783C7EA
:104D10000C00E207E18763CB0706850DE31DBAFBB4
:104D2000E38A09F60546D6852285593D2A893DF153
:104D3000014A930A0002938BF9FF63944B01930A93
:104D4000800623085401EF00A074930C150033B5BE
:104D5000AC00130C0401B304B50083470C00898B2D
:104D600085EB0347C400B3074B01050A2380E70026
:104D7000E39549FD05B73AC6EF008071E3CBB4F087
:104D80003247E39295F8E370A7F821B77D5949BF00
:104D90000127E3C0B4F0E39295FCE3F0ACFCD5BD91
:104DA0007971B717008052CC06D622D426D24AD0C9
:104DB0004ECE56CA5AC85EC662C466C26AC09387DF
:104DC0008792014A6314F500376A01100DE1FD5B1B
:104DD000B25022545E8592540259F249624AD24A34
:104DE000424BB24B224C924C024D456182805C4159
:104DF000F9DFB28A528505463A84368BD133AA8BC5
:104E000061F91A0413740404014993090002138C14
:104E1000FAFFE30F59FB63162C01B369340193E9E0
:104E2000890023083A01AD25130D15003335AD0077
:104E3000930C0A01B304B50083C70C00898B89EB7E
:104E40000347CA00B3072B0105092380E700D1B748
:104E50008125E3CEB4F6E39195FEE37FADFC85BFFB
:104E60007971B71700804ECE06D622D426D24AD00A
:104E700052CC56CA5AC85EC662C466C26AC093871C
:104E8000879281496314F500B76901100DE1FD5A5D
:104E9000B2502254568592540259F249624AD24A7B
:104EA000424BB24B224C924C024D456182805C4198
:104EB000F9DF328A4E8501463A84B68BEFF05FD037
:104EC000AA8A79F51A04137404040149414B130C9E
:104ED000FAFFE30F49FBB3872B0183C70700238643
:104EE000F90063142C01336B6401238869014D239D
:104EF000130D15003335AD00938C0901B304B500D3
:104F000083C70C00898B89EB83C70C00E207E1871C
:104F1000E3CF07F6050975BFA52BE3CAB4F6E39105
:104F200095FEE37FADFCA5B7B71700809387879206
:104F30006310F504411122C42A8483A7818126C20B
:104F40004AC0DC5306C6B2842E890D66814513859E
:104F50008181829785476397F400CA852285452120
:104F600011E144C0B240224492440249410182808E
:104F70008280B717008093878792630CF5007D5578
:104F800082807D55F2406244D2444249B249056173
:104F90008280011122CC2A84370500804AC8130977
:104FA00005538327090006CE26CA9C434EC6130527
:104FB0000553AE898297AA84B7570120032549007B
:104FC0009387A7B95CC49305C40000C87526232243
:104FD000A900B757012003258900938767BB1CCC24
:104FE00040CC93058401492E2324A900154533851F
:104FF000A902C16733D5A4027D15E374F5F8B7673C
:10500000011003C787001377F7072384E70013779E
:10501000F50F21852380E7001375F50F2382A70084
:1050200003C787000145136707082384E70023248B
:10503000340189BFB7170080938787F2630DF500AD
:1050400037170080130787F4B73702106303E500B2
:1050500081473E858280B7370110E5BFB7170080D2
:10506000938787F2630AF500B7170080938787F468
:105070006304F5000145828037150080130505950E
:105080008280B7170080938787F2630CF50037178B
:105090000080130787F491476303E50081473E854D
:1050A00082808D47EDBF411106C669371C49B24069
:1050B00093E717001CC9014541018280411106C6D2
:1050C000953F1C49B240F99B1CC9014541018280B2
:1050D000411106C685371C49B24093E727001CC919
:1050E000014541018280411106C6A9371C49B240E1
:1050F000F59B1CC9014541018280411106C61D3F37
:105100000841B2407D8141018280011106CE2EC648
:105110001537B2451C4537070700C205F240F98D27
:10512000DD8D0CC5014505618280411106C6193728
:105130000845B24041811D8941018280011106CE9E
:105140002EC6CD3DB2455C4537070700C205F2408B
:10515000F98DDD8D4CC5014505618280411106C682
:10516000D13D4845B24041811D89410182804111B4
:1051700022C426C24AC006C62A89AE84653D2A8456
:105180004A85A53F75FD04C0B240224492440249BD
:105190004101828001112EC606CE693D5841B245BB
:1051A0009377F70F63530700FD57F2409CC1014509
:1051B0000561828048418280011126CA06CE22CC38
:1051C000AA848D3DB7170080938787F2638DF4041E
:1051D000B7170080938787F46387F40481471845E5
:1051E000B706F9FFFD16758F18C51845C166558FAE
:1051F00018C55849058B75DF984300453E8518430F
:10520000098813341400029725043305A402C04012
:1052100002C633558502B24763CCA700F240624410
:10522000D24405618280B70700809387075345BF4A
:105230000100B24785073EC6F9BF4C4151A4B717DC
:105240000080938787F2630BF500B7170080938780
:1052500087F46305F5004CC101458280411106C603
:1052600022C426C24AC02E84AA84EFF0BFDC2A8959
:105270003705008083270553C0C0130505539C43A1
:10528000829733458502B240224492447D15232CF7
:10529000A90083278900014593E717002324F9001B
:1052A0008327C90093E717002326F900024941012B
:1052B000828001114AC83719008022CC4EC606CE22
:1052C00026CA130989F22A84AE8963092501B71712
:1052D0000080938787F48144631EF502B704008041
:1052E00093840453C840B75701209387871B1CC47D
:1052F0009305840040C44920C8C0B75701208844A2
:105300009387A7235CC800CC93054401B52088C4CB
:1053100093848181CE852285652295C83706030056
:10532000630B2401B7170080938787F43706840046
:105330006303F40001469C406244F2404249B24992
:1053400003A347022685D244814505610283F240CA
:105350006244D2444249B24905618280411122C46B
:1053600006C62A8409E4B2402244410182801C40DE
:10537000484082970044FDB723A40500AA8701E5B1
:105380002E858280BA87984775FF8CC7AA85CDBFC6
:105390001C4103A307000283011122CC2A84484147
:1053A00006CE26CA2EC65D3F1C40B2452285DC4390
:1053B0008297AA8408445D37F24062442685D2442D
:1053C000056182801C4103A3070002831C4103A3E3
:1053D000470002831C4103A3C702028301E503A522
:1053E0000184828001458280732540F182801C41C6
:1053F00003A3070002831C4103A3470002831C414F
:1054000003A34701028301E503A54184828001458E
:1054100082800100FDBF797126D28A85AA84014568
:1054200006D622D44AD04ECE52CC56CAF52201CD51
:105430007D542285B250225492540259F249624A54
:10544000D24A456182802C00D52A2A8475F12249EE
:10545000B249024A924A4A86CE865285D6859D2B0B
:1054600088C0CCC04A86CE865285D685EF00700CA7
:10547000B7470F00938707243337F5024A86CE8655
:10548000B385F5023305F502BA95A92388C455B74B
:10549000011181450A8506CEBD3F635605007D5743
:1054A000FD573AC03EC2F2400245924505618280F6
:1054B0001C4103A3070002831C4103A3470002838E
:1054C0001C4103A34701028300000000000000000C
:1054D00000000000000000000000000000000000CC
:1054E00000000000000000000000000000000000BC
:1054F00000000000000000000000000000000000AC
:105500006FE00F906FE0CF8F6FE08F8F6FE0EF91C4
:105510006FE00F8F6FE0CF8E6FE08F8E6FE0AF98F0
:105520006FE00F8E6FE0CF8D6FE08F8D6FE04F8D4E
:105530006FE00F8D6FE0CF8C6FE08F8C6FE04F8C42
:105540006FE02F9E6FE0AFA56FE02FAD6FE0AFB4BF
:105550006FE02FBC6FE0AFC36FE02FCB6FE0AFD237
:105560006FE02FDA6FE0AFE16FE02FE96FE0AFF0AF
:105570006FE02FF86FE0AFFF6FE03F876FE0BF8E07
:10558000B7070080938707506308F502B7070080CC
:10559000938787516307F502370700801307C753C6
:1055A000A1676309E5003707008013078754630389
:1055B000E50081473E858280B727F4009387074046
:1055C000D5BFB7A74A0493870720EDB7B707008078
:1055D000938707506308F502B707008093878751C8
:1055E0006307F502370700801307C753A1676309F4
:1055F000E50037070080130787546303E500814700
:105600003E858280B727F40093870740D5BFB7A7B0
:105610004A0493870720EDB7411122C406C62E84A1
:10562000EFF0DFDB11C9EFF0FFD908C04CC0014536
:10563000B2402244410182807D55DDBF411122C428
:1056400006C62E84EFF09FD911C9EFF03FD808C0ED
:105650004CC00145B2402244410182807D55DDBFEE
:10566000411106C69922B240930780051CC17D55A1
:1056700041018280411106C60D2AB240930780FA8B
:105680001CC17D55410182807D1513351500828036
:10569000411106C6192AB240930780051CC17D55E9
:1056A00041018280411106C60922B240930780055C
:1056B0001CC17D5541018280938781D01387815021
:1056C000638CE70093870185944336956375E50005
:1056D00088C33685828098C3FD56E5BF797106D6AA
:1056E00022D426D24AD052CE56CC5ACA5EC82A8973
:1056F000EFF09FCF2C002A8491378A852285293F9D
:10570000224AB24A024B924B5286D6862322090085
:1057100023240900232609005A85DE8537440F001B
:10572000092D13040424B33785025286D686B38527
:10573000850233058502BE95712CAA845286D686D1
:105740005A85DE85412C33058502B2502254724AB7
:10575000E24A524BC24B26952320A900925402598B
:1057600045618280411106C622C426C2854763195D
:10577000F5002E84B384C500631E9400014531A05A
:105780002D20930780051CC17D55B24022449244D0
:1057900041018280034504000504EF00D018E9BFF1
:1057A000AA85814601460145F1A897B7FE5F938718
:1057B000E77B88438280411122C406C69707000018
:1057C000938707152A8499C38145892297B7FE5F7D
:1057D0009387077A88431C5591C382972285EF00EF
:1057E0005016411197B7FFFF9387C7AF22C417B474
:1057F000FFFF130424AF1D8C26C206C60984BE8495
:1058000011E4B24022449244410182807D149317F6
:105810002400A6979C438297E5B7411197B7FFFFF5
:10582000938747AB22C417B4FFFF1304A4AA1D8CAF
:1058300026C24AC006C6098481443E896396840212
:1058400097B7FFFF938707A917B4FFFF130484A836
:105850001D8C098481443E89639F8400B2402244A8
:10586000924402494101828093972400CA979C4345
:1058700085048297E1B793972400CA979C438504D7
:105880008297D9BF97B7FE5F938787749C432A8E10
:105890009DE317B7FE5F1307677497B7FE5F23A9F1
:1058A000E77217A5FEDF1305E575BA8709C51C4128
:1058B00023ACF18EBA87D8437D487D556347E80411
:1058C000630E0E0203A887086301080493182700DB
:1058D000C29823A0C8000323081005463316E6002B
:1058E0003363C3002320681023A0D80889466317B8
:1058F000DE0083264810558E2322C8109306170019
:105900000A07D4C3BA978CC701458280797152CCFB
:1059100056CA5AC85EC606D622D426D24AD04ECE21
:1059200062C42A8B2E8A97BAFE5F938A6A6A854B75
:1059300003A40A0011C84440832984081389F4FF92
:105940008A04A294635E0900B25022549254025910
:10595000F249624AD24A424BB24B224C45618280A4
:10596000630E0A00639509007D19F114E1BF9317D6
:105970002900CE9783A70708E39847FF5840DC40EB
:105980007D176318270323222401F9DF032C440029
:105990006388090083A6091033972B01F98E89EEDD
:1059A0008297584083A70A00E31487F9E30EF4FABC
:1059B00041B723A20400D1BF93162900CE968C4292
:1059C00083A64910758F01E75A858297D9BF2E8526
:1059D0008297C1BFAE87328836872A8363960620B6
:1059E00097C8FFFF938848D363FEC50A4167637475
:1059F000E60A1307F00F3337C7000E07B356E60069
:105A0000B69883C60800369793060002998E99CA05
:105A1000B397D7003357E5003318D600B365F700C6
:105A20003313D5001355080133F7A50213160801E7
:105A3000418293560301B3D5A5024207D98EB3071D
:105A4000B6022E8763FCF600C2961387F5FF63E764
:105A5000060163F5F6001387E5FFC2969D8EB3F746
:105A6000A602420313530301B3D6A602C20733E3CF
:105A70006700B305D6023685637BB3004293138576
:105A8000F6FF636603016374B3001385E6FF420704
:105A9000498F81454DA8B70600014147E360D6F61E
:105AA0006147A9BF01E6854633D8C602C166637E59
:105AB000D8089306F00F63F306012147B356E800B8
:105AC000B69883C60800BA9613070002158F49E7F7
:105AD000B38707418545135608019318080193D8E9
:105AE00008019356030133F7C702B3D7C702420731
:105AF000D98E3385F8023E8763FCA600C2961387D1
:105B0000F7FF63E7060163F5A6001387E7FFC29678
:105B1000898EB3F7C602420313530301B3D6C602FC
:105B2000C20733E36700B388D8023685637B13016D
:105B300042931385F6FF63660301637413011385B3
