:020000042001D9
:100000009711FF5F938181911741FF5F130181FF7A
:10001000172501001305C5D89705FF5F938585FE59
:100020001386818063FAC5008322050023A0550052
:1000300011059105E3EAC5FE138581809715FF5FE1
:100040009385C5166377B500232005001105E36D80
:10005000B5FE97000000411106C401458145EF102F
:04006000600E01A08D
:10006400411106C622C40008B7C70002E11703A85D
:1000740047009C4337450002930570140146B3863C
:10008400B700B688B3B8F8003307C800B387E800F0
:100094003E87B6873A881CC123220501EF00907081
:1000A4000100B240224441018280011106CE22CCDB
:1000B40000102326A4FE2324B4FE2322C4FE032618
:1000C40044FE832584FE0325C4FEEF40F06FAA8717
:1000D4003E85F240624405618280411106C622C415
:1000E4000008EF0030460547FD46054681450145B9
:1000F400EF0030310100B2402244410182800111FD
:1001040022CE0010B7C70002E11703A847009C43A2
:1001140037450002930570140146B386B700B688CC
:10012400B3B8F8003307C800B387E8003E87B68742
:100134003A881CC12322050193070008F3A747301E
:100144002326F4FE0100724405618280411106C633
:1001540022C400085937792C5D379735FF5F9385A2
:10016400256A1715FF5F13052504EF604060EF0053
:10017400F07417F50000130525FAEF50B07F010065
:10018400B240224441018280011106CE22CC0010EB
:100194002326A4FE2324B4FE8545032584FEEFE034
:1001A400E0710100F240624405618280011106CED3
:1001B40022CC00102326A4FE2324B4FE8327C4FEED
:1001C40089EF1306600297F50000938525F917F56A
:1001D40000001305E5F4EF60C030832784FE89EF47
:1001E4001306700297F50000938545F717F5000094
:1001F400130545F4EF60E02EB72701109387C7037A
:100204009443B72701109387C7033707FDFF7D1772
:10021400758F98C3B7270110938787039443B72733
:1002240001109387870337070300558F98C3EF00A6
:10023400503F2A87832784FE9C433357F702B737FE
:100244000110E1077D1798C3B7370110A107984340
:10025400B7370110A1071367170098C3B737011008
:10026400B1079843B7370110B1071367170098C354
:10027400B7370110C107094798C381473E85F2404B
:10028400624405618280011106CE22CC001023262F
:10029400A4FE2324B4FE2322C4FE8327C4FE89EFD4
:1002A4001306700397F50000938545EC17F50000DD
:1002B400130505E7EF60E022010081473E85F24027
:1002C400624405618280011122CE00102326A4FE1F
:1002D400AE87A305F4FE0100B73701109C43E3CDBC
:1002E40007FEB73701100347B4FE98C381473E8524
:1002F400724405618280797122D60018232EA4FCF1
:10030400B737011091079C432326F4FE8327C4FECC
:100314006357F0008327C4FE93F7F70F11A0FD572E
:100324003E85325445618280411106C622C40008CC
:1003340081461306301497F500009385A5E0170550
:10034400FF5F130525CDEFE0A04997F600009386E3
:10035400E6DF1706FF5F1306E6CB970500009385DB
:10036400E5E20D45B92A0D45052881473E85B24091
:10037400224441018280011106CE22CC00102326A2
:10038400A4FE8327C4FEBE851385819CBD2D010078
:10039400F240624405618280011106CE22CC001035
:1003A4002326A4FE8327C4FEBE851385819CC52312
:1003B4008327C4FE0546BE851385819CC92D010093
:1003C400F240624405618280011106CE22CC001005
:1003D4002326A4FE2324B4FE8325C4FE17F50000BF
:1003E4001305C5D9EF50B06881473E85F240624499
:1003F40005618280011106CE22CC001097A2000074
:10040400938282A1739052309D4613064003B70530
:10041400000C1385819C6121232604FE81A0032501
:10042400C4FE913F1707FF5F130787D18327C4FEDC
:100434008E07BA9717070000130747F998C31707E1
:10044400FF5F1307E7CF8327C4FE8E07BA9723A263
:1004540007008327C4FE85072326F4FE0327C4FE72
:1004640093073003E3DDE7FA856793870780F3A7F3
:1004740047302324F4FE0100F24062440561828087
:10048400011106CE22CC00102326A4FE1385819CE4
:10049400352DAA873E85F2406244056182800111B0
:1004A40006CE22CC00102326A4FE2324B4FE8325EA
:1004B40084FE1385819CA12D0100F24062440561F4
:1004C4008280797122D60018232EA4FC232CB4FC3C
:1004D400232AC4FC2328D4FC232604FE0327C4FDBA
:1004E4009307300363C6E7041707FF5F130747C585
:1004F4008327C4FD8E07BA979C432326F4FE8327E3
:1005040084FD9DC71707FF5F130787C38327C4FDB7
:100514008E07BA97032784FD98C31707FF5F130755
:1005240027C28327C4FD8E07BA97032744FDD8C387
:100534008327C4FE3E85325445618280011106CE74
:1005440022CC001001452D3F2326A4FE1707FF5F90
:10055400130707BF8327C4FE8E07BA979C4323243F
:10056400F4FE1707FF5F1307A7BD8327C4FE8E079A
:10057400BA97DC432322F4FE8327C4FE032784FEB8
:10058400832544FE3E8502978325C4FE0145013F31
:100594000100F240624405618280411106C622C412
:1005A400000817F500001305E5BFEF50504CB92CB7
:1005B400512C1305401FEF808072DDBF411106C628
:1005C40022C4000817F500001305C5BEEF50304AD9
:1005D40017F50000130505BEEF50704917F500002C
:1005E400130585BDEF50B04817F50000130585BC11
:1005F400EF50F04717F50000130505BEEF503047E4
:1006040017F500001305C5BFEF50704617F500003D
:10061400130585C1EF50B04517F50000130545C318
:10062400EF50F04417F50000130545C5EF50304472
:1006340017F50000130545C7EF50704317F5000088
:10064400130545C9EF50B04217F50000130545CB1B
:10065400EF50F04117F50000130585CDEF50304100
:1006640017F500001305C5CFEF50704017F50000D3
:10067400130505D2EF50B03F17F50000130545D41C
:10068400EF50F03E17F50000130545D6EF50303E0D
:1006940017F50000130545D8EF50703D17F500001D
:1006A400130505DAEF50B03C17F500001305C5DB60
:1006B400EF50F03B17F50000130545DDEF50303BDC
:1006C40017F500001305C5DEEF50703A17F500006A
:1006D400130505E0EF50B03917F50000130545E1A7
:1006E400EF50F03817F50000130545E2EF503038AD
:1006F40017F50000130505ACEF50703717F500002F
:10070400130545ABEF50B03617F500001305C5E1EE
:10071400EF50F0350100B2402244410182800111C2
:1007240022CE0010AA87A307F4FEB72701109387EF
:10073400870394438347F4FE0547B317F70013C7B1
:10074400F7FFB727011093878703758F98C3B727DF
:100754000110A10794438347F4FE05473317F700BC
:10076400B7270110A107558F98C301007244056192
:100774008280011122CE0010AA872E87A307F4FEDF
:10078400BA872307F4FE8347E4FE9DC305476392BB
:10079400E704B7270110B10794438347F4FE0547E4
:1007A4003317F700B7270110B107558F98C31DA061
:1007B400B7270110B10794438347F4FE0547B317E5
:1007C400F70013C7F7FFB7270110B107758F98C358
:1007D40011A001000100724405618280011122CE42
:1007E4000010AA87A307F4FEB7270110B1079443AA
:1007F4008347F4FE05473317F700B7270110B10705
:10080400358F98C30100724405618280411106C688
:1008140022C40008154521370100B2402244410199
:100824008280011106CE22CC0010AA87A307F4FE11
:100834008347F4FEBE8515452D3F0100F240624416
:1008440005618280411106C622C400081545793726
:100854000100B240224441018280797122D60018FD
:10086400232EA4FC232CB4FC8327C4FD2326F4FEEE
:1008740011A88327C4FE238007008327C4FE8507AD
:100884002326F4FE0327C4FD832784FDBA97032798
:10089400C4FEE360F7FE0100325445618280797141
:1008A40006D622D40018232EA4FC232CB4FC232A1D
:1008B400C4FC2328D4FC8327C4FD032784FD98C3E8
:1008C4008327C4FD032744FDD8C38327C4FD03271E
:1008D40004FD98C7F32740F12326F4FE8327C4FEC2
:1008E4002324F4FE8327C4FD9843832784FE9E07B4
:1008F4003E978967BA973E87832744FDA1078D8376
:10090400BE853A85993F8327C4FD9C433E87832750
:1009140044FD85078A07BE853A8581378327C4FD50
:100924009843832784FEB2073E97B7072000BA97FF
:100934002322F4FE832744FE23A007000100B250C3
:10094400225445618280797122D60018232EA4FC9A
:10095400232CB4FCF32740F12326F4FE8327C4FEA2
:100964002324F4FE8327C4FD9843832784FEB2071F
:100974003E97B7072000BA972322F4FE832744FE4C
:10098400032784FD98C30100325445618280797144
:1009940022D60018232EA4FC232CB4FCF32740F108
:1009A4002326F4FE8327C4FE2324F4FE8327C4FDF8
:1009B4009843832784FE9E073E97832784FD8D8377
:1009C4003E978967BA972322F4FE832744FE83C7A0
:1009D4000700A301F4FE832784FD9D8B0547B3170D
:1009E400F700139787016187830734FED98FE207E5
:1009F400E187A301F4FE832744FE034734FE2380EA
:100A0400E7000100325445618280797122D60018D2
:100A1400232EA4FC232CB4FCF32740F12326F4FE5C
:100A24008327C4FE2324F4FE8327C4FD984383272D
:100A340084FE9E073E97832784FD8D833E978967B6
:100A4400BA972322F4FE832744FE83C70700A30139
:100A5400F4FE832784FD9D8B0547B317F700E20757
:100A6400E18793C7F7FF139787016187830734FEF4
:100A7400F98FE207E187A301F4FE832744FE0347CD
:100A840034FE2380E700010032544561828079718D
:100A940022D60018232EA4FC232CB4FC232AC4FC45
:100AA4008327C4FD9C4799CF8327C4FD984383279C
:100AB40084FD8A07BA972326F4FE8327C4FE0327FE
:100AC40044FD98C30100325445618280797122D675
:100AD4000018232EA4FCF32740F12326F4FE8327D9
:100AE400C4FE2324F4FE8327C4FD9843832784FE95
:100AF400B2073E97B70720009107BA972322F4FE66
:100B0400832744FE9C433E8532544561828079713B
:100B140022D60018232EA4FC232CB4FCF32740F186
:100B24002326F4FE8327C4FE2324F4FE8327C4FD76
:100B34009843832784FEB2073E97B70720009107A6
:100B4400BA972322F4FE832744FE032784FD98C327
:100B54000100325445618280411122C60008B7C7A2
:100B64000002E1179C433E853244410182804111D9
:100B740006C622C44AC24EC00008F93FAA873E896D
:100B84008149CA874E883E85C285B24022441249B3
:100B9400824941018280411122C60008A1673E8535
:100BA400324441018280011122CE00102326A4FE8A
:100BB4002324B4FE8327C4FE13F7F702832784FE9D
:100BC40093960701B7071F00F58F5D8FB7070040A5
:100BD4005D8FB787001098C30100B78700109C434E
:100BE400E3DD07FEB7870010A1079443B787001021
:100BF400A10741777D17758F98C301007244056181
:100C04008280397106DE22DC8000232EA4FC232C92
:100C1400B4FC232AC4FC2328D4FC2326E4FCB78791
:100C24000010A1079843C167F98F81C7C1451145D9
:100C34009D3F232604FE8327C4FDC6073E87B707CE
:100C44000200F98F0327C4FED98F2326F4FE8327DD
:100C540084FD8DC70327C4FEB7070400D98F23265C
:100C6400F4FEB7870010A1070327C4FE98C3B78713
:100C74000010B1071307001098C375A0B7470110FF
:100C8400214798C30327C4FEB7070400D98F23263E
:100C9400F4FE832744FD9D8B0327C4FED98F2326AE
:100CA400F4FE832704FD920793F7073F0327C4FE4E
:100CB400D98F2326F4FE8327C4FCAA073E878567C1
:100CC400938707C0F98F0327C4FED98F2326F4FE28
:100CD400B7870010B1071307001098C3B787001037
:100CE400A1070327C4FE98C3B7870010A107944344
:100CF400B7870010A1073707FCFF7D17758F98C3CE
:100D0400A13D2324A4FE0100813D2A87832784FE7C
:100D14001D8F8D47E3FAE7FE0100B7870010A10796
:100D24009C43E3DC07FEB7870010A1079443B78711
:100D34000010A1074167558F98C30100F250625417
:100D440021618280411106C622C40008B707001041
:100D5400938707079443B70700109387070737075C
:100D640000C07D17758F98C3C14511452D3D010005
:100D7400B240224441018280397106DE22DC8000C7
:100D84002326A4FC093D2326A4FEF9332324A4FE30
:100D9400E1332322A4FE032744FE832784FEE309D0
:100DA400F7FEF32700B02320F4FE832704FE232E4E
:100DB400F4FC5D332A87832744FEB307F740232CD2
:100DC400F4FC032784FD8327C4FCE364F7FEF327C4
:100DD40000B0232AF4FC032744FD8327C4FDB30792
:100DE400F7402328F4FC032704FD832784FD3357AD
:100DF400F7028327C4FE3307F702832604FD832703
:100E040084FDB3F6F6028327C4FEB386F602832775
:100E140084FDB3D7F602BA973E85F250625421613D
:100E24008280411106C622C400089387419D9C43D9
:100E340089EB05459137294581372A879387419D59
:100E440098C39387419D9C433E85B240224441010F
:100E54008280011106CE22CC00102326A4FEB727DF
:100E640001109387C7039443B72701109387C703DF
:100E74003707FDFF7D17758F98C3B7270110938738
:100E840087039443B7270110938787033707030029
:100E9400558F98C379372A878327C4FE3357F702BF
:100EA400B7370110E1077D1798C3B7370110A107C1
:100EB4009843B7370110A1071367170098C30100BF
:100EC400F240624405618280011106CE22CC0010FA
:100ED4002326A4FE2324B4FE8327C4FE63DF070075
:100EE4000327C4FEB707008093C7F7FF7D8FAD4784
:100EF4006315F700EFF08FE405A88327C4FE63DFD2
:100F040007000327C4FEB707008093C7F7FF7D8F50
:100F14009D476315F700EFF0AF9439A017E5000083
:100F240013058565EF50A034832784FE3E85F24087
:100F3400624405618280411122C6000801003244E6
:100F440041018280411122C600080100324441015E
:100F54008280411122C6000801003244410182808E
:100F6400411122C600089387819D9C433E853244EB
:100F740041018280797106D622D40018232EA4FC64
:100F8400EF80D05C2326A4FE9387819D0327C4FDB4
:100F940098C30325C4FEEF80D05B0100B2502254F5
:100FA40045618280011106CE22CC00109387819D79
:100FB4009C43138717009387819D98C3EF70007437
:100FC4002326A4FE8327C4FEFC531387F7FF83273D
:100FD400C4FEF8D38327C4FEFC538DE78327C4FEE5
:100FE400B8538327C4FEF8D38327C4FE83C7C7043A
:100FF40093E7870013F7F70F8327C4FE2386E704DC
:10100400EF60306AEF80F0280100F240624405612D
:101014008280797122D60018232EA4FC8327C4FD74
:1010240063D60700FD572326F4FE99A00327C4FDC9
:101034009307803E3347F70293074006B307F7024E
:101044002326F4FE0327C4FD9307803E3367F7028B
:1010540093074006B307F7021387773E9307803E52
:10106400B347F7023E878327C4FEBA972326F4FECC
:101074008327C4FE3E85325445618280411122C6D5
:10108400000881473E85324441018280411122C6D5
:10109400000881473E85324441018280411122C6C5
:1010A400000881473E85324441018280411122C6B5
:1010B400000881473E85324441018280011106CEF9
:1010C40022CC001097E700009387C7032326F4FE81
:1010D40011A88327C4FE9C4382978327C4FE9107EB
:1010E4002326F4FE0327C4FE97E700009387070234
:1010F400E361F7FE0100F240624405618280011160
:1011040006CE22CC001097E7000093872700232601
:10111400F4FE11A88327C4FE9C4382978327C4FE50
:1011240091072326F4FE0327C4FE97E70000938764
:1011340067FEE361F7FE0100F240624405618280CC
:10114400411106C622C40008612081473E85B24091
:10115400224441018280011106CE22CC00102326B4
:10116400A4FE713FEFF06FC30100F24062440561D9
:101174008280011106CE22CC0010D14713075005FE
:101184008566938606800146970500009385E5FCF5
:1011940017E500001305853FEF7040782326A4FE71
:1011A4008327C4FE89EF1306800C97E5000093851E
:1011B400653F17E500001305E53DEF508032032538
:1011C400C4FEEF7020550100F24062440561828044
:1011D400411106C622C40008EF805037EFE01FF724
:1011E400EF402050EF80B01FEF60B0415937EF80DF
:1011F400D022EF009031EF60F04681473E85B24047
:10120400224441018280011106CE22CC0010232603
:10121400A4FE2324B4FEB2872313F4FE8327C4FE62
:1012240099E3FD573DA8032584FED520AA8799C3D9
:10123400FD5705A88327C4FE032684FEA5453E85E5
:10124400EF60C04F8327C4FE035764FE2398E70270
:101254008327C4FE238A07028327C4FE2399070237
:1012640081473E85F240624405618280011106CEC9
:1012740022CC00102326A4FE8327C4FE89EF130684
:10128400200597E500009385E54317E50000130565
:10129400A532EF5000258327C4FE3E85EF60D001C0
:1012A400AA873E87A547630EF7001306300597E526
:1012B40000009385254117E500001305E530EF5044
:1012C40040228327C4FE3E85EF60607AAA8789EFB7
:1012D4001306400597E500009385C53E17E5000019
:1012E40013054532EF50E01F8327C4FE3E85EF60AF
:1012F400E05581473E85F240624405618280411198
:1013040022C6000881473E853244410182807971BA
:1013140006D622D40018232EA4FCEF70203EAA8700
:1013240099C3EF60507A2545EF60E0272324A4FE9B
:10133400832784FE89EF1306C00797E50000938591
:10134400E53917E500001305652EEF508019832752
:1013540084FEDC432326F4FE81A08327C4FE938706
:10136400C7FD2322F4FE832744FE130600028325CF
:10137400C4FD3E85EF40201CAA8791EBEF70003836
:10138400AA8799C3EF601078832744FE25A083279A
:10139400C4FE9C432326F4FE832784FE910703277F
:1013A400C4FEE31CF7FAEF706035AA8799C3EF60B7
:1013B400707581473E85B2502254456182807971AF
:1013C40006D622D40018232EA4FC232CB4FC9307A5
:1013D400C0052326F4FE832784FD8D07F19B232C6F
:1013E400F4FC0327C4FE832784FDBA972326F4FE66
:1013F4008327C4FE3E85EF5080502324A4FE832718
:1014040084FE89CF1306C0058145032584FEEF3091
:10141400B03B0327C4FD832784FED8D7832784FEEB
:101424003E85B250225445618280011106CE22CC01
:1014340000102326A4FE8327C4FE89EF1306A00B05
:1014440097E500009385852A17E500001305C51666
:10145400EF5020098327C4FE3E85EF60E065AA872C
:101464003E87A547630EF7001306B00B97E500000F
:101474009385C52717E5000013050515EF50600691
:101484008327C4FE3E85EF60805EAA8789CF13065A
:10149400C00B97E500009385652517E5000013054B
:1014A400651AEF5000048327C4FE3E85EF60003ABE
:1014B4000325C4FEEF5010260100F240624405618A
:1014C4008280797106D622D40018232EA4FC232608
:1014D40004FE8327C4FD89EF1306100D97E5000071
:1014E4009385052217E500001305050DEF40707F75
:1014F4008327C4FDBC43B9CB8327C4FD83D707032B
:10150400C18BA9E78327C4FDBC430325C4FD82978F
:101514002326A4FE8327C4FE89CF8327C4FD032684
:10152400C4FEBE8517E5000013050515EF403054D1
:1015340031A88327C4FD83D7070393E707011397D3
:10154400070141838327C4FD2398E7028327C4FE50
:101554003E85B250225445618280797106D622D4E8
:101564000018232EA4FCAE87231DF4FC232604FEBE
:101574008327C4FD89EF1306400F97E50000938588
:10158400251917E5000013052503EF4090758327FF
:10159400C4FD3E85EF604052AA873E87A547630E8F
:1015A400F7001306500F97E500009385651617E5BD
:1015B400000013056501EF40D0728327C4FD83D773
:1015C4000703C18BB9EB8327C4FDBC4395CB8327A9
:1015D400C4FDBC430325C4FD82972326A4FE8327B0
:1015E400C4FE99CF8327C4FD0326C4FEBE8517E538
:1015F400000013056508EF4090478327C4FEE1A867
:101604008327C4FD83D7070393E7070113970701D3
:1016140041838327C4FD2398E7028327C4FD83D72E
:101624000703A18B89CB8327C4FD83D72703A18B11
:1016340099C3E5574DA08327C4FDFC4389CF832775
:10164400C4FDF8438357A4FDBE850325C4FD02975A
:101654002326A4FE31A80357A4FD85679387F7F0DA
:10166400F98F1397070141838327C4FD2399E70268
:101674008327C4FE91C70327C4FEE957631BF704FD
:101684008327C4FD83D7270393E7870013970701B4
:1016940041838327C4FD2399E7028327C4FD83C7BD
:1016A4004703850713F7F70F8327C4FD238AE7024F
:1016B4008327C4FD83C7470389EF1306301297E5D8
:1016C40000009385E50417E50000130565FEEF406F
:1016D40050618327C4FE3E85B25022544561828006
:1016E400797106D622D40018232EA4FC232604FEE6
:1016F4008327C4FD89EF1306501397E500009385F3
:10170400250217E50000130525EBEF40905D8327C4
:10171400C4FD3E85EF60403AAA873E87A547630E25
:10172400F7001306601397E50000938565FF17E53E
:101734000000130565E9EF40D05A8327C4FD83C731
:10174400470399E3FD57A9A88327C4FD83C747032B
:10175400FD1713F7F70F8327C4FD238AE7028327B6
:10176400C4FD83C7470399C381471DA88327C4FDCC
:10177400BC4789CB8327C4FDBC470325C4FD82979E
:101784002326A4FE8327C4FE91C70327C4FEE9577A
:101794006316F7008327C4FD239907028327C4FE39
:1017A4003E85B250225445618280011106CE22CC7E
:1017B40000102326A4FE2324B4FE2322C4FE2320E7
:1017C400D4FE8327C4FE89EF1306F01597E50000C5
:1017D400938505F617E50000130505DEEF4070500C
:1017E4008327C4FE3E85EF60202DAA873E87A54748
:1017F400630EF7001306001697E50000938545F382
:1018040017E50000130545DCEF40B04D8327C4FE07
:1018140083C7470391E77D55EF30807281473DA030
:101824008327C4FEFC4799CF8327C4FEFC47832645
:1018340004FE032644FE832584FE0325C4FE82970A
:10184400AA8729A06955EF30A06F81473E85F240F1
:10185400624405618280011106CE22CC0010232649
:10186400A4FE2324B4FE2322C4FE2320D4FE832713
:10187400C4FE89EF1306601897E50000938545ECD4
:1018840017E50000130545D3EF40B0458327C4FE98
:101894003E85EF606022AA873E87A547630EF70066
:1018A4001306701897E50000938585E917E5000095
:1018B400130585D1EF40F0428327C4FE83C7470355
:1018C40091E77D55EF30C06781473DA08327C4FE73
:1018D400BC4B99CF8327C4FEBC4B832604FE03264E
:1018E40044FE832584FE0325C4FE8297AA8729A08B
:1018F4006955EF30E06481473E85F24062440561FA
:101904008280011106CE22CC00102326A4FE2324BB
:10191400B4FE2322C4FE8327C4FE89EF1306701A83
:1019240097E500009385C5E217E500001305C5C8D7
:10193400EF40303B8327C4FE3E85EF60E017AA8763
:101944003E87A547630EF7001306801A97E500004B
:10195400938505E017E50000130505C7EF407038CF
:101964008327C4FEFC4B89CF8327C4FEFC4B03268C
:1019740044FE832584FE0325C4FE8297AA8711A012
:10198400E9573E85F240624405618280011106CE2A
:1019940022CC00102326A4FE2324B4FE8327C4FEF5
:1019A40089EF1306101C97E500009385A5DB17E566
:1019B4000000130565C0EF40D0328327C4FE3E8586
:1019C400EF60800FAA873E87A547630EF7001306D2
:1019D400201C97E500009385E5D817E50000130562
:1019E400A5BEEF4010308327C4FE032784FE98DF92
:1019F40081473E85F240624405618280011106CE32
:101A040022CC00102326A4FE2324B4FE8327C4FE84
:101A140089EF1306701D97E50000938565D617E5D9
:101A24000000130565B9EF40D02B8327C4FE3E8523
:101A3400EF608008AA873E87A547630EF700130668
:101A4400801D97E500009385A5D317E500001305D5
:101A5400A5B7EF4010298327C4FE032784FED8DFEF
:101A640081473E85F240624405618280011122CEA5
:101A740000102326A4FE8327C4FE9C430327C4FE30
:101A84005843D8C38327C4FEDC430327C4FE18434A
:101A940098C38327C4FE0327C4FED8C38327C4FE88
:101AA400D8438327C4FE98C3010072440561828031
:101AB400797106D622D40018232EA4FCF5572324CA
:101AC400F4FEEF80A0282322A4FE232604FE15A8FA
:101AD400138701E98327C4FE8A07BA979C4389EFD9
:101AE400138701E98327C4FE8A07BA970327C4FD35
:101AF40098C3232404FE19A88327C4FE850723263C
:101B0400F4FE0327C4FE8D47E3F4E7FC032544FEFB
:101B1400EF802024832784FE3E85B2502254456101
:101B24008280797106D622D40018232EA4FCE957AA
:101B34002324F4FEEF8080212322A4FE232604FE26
:101B440025A8138701E98327C4FE8A07BA979C4313
:101B54000327C4FD631DF700138701E98327C4FE2F
:101B64008A07BA9723A00700232404FE19A8832711
:101B7400C4FE85072326F4FE0327C4FE8D47E3F243
:101B8400E7FC032544FEEF80C01C832784FE3E85CA
:101B9400B250225445618280011122CE001097F781
:101BA400FE5F9387675F2326F4FE8327C4FE9C436E
:101BB4000327C4FEB307F740B337F00093F7F70FDA
:101BC4003E85724405618280011106CE22CC00104C
:101BD400C5A0EF80A0172326A4FEEF30202FAA87EC
:101BE4009DC797E500009385A5BE17E50000130582
:101BF400E5BAEF40C0671306000A97E50000938535
:101C040025BD17E500001305E5BBEF40900D032546
:101C1400C4FEEF800014EF8060132324A4FEAD3FC4
:101C2400AA87A5C797F7FE5F938707579C439387B7
:101C340047FD2322F4FE832744FE9387C7023E8593
:101C44003535EF604068832744FE83A7C70A81CBFC
:101C5400832744FE83A7C70A032544FE82970325EE
:101C640044FEEF50D0602A878547631DF7000325A3
:101C740044FEEF50B03DEF60E068032584FEEF8042
:101C8400400D1DA8EF60006831A0032584FEEF809D
:101C9400400C1DA0032584FEEF80A00B832744FE87
:101CA400BC433E85EF500027032544FEEF5070529D
:101CB400E535AA87E39F07F0F2406244056182801C
:101CC400797106D622D40018232EA4FC232604FE00
:101CD40035A0138701E98327C4FE8A07BA979C437A
:101CE40089CB138701E98327C4FE8A07BA979C43EB
:101CF40082978327C4FE85072326F4FE0327C4FEA8
:101D04008D47E3F8E7FCC935D1B7397106DE22DC2B
:101D14008000232604FEBDA89307C4FC0326C4FE4A
:101D240097E50000938545AA3E85EF40A03E032732
:101D3400C4FE9307400B3307F7029387C19D330515
:101D4400F7008327C4FE1397A70097E7FE5F9387E6
:101D5400A7653E979305C4FC930800021308F00F8F
:101D6400930700408146170600001306A6F5EF60AE
:101D7400B00E0327C4FE9307400B3307F702938783
:101D8400C19DBA973E85EF60F0188327C4FE85078E
:101D94002326F4FE8327C4FEC1D30100F25062540B
:101DA40021618280411122C626C400088144930720
:101DB400400B3387F4029387C19DBA973E85324422
:101DC400A24441018280011122CE00102326A4FEE8
:101DD4008327C4FE0327C4FED8C38327C4FED84385
:101DE4008327C4FE98C301007244056182800111F7
:101DF40022CE00102326A4FE2324B4FE8327C4FE8F
:101E0400DC43032784FE98C38327C4FED843832777
:101E140084FED8C38327C4FE032784FED8C3832744
:101E240084FE0327C4FE98C30100724405618280C6
:101E3400011122CE00102326A4FE8327C4FE9C4356
:101E44000327C4FEB307F74093B7170093F7F70FC0
:101E54003E85724405618280011106CE22CC0010B9
:101E64002326A4FE8327C4FE9387C7023E85A13F91
:101E740081473E85F240624405618280797106D6CD
:101E840022D40018232EA4FC232CB4FCB287A30B69
:101E9400F4FC032584FDEF70E000834774FD89C7DB
:101EA4000547638CE70071A0832784FD9387C702ED
:101EB400BE850325C4FD253FADA88327C4FD9C43EF
:101EC4002326F4FE91A08327C4FE938747FD232491
:101ED400F4FE832784FD03C7D704832784FE83C7C6
:101EE400D704637EF700832784FE1387C702832702
:101EF40084FD9387C702BE853A85D53D21A88327F3
:101F0400C4FE9C432326F4FE0327C4FE8327C4FD9A
:101F1400E31BF7FA0327C4FE8327C4FD631AF70003
:101F2400832784FD9387C702BE850325C4FDC1357D
:101F3400010081473E85B250225445618280797107
:101F440006D622D40018232EA4FC8327C4FD9C4368
:101F5400938747FD2326F4FE0325C4FEEF70400556
:101F640081473E85B250225445618280797106D6FC
:101F740022D426D20018232EA4FC05A8EF70105DED
:101F8400AA87BE848327C4FD9C43938747FD2326E9
:101F9400F4FE8327C4FE7D57B8C70325C4FEEF7043
:101FA4002001A6873E85EF70D05A0325C4FD49352C
:101FB400AA87E9D781473E85B2502254925445619D
:101FC4008280011106CE22CC00102326A4FE2324F5
:101FD400B4FE2322C4FEB687A301F4FE8327C4FE05
:101FE40089EF1306200D97E50000938565C717D583
:101FF40000001305657FEF40C04E032744FEC16710
:10200400636EF7001306300D97E50000938545C510
:1020140017D500001305457EEF40A04C8327C4FE6E
:10202400032684FE89453E85EF5040718327C4FE14
:102034003E851D35832744FE13970701418383277B
:10204400C4FE239AE7028327C4FE034734FEA38019
:10205400E70281473E85F2406244056182800111B6
:1020640006CE22CC00102326A4FE8327C4FE89EFCB
:102074001306100F97E50000938545BF17D50000A0
:1020840013058576EF40E0458327C4FE3E85EF5077
:10209400B022AA873E878947630EF7001306200FF4
:1020A40097E50000938585BC17D5000013050576D8
:1020B400EF4020438327C4FE3E85EF50501BAA8780
:1020C40089EF1306300F97E50000938525BA17D5DD
:1020D400000013052578EF40C0408327C4FE938792
:1020E400C7023E8561358327C4FE3E85EF500076E6
:1020F40081473E85F240624405618280797106D64B
:1021040022D40018232EA4FC232CB4FCB287A30BE6
:10211400F4FCEF70B0432326A4FEEF20305BAA87C3
:102124009DC797E50000938565B517D50000130595
:102134006575EF40C0131306F01097E50000938512
:10214400E5B317D5000013056576EF408039032504
:10215400C4FEEF701040032784FDC167636EF7006F
:102164001306001197E50000938545B117D50000CB
:1021740013058568EF40E0368325C4FD0945EF501B
:10218400A0732324A4FE832784FE81E7832784FE8F
:1021940035A0832784FE3E85C131832784FD1397B0
:1021A40007014183832784FE239AE702832784FE61
:1021B400034774FDA380E702832784FE3E85B25063
:1021C400225445618280797106D622D40018232EC8
:1021D400A4FCEF70B0372326A4FEEF20304FAA876B
:1021E4009DC797E50000938565AA17D500001305E0
:1021F4006569EF40C0071306F01297E50000938568
:10220400E5A817D500001305656AEF40802D032566
:10221400C4FEEF7010348327C4FD89EF1306201326
:1022240097E50000938585A617D500001305C55BC7
:10223400EF40202B8327C4FD3E85EF50F007AA878B
:102244003E878947630EF7001306301397E50000B5
:102254009385C5A317D500001305455BEF4060289F
:102264008327C4FD3E85EF509000AA8789CF1306CB
:10227400401397E50000938565A117D50000130569
:102284002563EF4000268327C4FD9387C7023E855C
:10229400F1398327C4FD3E85EF50A07381473E8505
:1022A400B250225445618280797106D622D426D256
:1022B4000018232EA4FC232CB4FC8327C4FD89EF2F
:1022C4001306001597E500009385459D17D500007A
:1022D40013058551EF40E0208327C4FD3E85EF5070
:1022E400A07DAA873E878947630EF7001306101561
:1022F40097E500009385859A17D5000013050551CD
:10230400EF40201E938701059C4381CB93870105F1
:1023140098438327C4FD3E850297EF703023AA8437
:102324008327C4FD83D747038DC38327C4FD83D785
:102334004703FD171397070141838327C4FD239A9D
:10234400E7022685EF70F02029A2832784FD91E718
:102354002685EF701020F95709AAEF70301F232645
:10236400A4FEEF60A039AA879DE797E50000938556
:10237400E59217D5000013056557EF30506F13062B
:10238400101797E500009385659117D50000130594
:10239400E551EF400015EF70701B2324A4FEEF20DD
:1023A400F032AA879DC797E500009385258F17D53E
:1023B40000001305254DEF30906B1306101797E5B9
:1023C40000009385A58D17D500001305254EEF4019
:1023D4004011032584FEEF70D0170325C4FEEF706F
:1023E4005017EF60A0312322A4FE832744FE23A4C8
:1023F40007048327C4FD1387C7028327C4FD83C74B
:1024040017023E86832544FE3A858D3C832784FD4E
:102414006354F002832744FE93878706130784FDE1
:102424003A8681453E85EF700056832744FE9387A4
:1024340087063E85EF70C0212685EF709011EF501E
:102444005026832744FEBC4789C7832744FEBC47E4
:1024540029A89387C1049C4381CB9387C1049843E3
:102464008327C4FD3E85029781473E85B25022549E
:10247400925445618280011106CE22CC001023269D
:10248400A4FE81450325C4FE0535AA873E85F24096
:10249400624405618280011106CE22CC26CA4AC854
:1024A40000102326A4FE8327C4FE89EF1306D01B45
:1024B40097D500009385457F17D500001305C532D5
:1024C400EF4020028327C4FE3E85EF50E05EAA87DA
:1024D4003E878947630EF7001306E01B97D500007B
:1024E4009385857C17D5000013054532EF30707F46
:1024F400938781049C4381CB9387810498438327EA
:10250400C4FE3E8502978144EF7050042A898327D4
:10251400C4FE9387C7023E85213AAA8789EB8327A5
:10252400C4FE9387C7023E85193C85441DA88327B2
:10253400C4FE03D74703C167FD17630FF700832762
:10254400C4FE83D747038507139707014183832775
:10255400C4FE239AE70231A04A85EF70807FF557C5
:1025640011A84A85EF70E07E85476394F400EF502C
:10257400501381473E85F2406244D244424905618A
:102584008280797106D622D40018232EA4FC232C31
:10259400B4FC232AC4FC8327C4FD89EF1306801FDF
:1025A40097D500009385457117D500001305C52301
:1025B400EF3030738327C4FD3E85EF50E04FAA8788
:1025C4003E878947630EF7001306901F97D50000D6
:1025D4009385856E17D5000013054523EF30707081
:1025E400032784FD85476313F704832744FD2326CB
:1025F400F4FEEF70A075AA872324F4FE8327C4FD9C
:102604009387C7023E859D328327C4FE1397070133
:1026140041838327C4FD239AE702832784FE3E85F2
:10262400EF702073EF50F007814711A0FD573E85EE
:10263400B250225445618280011106CE22CC001092
:102644002326A4FE2324B4FEB287A303F4FE832727
:10265400C4FE89EF1306502297D500009385C56602
:1026640017D500001305052CEF30B0678327C4FE8F
:10267400032684FE8D453E85EF50400C8327C4FE1F
:102684003E85EFF06FFD8327C4FE0547239AE702DA
:102694008327C4FE23AC07028327C4FE7D57238B04
:1026A400E7028327C4FEA38B07028327C4FE0347E4
:1026B40074FEA380E70281473E85F24062440561CF
:1026C4008280011106CE22CC00102326A4FE83278B
:1026D400C4FE89EF1306502497D500009385C55F87
:1026E40017D5000013050524EF30B05F8327C4FE1F
:1026F4003E85EF50603CAA873E878D47630EF70006
:102704001306602497D500009385055D17D5000056
:1027140013058522EF30F05C8327C4FE3E85EF501D
:102724000035AA8789EF1306702497D50000938596
:10273400A55A17D5000013056524EF30905A832756
:10274400C4FE9387C7023E8515308327C4FE3E85A9
:10275400EF50C00F81473E85F2406244056182809C
:10276400797106D622D40018232EA4FCAE87A30DBB
:10277400F4FCEF70A05D2326A4FEEF202075AA8749
:102784009DC797D500009385255617D500001305DE
:10279400650FEF30D02D1306202697D500009385C2
:1027A400A55417D5000013056510EF309053032589
:1027B400C4FEEF70005A8325C4FD0D45EF50C00FD1
:1027C4002324A4FE832784FE81E7832784FE81A03B
:1027D400832784FE3E85EFF02FE8832784FE054798
:1027E400239AE702832784FE23AC0702832784FE0F
:1027F4007D57238BE702832784FEA38B070283275D
:1028040084FE0347B4FDA380E702832784FE3E854C
:10281400B250225445618280797106D622D40018C0
:10282400232EA4FCEF7080522326A4FEEF20006A1E
:10283400AA879DC797D500009385054C17D500003E
:1028440013054504EF30B0221306302897D5000055
:102854009385854A17D5000013054505EF30704868
:102864000325C4FEEF70E04E8327C4FD89EF1306F1
:10287400602897D500009385254817D500001305D7
:10288400650AEF3010468327C4FD3E85EF50C02211
:10289400AA873E878D47630EF7001306702897D5E5
:1028A40000009385654517D500001305E508EF3052
:1028B40050438327C4FD3E85EF50601BAA8789CF10
:1028C4001306802897D500009385054317D500008B
:1028D4001305050EEF30F0408327C4FD9387C7022C
:1028E4003E85EFF0AFE88327C4FD3E85EF50600ED0
:1028F40081473E85B250225445618280797106D663
:1029040022D426D20018232EA4FC232CB4FCEF706E
:10291400E0432326A4FEEF50705EAA879DE797D577
:1029240000009385653E17D50000130525FCEF30A4
:1029340010141306402A97D500009385E53C17D55B
:1029440000001305A5F6EF30D039EF7020402324A2
:10295400A4FEEF20A057AA879DC797D500009385B2
:10296400A53A17D500001305E5F1EF305010130612
:10297400402A97D500009385253917D50000130503
:10298400E5F2EF301036032584FEEF70803C03251A
:10299400C4FEEF70003C8327C4FD89EF1306702A40
:1029A40097D500009385453617D50000130585F7A4
:1029B400EF3030338327C4FD3E85EF50E00FAA8704
:1029C4003E878D47630EF7001306802A97D50000D3
:1029D4009385853317D50000130505F6EF30703065
:1029E400EF50D0512322A4FEEF704036AA8493877F
:1029F40001059C4381CB9387010598438327C4FD3C
:102A04003E850297832744FE23A407048327C4FD3D
:102A14009C5F032744FE631BF7028327C4FD03C79F
:102A240077039307F00F630EF7008327C4FD83C772
:102A34007703850713F7F70F8327C4FDA38BE702FA
:102A440025A22685EF70E030F55735AA8327C4FD0B
:102A540083D74703BDC38327C4FD83D74703FD172B
:102A64001397070141838327C4FD239AE702832731
:102A7400C4FD032744FE98DF832744FE03C7D7041D
:102A84008327C4FD238BE7028327C4FD03C7770391
:102A94009307F00F630EF7008327C4FD83C7770302
:102AA400850713F7F70F8327C4FDA38BE7026DA8EF
:102AB4002685EF70002AF557F9A0832784FD91EB52
:102AC400832744FE7957B8C72685EF708028F957C5
:102AD4005DA8832744FE03C7D7048327C4FD9C5FF6
:102AE40083C7D704637EF7008327C4FD985F8327D9
:102AF40044FE9387D7043E8689453A85EF60C0201B
:102B04008327C4FD1387C7028327C4FD83C7170225
:102B14003E86832544FE3A85EFF04FB6832784FD35
:102B24006354F002832744FE93878706130784FDCA
:102B34003A8681453E85EF601065832744FE93877E
:102B440087063E85EF60D0302685EF708020EF50F9
:102B54004035832744FEBC4789C7832744FEBC47CE
:102B64001DA0EF70A01EAA842685EF70801E938797
:102B7400C1049C4381CB9387C10498438327C4FD3C
:102B84003E85029781473E85B25022549254456156
:102B94008280797106D622D426D20018232EA4FC72
:102BA4008327C4FD89EF1306103497D5000093855D
:102BB400A51617D500001305E5D6EF30901283272C
:102BC400C4FD3E85EF40506FAA873E878D47630E54
:102BD400F7001306203497D500009385E51317D525
:102BE4000000130565D5EF30D00F232604FEEF70E7
:102BF400E0152324A4FEEF507030AA879DE797D5F3
:102C040000009385651117D50000130525CEEF301C
:102C140000661306703497D500009385E50F17D529
:102C240000001305A5C8EF30D00BEF70201223224B
:102C3400A4FEEF20A029AA879DC797D500009385FD
:102C4400A50D17D500001305E5C3EF304062130648
:102C5400703497D500009385250C17D50000130513
:102C6400E5C4EF301008032544FEEF70800E032501
:102C740084FEEF70000EEF5070282320A4FEEF7046
:102C8400E00CAA84938781049C4381CB93878104BD
:102C940098438327C4FD3E8502978327C4FD9C5F28
:102CA400032704FE630BF700832704FE7D57B8C790
:102CB4002685EF70000AFD573DA28327C4FD83C714
:102CC4007703FD1713F7F70F8327C4FDA38BE702E0
:102CD4008327C4FD83C77703639C070E8327C4FD42
:102CE40003C767038327C4FD9C5F83C7D704630EB0
:102CF400F7008327C4FD985F8327C4FD9387670388
:102D04003E8689453A85EF6020008327C4FD93877A
:102D1400C7023E85EFF0CF91AA87A5EB8327C4FDB8
:102D2400DC57938747FD2320F4FE8327C4FD032744
:102D340004FE98DF832704FE03C7D7048327C4FD5A
:102D4400238BE7028327C4FD03C777039307F00FA0
:102D54006308F7028327C4FD83C77703850713F746
:102D6400F70F8327C4FDA38BE7028327C4FD938752
:102D7400C7023E85EFF0AF9C85472326F4FE89A861
:102D84002685EF60107DF557B9A88327C4FD03D7C6
:102D94004703C167FD176308F7028327C4FD83D780
:102DA400470385071397070141838327C4FD239AAB
:102DB400E7028327C4FD23AC07028327C4FD7D57A4
:102DC400238BE70231A02685EF60B078F55721A860
:102DD4002685EF6010780327C4FE85476314F70047
:102DE400EF50200C81473E85B250225492544561E5
:102DF4008280011106CE22CC00102326A4FE2324B7
:102E0400B4FE2322C4FE8327C4FE89EF1306403B8D
:102E140097D50000938585F117D50000130585B07B
:102E2400EF30206C8327C4FE3E85EF40F048AA872C
:102E34003E878D47630EF7001306503B97D500007D
:102E44009385C5EE17D50000130505AFEF30606913
:102E5400FD573E85F240624405618280011106CE31
:102E640022CC00102326A4FE2324B4FEB287A3039D
:102E7400F4FE8327C4FE89EF1306A03C97D5000017
:102E8400938505EC17D50000130585B6EF30606512
:102E94008327C4FE032684FE91453E85EF40100A35
:102EA4008327C4FE034774FEA380E7028327C4FE7E
:102EB4003E85EFE07FFA8327C4FE23AA07028147F9
:102EC4003E85F240624405618280011106CE22CC27
:102ED40000102326A4FE8327C4FE89EF1306603E58
:102EE40097D500009385C5E617D50000130545B0B6
:102EF400EF30205F8327C4FE3E85EF40F03BAA8776
:102F04003E879147630EF7001306703E97D5000085
:102F1400938505E417D500001305C5AEEF30605C5A
:102F24008327C4FE3E85EF409034AA8789EF1306B9
:102F3400803E97D500009385A5E117D500001305C1
:102F4400A5B0EF30005A8327C4FE9387C7023E859D
:102F5400EFF0CF818327C4FE3E85EF40300F8147D9
:102F64003E85F240624405618280797106D622D49E
:102F74000018232EA4FCAE87A30DF4FCEF60105DB3
:102F84002326A4FEEF109074AA879DC797D500004E
:102F9400938505DD17D500001305C58EEF30202D70
:102FA4001306104097D50000938585DB17D50000E4
:102FB4001305C58FEF30E0520325C4FEEF6070594E
:102FC4008325C4FD1145EF40300F2324A4FE83273D
:102FD40084FE81E7832784FE15A0832784FE0347AC
:102FE400B4FDA380E702832784FE3E85EFE0DFE69D
:102FF400832784FE23AA0702832784FE3E85B250DA
:10300400225445618280797106D622D40018232E79
:10301400A4FC8327C4FD89EF1306F04197D5000073
:10302400938505D517D500001305859CEF30604BBB
:103034008327C4FD3E85EF403028AA873E87914709
:10304400630EF7001306004297D50000938545D21E
:1030540017D500001305059BEF30A0488327C4FD56
:103064003E85EF40D020AA8789CF1306104297D51A
:1030740000009385E5CF17D50000130525A0EF3098
:103084004046EF60B04C2326A4FEEF103064AA87BC
:103094009DC797D500009385A5CD17C500001305DE
:1030A400657EEF30C01C1306304297D5000093852F
:1030B40025CC17C500001305657FEF30804203253A
:1030C400C4FEEF6010498327C4FD9387C7023E8581
:1030D400EFE0DFE98327C4FD3E85EF40900F814791
:1030E4003E85B250225445618280797106D622D43D
:1030F40026D20018232EA4FC232CB4FC8327C4FD61
:1031040089EF1306204497D50000938565C717D52A
:1031140000001305E58DEF30C03C8327C4FD3E85D8
:10312400EF409019AA873E879147630EF700130674
:10313400304497D500009385A5C417D50000130526
:10314400658CEF30003A832784FD99E3FD570DAA7F
:10315400232404FEEF60903FAA87BE848327C4FD26
:10316400D85B832784FD5D8F8327C4FDD8DB9387D9
:1031740081049C4381CB9387810498438327C4FDB6
:103184003E8502978327C4FD9387C7023E85EFE0FF
:103194003FCAAA87F1EB8327C4FDDC572326F4FE3C
:1031A40065A88327C4FE938747FD2322F4FEFD50C0
:1031B400832744FE83C7C705858B99CF832744FEA5
:1031C400B84F8327C4FDDC5B7D8F832744FEBC4F4F
:1031D4006314F704814089A0832744FE83C7C7058D
:1031E400898B8DC7832744FEB84F8327C4FDDC5BDE
:1031F400F98F9DC3832744FEB84F8327C4FDDC5B4E
:103204007D8F832744FEB8CF814039A0A6873E85B1
:10321400EF603034D957ADA08327C4FE9C432326E6
:10322400F4FE639B0002832744FE83C7C705918B8A
:1032340089CF8327C4FDD85B832744FEBC4F93C743
:10324400F7FF7D8F8327C4FDD8DB032544FEEF50B1
:10325400305685472324F4FE8327C4FD9387C70291
:103264000327C4FEE31FF7F2A6873E85EF60702EA6
:10327400032784FE85476314F700EF40904281479B
:103284003E85B2502254925445618280397106DEE3
:1032940022DC26DA4AD88000232EA4FC232CB4FC9A
:1032A400B2872328D4FC2326E4FCA30BF4FCEF60B0
:1032B400F0292326A4FEEF506044AA879DE797D502
:1032C40000009385E5AC17C5000013052562EF20C7
:1032D400107A1306C04A97D50000938565AB17C5CD
:1032E40000001305A55CEF30C01FEF6030262324D7
:1032F400A4FEEF10B03DAA879DC797D50000938523
:1033040025A917C500001305E557EF2050761306CD
:10331400C04A97D500009385A5A717C500001305DB
:10332400E558EF30001C032584FEEF60902203254E
:10333400C4FEEF6010228327C4FD89EF1306F04A10
:1033440097D500009385C5A417C500001305456AE9
:10335400EF3020198327C4FD3E85EF40E075AA872E
:103364003E879147630EF7001306004B97D5000084
:10337400938505A217C500001305C568EF306016D4
:10338400832784FD99E3FD577DA2FD54EF50003758
:103394002322A4FE832744FE23A407049387010564
:1033A4009C4381CB9387010598438327C4FD3E85C5
:1033B4000297EF60B019AA873E89834774FD858B15
:1033C40089CF8327C4FDD85B832784FDF98F032726
:1033D40084FD631DF702814415A8834774FD898B1E
:1033E40091CB8327C4FDD85B832784FDF98F99CFC4
:1033F400814429A81306F04C97D50000938545997C
:1034040017C500001305854AEF30A00DA1EC8327F2
:10341400C4FC91CB8327C4FDD85B832784FD7D8FB7
:103424008327C4FC98C38327C4FDD85B832784FD0A
:103434007D8F832744FEB8CF832744FE034774FD62
:10344400238EE704834774FD918BE1C78327C4FD72
:10345400D85B832784FD93C7F7FF7D8F8327C4FD43
:10346400D8DB45A8832704FD99EB832744FE7957CD
:10347400B8C7CA873E85EF60D00DF9576DA883277A
:1034840044FE032784FDB8CF832744FE034774FD1D
:10349400238EE7048327C4FD1387C7028327C4FD53
:1034A40083C717023E86832544FE3A85EFE01F9DBD
:1034B400832704FD6354F002832744FE9387870621
:1034C400130704FD3A8681453E85EF60C04B832790
:1034D40044FE938787063E85EF608017CA873E8542
:1034E400EF603007EF40F01B832744FEBC4789C7D9
:1034F400832744FEBC4781A0EF605005AA873E891C
:103504008327C4FC99C7832744FEB84F8327C4FC90
:1035140098C3CA873E85EF60D0039387C1049C4358
:1035240081CB9387C10498438327C4FD3E850297CA
:10353400832744FEBC473E85F2506254D25442591C
:1035440021618280797106D622D40018232EA4FC2E
:10355400232CB4FC232AC4FC8327C4FD89EF13065F
:10356400A05297D500009385A58317C500001305C5
:103574002548EF2010778327C4FD3E85EF40C053D4
:10358400AA873E879147630EF7001306B05297D57A
:1035940000009385E58017C500001305A546EF20BC
:1035A4005074032784FD8547631BF702EF60007A9C
:1035B400AA872326F4FE8327C4FD9387C7023E858A
:1035C400EFE0DF9A8327C4FD23AA07028327C4FE02
:1035D4003E85EF600078EF40D00C814711A0FD5785
:1035E4003E85B250225445618280797106D622D438
:1035F40000182326A4FE2324B4FE2322C4FE232081
:10360400D4FEBA87A30FF4FC8327C4FE89EF130604
:10361400805597C500009385E57917C5000013050B
:10362400E549EF20106C8327C4FE032684FE9545EC
:103634003E85EF40A0108327C4FE0347F4FDA3801A
:10364400E7028327C4FE3E85EFE01F818327C4FE83
:10365400032744FED8DB832704FE13970701418325
:103664008327C4FE239CE7028327C4FE239D07020D
:103674008327C4FE239E07028327C4FE239F0702D9
:103684008327C4FE938707043E85EFE0CFF3814789
:103694003E85B250225445618280011106CE22CC6F
:1036A40000102326A4FE8327C4FE89EF1306B05717
:1036B40097C500009385C57017C500001305054024
:1036C400EF2030628327C4FE3E85EF40E03EAA87A8
:1036D4003E879547630EF7001306C05797C5000051
:1036E4009385056E17C500001305453EEF20705FF6
:1036F4008327C4FE3E85EF408037AA8789EF1306EF
:10370400D05797C500009385A56B17C50000130516
:103714002540EF20105D8327C4FE9387C7023E85B2
:10372400EFE0DF848327C4FE938707043E85EFE040
:10373400FF838327C4FE3E85EF40401181473E85C9
:10374400F240624405618280797106D622D4001861
:10375400232EA4FC232CB4FCB287A30BF4FCEF604F
:10376400E05E2326A4FEEF106076AA879DC797C566
:1037740000009385E56517C500001305A510EF202B
:10378400102F1306905997C500009385656417C5DB
:1037940000001305A511EF20D0540325C4FEEF60EB
:1037A400405B8325C4FD1545EF4000112324A4FE8E
:1037B400832784FE81E7832784FE49A0832784FE30
:1037C400034774FDA380E702832784FE3E85EFE070
:1037D400AFE8832784FD139707014183832784FE81
:1037E400239CE702832784FE83D787038A073E85C9
:1037F400EF30E0102A87832784FED8DB832784FEFA
:10380400DC5B81EB832784FE3E85EF40801C81478F
:1038140035A0832784FE239D0702832784FE239EED
:103824000702832784FE239F0702832784FE93874E
:1038340007043E85EFE02FD9832784FE3E85B250EE
:10384400225445618280797106D622D40018232E31
:10385400A4FCEF60A04F2326A4FEEF102067AA87E4
:103864009DC797C500009385A55717C5000013058C
:103874006501EF20D01F1306405C97C500009385B7
:10388400255617C5000013056502EF209045032552
:10389400C4FEEF60004C8327C4FD89EF1306705CFF
:1038A40097C500009385C55317C50000130505216E
:1038B400EF2030438327C4FD3E85EF40E01FAA87F5
:1038C4003E879547630EF7001306805C97C500009A
:1038D4009385055117C500001305451FEF2070405F
:1038E4008327C4FD3E85EF408018AA8789CF13063D
:1038F400905C97C500009385A54E17C5000013057D
:103904002524EF20103E8327C4FD9387C7023E85FC
:10391400EFE0CFE58327C4FD938707043E85EFE0FE
:10392400EFE48327C4FDDC5B3E85EF30A05E832794
:10393400C4FD3E85EF40E00981473E85B2502254E4
:1039440045618280797106D622D426D20018232EAE
:10395400A4FC232CB4FC232AC4FC8327C4FD89EFD4
:103964001306F05E97C500009385854817C50000CF
:103974001305C514EF20F0368327C4FD3E85EF40C0
:10398400A013AA873E879547630EF7001306005FCE
:1039940097C500009385C54517C500001305051399
:1039A400EF203034232604FEEF4050552324A4FE98
:1039B400938781049C4381CB938781049843832715
:1039C400C4FD3E850297EF606038AA87BE848327D2
:1039D400C4FD03D7A7038327C4FD83D787036313D9
:1039E400F716832744FD639F0714A6873E85EF607F
:1039F4004036F55705A4832784FE23A407048327B0
:103A040044FD99E7A6873E85EF60A034F55719A4D5
:103A1400EF60C0332322A4FEEF40504EAA879DE7F7
:103A240097C500009385C53C17C50000130505EC38
:103A3400EF20F0031306306197C500009385453BE2
:103A440017C50000130585E6EF20B029EF600030AC
:103A54002320A4FEEF108047AA879DC797C50000C6
:103A64009385053917C500001305C5E1EF20300023
:103A74001306306197C500009385853717C500008C
:103A84001305C5E2EF20F025032504FEEF60602C4A
:103A9400032544FEEF60E02B8327C4FD138707044E
:103AA4008327C4FD83C717023E86832584FE3A8597
:103AB400EFE0CFBC832744FD6358F002EFD04FCA38
:103AC4002326A4FE832784FE93878706130744FDD9
:103AD4003A8681453E85EF50106B832784FE938799
:103AE40087063E85EF50D036A6873E85EF60602678
:103AF400EF40203B832784FEBC4789C7832784FE8D
:103B0400BC4709AAEF608024AA87BE84832744FDAA
:103B1400635AF002EFD0CFC42A878327C4FEB307C9
:103B2400F7402326F4FE832744FD3E878327C4FE03
:103B3400B307F740232AF4FC832744FD63D407002A
:103B4400232A04FC8327C4FD03D7A7038327C4FDCA
:103B540083D78703E301F7EA8327C4FDD85B832770
:103B6400C4FD83D7C7038A07BA97032784FD98C384
:103B74008327C4FD83D7C7038507139707014183B0
:103B84008327C4FD239EE7028327C4FD03D7C7030D
:103B94008327C4FD83D787036366F7008327C4FDA7
:103BA400239E07028327C4FD03D7A703C167FD171C
:103BB4006308F7028327C4FD83D7A70385071397F8
:103BC400070141838327C4FD239DE7028327C4FDA6
:103BD4009387C7023E85EFE0AFA5AA879DE739A08A
:103BE400A6873E85EF60E016F5572DA08327C4FD18
:103BF4009387C7023E85EFE08FB4A6873E85EF60CA
:103C04004015EF40002A814731A0A6873E85EF602A
:103C1400401481473E85B2502254925445618280BB
:103C2400011106CE22CC00102326A4FE2324B4FEC8
:103C34000146832584FE0325C4FE2933AA873E85D5
:103C4400F240624405618280797106D622D426D27C
:103C54000018232EA4FC232CB4FC232AC4FC8327A1
:103C6400C4FD89EF1306A06897C500009385451924
:103C740017C50000130585E4EF20B0068327C4FDB3
:103C84003E85EF307063AA873E879547630EF70041
:103C94001306B06897C500009385851617C5000004
:103CA4001305C5E2EF20F003232604FEEF401025A0
:103CB4002324A4FE938701059C4381CB93870105AC
:103CC40098438327C4FD3E850297EF602008AA87A6
:103CD400BE848327C4FD83D7A7036397071683276E
:103CE40044FD63930716A6873E85EF608006F95767
:103CF40005AC832784FE23A40704832744FD99EBA2
:103D0400A6873E85EF60E004832784FE7957B8C711
:103D1400F95739A4EF6080032322A4FEEF40101E5C
:103D2400AA879DE797C500009385850D17C50000F8
:103D34001305C5BBEF20A0531306006B97C5000005
:103D44009385050C17C50000130545B6EF2060796F
:103D5400EF50D07F2320A4FEEF104017AA879DC701
:103D640097C500009385C50917C50000130585B1E3
:103D7400EF20E04F1306006B97C5000093854508BC
:103D840017C50000130585B2EF20A075032504FEB6
:103D9400EF50307C032544FEEF50B07B8327C4FDF5
:103DA4001387C7028327C4FD83C717023E86832572
:103DB40084FE3A85EFE08F8C832744FD6358F0023C
:103DC400EFD00F9A2326A4FE832784FE93878706C9
:103DD400130744FD3A8681453E85EF50D03A832748
:103DE40084FE938787063E85EF509006A6873E851E
:103DF400EF503076EF40E00A832784FEBC4789C742
:103E0400832784FEBC4729AAEF505074AA87BE8436
:103E1400832744FD635AF002EFD08F942A878327C7
:103E2400C4FEB307F7402326F4FE832744FD3E87F0
:103E34008327C4FEB307F740232AF4FC832744FDF9
:103E440063D40700232A04FC8327C4FD83D7A70374
:103E5400E38107EA8327C4FDD85B8327C4FD83D7A6
:103E6400E7038A07BA979843832784FD98C3832777
:103E7400C4FD83D7E703850713970701418383278D
:103E8400C4FD239FE7028327C4FD03D7E7038327E9
:103E9400C4FD83D787036366F7008327C4FD239F8C
:103EA40007028327C4FD83D7A703FD1713970701D0
:103EB40041838327C4FD239DE7028327C4FD9387A1
:103EC40007043E85EFD0DFF6AA879DEB8327C4FD68
:103ED400938707043E85EFE08F86A6873E85EF50E3
:103EE40050679387C1049C4381CB9387C104984353
:103EF4008327C4FD3E850297EF30B07A81470DA039
:103F0400A6873E85EF50F0649387C1049C4381CB20
:103F14009387C10498438327C4FD3E850297814754
:103F24003E85B2502254925445618280797106D6FE
:103F340022D40018232EA4FC232CB4FC232AC4FC72
:103F44008327C4FD89EF1306007197C5000093858C
:103F5400E5EB17C50000130565B6EF2080588327ED
:103F6400C4FD3E85EF305035AA873E879547630EE2
:103F7400F7001306107197C50000938525E917C54E
:103F840000001305A5B4EF20C055032784FD854721
:103F9400631AF704EF50905BAA872326F4FE832765
:103FA400C4FD9387C7023E85EFD05FFC8327C4FD21
:103FB400938707043E85EFD07FFB8327C4FD239DB1
:103FC40007028327C4FD239E07028327C4FD239F82
:103FD40007028327C4FE3E85EF50B057EF30706C64
:103FE400814711A0FD573E85B2502254456182801D
:103FF400397106DE22DC8000232EA4FC232CB4FCC1
:10400400232AC4FC2328D4FC2326E4FCA305F4FCC3
:104014008327C4FD89EF1306D07497C500009385E8
:10402400E5DF17C50000130565B5EF20804B832736
:10403400C4FD032684FD99453E85EF302070832717
:10404400C4FD0347B4FCA380E7028327C4FD3E8577
:10405400EFD09FE08327C4FD032744FDD8DB8327EB
:1040640004FDC207C1838D07C207C183F19B139767
:10407400070141838327C4FD239CE7028327C4FDF2
:1040840083D7870391070327C4FCB357F702139719
:10409400070141838327C4FD239DE7028327C4FDD1
:1040A40023A007048327C4FD23A207048327C4FD98
:1040B40023A4070481401DA88327C4FDD85B83275C
:1040C400C4FD83D7870391078686B387D702BA973F
:1040D4002326F4FE8327C4FDB8478327C4FE98C370
:1040E4008327C4FD0327C4FEB8C785008327C4FD06
:1040F40083D7A703E3C2F0FC8327C4FD239E0702F2
:104104008327C4FD9387C7043E85EFD0DFCB814767
:104114003E85F250625421618280011106CE22CC88
:1041240000102326A4FE8327C4FE89EF130610780B
:1041340097C50000938545CF17C50000130505A456
:10414400EF20203A8327C4FE3E85EF30F016AA877D
:104154003E879947630EF7001306207897C5000041
:10416400938585CC17C50000130545A2EF20603761
:104174008327C4FE3E85EF30900FAA8789EF13068C
:10418400307897C50000938525CA17C5000013052C
:1041940065A4EF2000358327C4FE9387C7023E85BC
:1041A400EFD0DFDC8327C4FE9387C7043E85EFD0BE
:1041B400FFDB8327C4FE3E85EF30406981473E859F
:1041C400F240624405618280797106D622D40018D7
:1041D400232EA4FC232CB4FC232AC4FCB687A309F5
:1041E400F4FCEF50B0362326A4FEEF00304EAA872D
:1041F4009DC797C50000938525C417B50000130516
:104204006568EF20C0061306507A97C500009385B1
:10421400A5C217B5000013056569EF20802C03259E
:10422400C4FEEF5010338325C4FD1945EF30C06838
:104234002324A4FE832784FE81E7832784FEE5A844
:10424400832784FE034734FDA380E702832784FE8B
:104254003E85EFD07FC0832784FDC207C1838D07CD
:10426400C207C183F19B139707014183832784FE0F
:10427400239CE702832744FD139707014183832787
:1042840084FE239DE702832784FE83D78703910757
:10429400032784FE0357A703B387E7023E85EF2075
:1042A40000662A87832784FED8DB832784FEDC5BB1
:1042B40081EB832784FE3E85EF30A0718147A5A85A
:1042C400832784FE23A00704832784FE23A20704F4
:1042D400832784FE23A4070481401DA8832784FE2A
:1042E400D85B832784FE83D7870391078686B387A9
:1042F400D702BA972322F4FE832784FEB847832784
:1043040044FE98C3832784FE032744FEB8C7850070
:10431400832784FE83D7A703E3C2F0FC832784FEAC
:10432400239E0702832784FE9387C7043E85EFD02C
:104334009FA9832784FE3E85B25022544561828022
:10434400797106D622D40018232EA4FCEF50102035
:104354002326A4FEEF009037AA879DC797C50000C7
:10436400938585AE17B500001305C551EF10307065
:104374001306207E97C50000938505AD17B5000090
:104384001305C552EF20E0150325C4FEEF50701C41
:104394008327C4FD89EF1306507E97C500009385DB
:1043A400A5AA17B500001305657DEF2080138327A8
:1043B400C4FD3E85EF304070AA873E879947630E5F
:1043C400F7001306607E97C500009385E5A717B52F
:1043D40000001305A57BEF20C0108327C4FD3E8594
:1043E400EF30E068AA8789CF1306707E97C5000076
:1043F400938585A517C500001305C580EF20600EC1
:104404008327C4FD9387C7023E85EFD03FB6832739
:10441400C4FD9387C7043E85EFD05FB58327C4FDF1
:10442400DC5B3E85EF20102F8327C4FD3E85EF30F3
:10443400405A81473E85B250225445618280397189
:1044440006DE22DC26DA80002326A4FC2324B4FC26
:104454002322C4FC2320D4FC8327C4FC91EF85676A
:104464001386F78097C500009385059F17B5000054
:104474001305C570EF20E0068327C4FC3E85EF30AA
:10448400A063AA873E879947630FF7008567138661
:10449400078197C500009385259C17B50000130577
:1044A400E56EEF200004832784FC91EF8567138673
:1044B400178197C500009385259A17B50000130549
:1044C4002578EF200002832744FC91EF856713864B
:1044D400278197C500009385259817B5000013051B
:1044E4006577EF2000008327C4FC83D787033E87CA
:1044F400832744FC6374F700FD5779A4232604FE44
:10450400EF40C01F2324A4FE938781049C4381CBE6
:104514009387810498438327C4FC3E850297EF5018
:10452400F002AA87BE848327C4FCBC472322F4FE7E
:10453400832744FE63950716832704FC63910716BB
:10454400A6873E85EF50F000F5573DAC832784FEE7
:1045540023A40704832704FC99E7A6873E85EF502C
:10456400407FF55715A4EF50607E2320A4FEEF4052
:10457400E018AA8785EB97C500009385E58D17B5EC
:1045840000001305A536EF10904E85671386C78388
:1045940097C500009385458C17B5000013050531B8
:1045A400EF103074EF50807A232EA4FCEF00101229
:1045B400AA8785CB97C500009385058A17B50000A7
:1045C4001305452CEF10B04A85671386C78397C53A
:1045D40000009385658817B500001305252DEF109D
:1045E40050700325C4FDEF50C076032504FEEF5040
:1045F40040768327C4FC1387C7048327C4FC83C77E
:1046040017023E86832584FE3A85EFD03F878327B1
:1046140004FC6358F002EFC0BF942326A4FE832752
:1046240084FE93878706130704FC3A8681453E85FA
:10463400EF506035832784FE938787063E85EF50CD
:104644002001A6873E85EF50C070EF309005832788
:1046540084FEBC4789C7832784FEBC4735A2EF503C
:10466400E06EAA87BE84832704FC635AF002EFC07D
:104674003F8F2A878327C4FEB307F7402326F4FE1F
:10468400832704FC3E878327C4FEB307F740232017
:10469400F4FC832704FC63D40700232004FC832751
:1046A400C4FCBC472322F4FE832744FEE38007EACC
:1046B400832744FE98438327C4FCB8C7A6873E8556
:1046C400EF502069832744FE23A00700832744FE7C
:1046D4009107032644FC832584FC3E85EF00F020EB
:1046E400EF50C066AA87BE848327C4FCFC4399C7E5
:1046F4008327C4FCFC43032744FE98C38327C4FCDC
:10470400032744FEF8C38327C4FCBC4391E78327F3
:10471400C4FC032744FEB8C38327C4FC03D7C703E0
:10472400C167FD176308F7028327C4FC83D7C70357
:1047340085071397070141838327C4FC239EE7025F
:104744008327C4FC9387C7023E85EFD06FEEAA8708
:104754009DE739A0A6873E85EF50A05FF5572DA0B1
:104764008327C4FC9387C7023E85EFD04FFDA687FD
:104774003E85EF50005EEF30C072814731A0A687BE
:104784003E85EF50005D81473E85F2506254D2541D
:1047940021618280011106CE22CC00102326A4FEC2
:1047A4002324B4FE2322C4FE8146032644FE83252B
:1047B40084FE0325C4FE6131AA873E85F24062442B
:1047C40005618280797106D622D426D20018232E60
:1047D400A4FC232CB4FC232AC4FC8327C4FD91EF3E
:1047E40085671386678C97B500009385E56717B5D1
:1047F40000001305A538EF10D04E8327C4FD3E8575
:10480400EF30802BAA873E879947630FF7008567AF
:104814001386778C97B500009385056517B500005E
:104824001305C536EF10F04B832784FD91EF8567A0
:104834001386878C97B500009385056317B5000030
:1048440013050540EF10F049832744FD91EF856778
:104854001386978C97B500009385056117B5000002
:104864001305453FEF10F0478327C4FD83D7870323
:104874003E87832744FD6374F700FD5711A2938795
:1048840081049C4381CB9387810498438327C4FD8F
:104894003E850297EF50804BAA87BE848327C4FDD0
:1048A400BC472326F4FE8327C4FE99E7A6873E85EA
:1048B400EF50204AF557E9A08327C4FE9843832785
:1048C400C4FDB8C7A6873E85EF50A0488327C4FE21
:1048D4009107032644FD832584FD3E85EF00F00007
:1048E400EF50C046AA87BE848327C4FDB8438327FC
:1048F400C4FE98C38327C4FD0327C4FEB8C383271B
:10490400C4FDFC4391E78327C4FD0327C4FEF8C319
:104914008327C4FD03D7C703C167FD176308F702E4
:104924008327C4FD83D7C7038507139707014183F2
:104934008327C4FD239EE7028327C4FD9387C70210
:104944003E85EFD0EFCEAA879DE739A0A6873E85A6
:10495400EF502040F5572DA08327C4FD9387C7024D
:104964003E85EFD0CFDDA6873E85EF50803EEF3009
:104974004053814731A0A6873E85EF50803D814753
:104984003E85B2502254925445618280397106DECC
:1049940022DC26DA80002326A4FC2324B4FC232270
:1049A400C4FC2320D4FC8327C4FC91EF85671386C1
:1049B400879297B500009385254C17B50000130521
:1049C400E51BEF1010328327C4FC3E85EF30C00E88
:1049D400AA873E879947630FF700856713869792E6
:1049E40097B500009385454917B500001305051ACE
:1049F400EF10302F832784FC91EF85671386A792ED
:104A040097B500009385454717B500001305452366
:104A1400EF10302D832744FC91EF85671386B792FE
:104A240097B500009385454517B500001305852209
:104A3400EF10302B232604FEEF30504C2324A4FE29
:104A4400938701059C4381CB938701059843832772
:104A5400C4FC3E850297EF50602FAA87BE8483274B
:104A6400C4FC83D7C70363990716832704FC6395A3
:104A74000716A6873E85EF50C02DF95785A4EF5041
:104A8400E02C2322A4FEEF307047AA8785EB97B56C
:104A940000009385653E17B50000130525E5EF106A
:104AA400007D85671386179497B500009385C53CF0
:104AB40017B50000130585DFEF10B022EF50002971
:104AC4002320A4FEEF008040AA8785CB97B5000081
:104AD4009385853A17B500001305C5DAEF102079E0
:104AE40085671386179497B500009385E53817B545
:104AF40000001305A5DBEF10D01E032504FEEF50C4
:104B04004025032544FEEF50C024832784FE23A4BC
:104B14000704832704FC99EBA6873E85EF506023A6
:104B2400832784FE7957B8C7F9574DAA8327C4FC55
:104B34001387C7028327C4FC83C717023E868325D5
:104B440084FE3A85EFD08FB3832704FC6358F002C8
:104B5400EFC00FC12326A4FE832784FE9387870614
:104B6400130704FC3A8681453E85EF40D0618327D4
:104B740084FE938787063E85EF40902DA6873E8569
:104B8400EF50201DEF30E031832784FEBC4789C7F6
:104B9400832784FEBC4799A2EF50401BAA87BE849A
:104BA400832704FC635AF002EFC08FBB2A87832754
:104BB400C4FEB307F7402326F4FE832704FC3E8794
:104BC4008327C4FEB307F7402320F4FC832704FCA7
:104BD40063D40700232004FC8327C4FC83D7C703C2
:104BE400E38F07E88327C4FCBC43232EF4FC83270C
:104BF400C4FD98438327C4FCB8C38327C4FCFC4387
:104C04000327C4FD6316F7008327C4FC23A207040B
:104C14008327C4FC83D7C703FD1713970701418378
:104C24008327C4FC239EE702A6873E85EF506012CB
:104C34008327C4FD938647008327C4FC83D7870357
:104C44003E87832744FC6373F700BA873E86B685A4
:104C5400032584FCEF006049EF50400FAA87BE840F
:104C64008327C4FCB8478327C4FD98C38327C4FCA7
:104C74000327C4FDB8C78327C4FC9387C7043E85B4
:104C8400EFD00F9BAA879DEB8327C4FC9387C704AF
:104C94003E85EFD0CFAAA6873E85EF50800B938741
:104CA400C1049C4381CB9387C10498438327C4FCEC
:104CB4003E850297EF30E01E81470DA0A6873E8512
:104CC400EF5020099387C1049C4381CB9387C1048F
:104CD40098438327C4FC3E85029781473E85F25062
:104CE4006254D25421618280797106D622D400188C
:104CF400232EA4FC232CB4FC232AC4FC8327C4FD48
:104D040091EF85671386079C97B5000093858517F7
:104D140017B50000130585E6EF10A07C8327C4FDBA
:104D24003E85EF207059AA873E879947630FF700A5
:104D340085671386179C97B500009385A51417B54E
:104D440000001305A5E4EF10C079032784FD85470F
:104D54006318F708EF40907FAA872326F4FE832781
:104D6400C4FD9387C7023E85EFD04FA08327C4FDBF
:104D74009387C7043E85EFD06F9F91A08327C4FD1E
:104D8400BC432324F4FE832784FE98438327C4FD75
:104D9400B8C38327C4FDFC43032784FE6316F700CE
:104DA4008327C4FD23A207048327C4FDB8478327B0
:104DB40084FE98C38327C4FD032784FEB8C78327D2
:104DC400C4FDBC43C5FF8327C4FD239E070283277C
:104DD400C4FE3E85EF40F077EF30A00C814711A070
:104DE400FD573E85B250225445618280011122CE86
:104DF40000102326A4FE938701EA0327C4FE98C368
:104E04000100724405618280011122CE0010232624
:104E1400A4FE938741EA0327C4FE98C301007244A9
:104E240005618280011106CE22CC0010EF40107281
:104E34002326A4FE97B7FE5F9387872E83C70700B8
:104E440093F7F70F850713F7F70F97B7FE5F93876D
:104E5400272D2380E700938701EA9C4389C7938722
:104E640001EA9C4382970325C4FEEF40906E010043
:104E7400F240624405618280011106CE22CC00100A
:104E8400EF40D06C2326A4FE97B7FE5F9387472993
:104E940083C7070093F7F70FFD1713F7F70F97B7BB
:104EA400FE5F9387E7272380E700938741EA9C43CB
:104EB40089C7938741EA9C4382970325C4FEEF4048
:104EC40050690100F240624405618280011106CEFE
:104ED40022CC0010EF4090672326A4FE97B7FE5F14
:104EE4009387072483C70700A305F4FE0325C4FEA4
:104EF400EF4030668347B4FE3E85F240624405616C
:104F04008280011106CE22CC0010EFF03FFCAA876C
:104F140089C7938781EA9C4339A8EF30207E2326F2
:104F2400A4FE8327C4FE89E7938781EA9C4321A0DA
:104F34008327C4FEBC473E85F240624405618280FB
:104F4400797106D622D40018232EA4FCEFF01FF8A2
:104F5400AA8799C7938781EA0327C4FD98C31DA034
:104F6400EF30C0792326A4FE8327C4FE99E79387F4
:104F740081EA0327C4FD98C331A08327C4FE032715
:104F8400C4FDB8C7B250225445618280011106CED7
:104F940022CC0010EFF09FF3AA8781C7938781EAA0
:104FA40039A8EF30A0752326A4FE8327C4FE91C739
:104FB4008327C4FE9387870419A0938781EA3E85DB
:104FC400F240624405618280797122D60018232E52
:104FD400A4FC232CB4FC232AC4FC8327C4FD23266D
:104FE400F4FE832784FD93F7F70F2322F4FE0327AF
:104FF40044FD8D4763FEE70C8327C4FD8D8BE9EBED
:105004008327C4FD2324F4FE832744FEA207032739
:1050140044FED98F2320F4FE832704FEC20703270E
:1050240004FED98F2320F4FE91A8832784FE1387DE
:1050340047002324E4FE032704FE98C3832784FE49
:10504400138747002324E4FE032704FE98C3832721
:1050540084FE138747002324E4FE032704FE98C339
:10506400832784FE138747002324E4FE032704FEDA
:1050740098C3832744FDC117232AF4FC032744FD66
:10508400BD47E3E4E7FA39A8832784FE1387470082
:105094002324E4FE032704FE98C3832744FDF11769
:1050A400232AF4FC032744FD8D47E3EFE7FC832721
:1050B40084FE2326F4FE29A88327C4FE1387170041
:1050C4002326E4FE032744FE1377F70F2380E7002B
:1050D400832744FD1387F7FF232AE4FCF1FF83278A
:1050E400C4FD3E85325445618280397122DE8000E0
:1050F4002326A4FC2324B4FC2322C4FC8327C4FC5D
:105104002326F4FE832784FC2324F4FE832744FC13
:10511400232EF4FC0327C4FDBD4763F6E7100327E1
:1051240084FE8327C4FED98F8D8BF5EF8327C4FEBD
:105134002322F4FE832784FE2320F4FEB5A803274C
:1051440004FE930747002320F4FE832744FE93863E
:1051540047002322D4FE184398C3032704FE930771
:1051640047002320F4FE832744FE9386470023222E
:10517400D4FE184398C3032704FE93074700232053
:10518400F4FE832744FE938647002322D4FE18436B
:1051940098C3032704FE930747002320F4FE8327C4
:1051A40044FE938647002322D4FE184398C38327E2
:1051B400C4FDC117232EF4FC0327C4FDBD47E3E05F
:1051C400E7F825A0032704FE930747002320F4FEF5
:1051D400832744FE938647002322D4FE184398C3B2
:1051E4008327C4FDF117232EF4FC0327C4FD8D4748
:1051F400E3EAE7FC832744FE2326F4FE832704FE28
:105204002324F4FE0DA0032784FE93071700232410
:10521400F4FE8327C4FE938617002326D4FE034797
:1052240007002380E7008327C4FD1387F7FF232E9D
:10523400E4FCF1FB8327C4FC3E8572542161828027
:10524400797122D60018232EA4FC232CB4FC232A23
:10525400C4FC8327C4FD2326F4FE832784FD232472
:10526400F4FE032784FE8327C4FE6374F708032730
:1052740084FE832744FDBA970327C4FE637BF706A5
:105284000327C4FE832744FDBA972326F4FE03278D
:1052940084FE832744FDBA972324F4FE1DA08327AC
:1052A40084FEFD172324F4FE8327C4FEFD17232662
:1052B400F4FE832784FE03C707008327C4FE2380EC
:1052C400E700832744FD1387F7FF232AE4FCE1FB6F
:1052D40005A8032784FE930717002324F4FE8327DD
:1052E400C4FE938617002326D4FE034707002380B9
:1052F400E700832744FD1387F7FF232AE4FCF1FB2F
:105304008327C4FD3E85325445618280797122D65B
:105314000018232EA4FC232CB4FC232AC4FC23222F
:1053240004FE8327C4FD2326F4FE832784FD23245F
:10533400F4FE81A08327C4FE83C707003E8783272A
:1053440084FE83C70700B307F7402322F4FE8327B4
:1053540044FE85E78327C4FE85072326F4FE8327BE
:1053640084FE85072324F4FE832744FDFD17232AA6
:10537400F4FC832744FDDDFF11A00100832744FED4
:105384003E85325445618280797106D622D4001854
:10539400232EA4FC232CB4FC032584FD7D2CAA8796
:1053A4002324F4FE832784FE81E78327C4FDB1A070
:1053B4000325C4FD5D24AA872326F4FE05A88327BC
:1053C400C4FEFD172326F4FE832784FE3E86832530
:1053D40084FD0325C4FD1D3FAA8781E78327C4FDFF
:1053E40029A88327C4FD8507232EF4FC0327C4FEC4
:1053F400832784FEE355F7FC81473E85B25022544F
:1054040045618280797122D60018232EA4FC232CB6
:10541400B4FC8327C4FD13871700232EE4FC83C741
:1054240007002326F4FE832784FD13871700232C0B
:10543400E4FC83C707002324F4FE0327C4FE930778
:10544400000463DEE7000327C4FE9307A00563C8D6
:10545400E7008327C4FE938707022326F4FE03276D
:1054640084FE9307000463DEE700032784FE9307AA
:10547400A00563C8E700832784FE938707022324DB
:10548400F4FE0327C4FE832784FE6315F7008327F5
:10549400C4FEC1F30327C4FE832784FEB307F74089
:1054A4003E85325445618280797122D60018232EBC
:1054B400A4FC232CB4FC232AC4FC832744FDB5C7D5
:1054C4008327C4FD2326F4FE832784FD2324F4FECE
:1054D400032784FE930717002324F4FE8327C4FEC6
:1054E400938617002326D4FE034707002380E70092
:1054F40083C707009DE309A88327C4FE1387170009
:105504002326E4FE23800700832744FDFD17232A76
:10551400F4FC832744FDEDF309A8832744FDFD171C
:10552400232AF4FC832744FDC5F78327C4FD3E8565
:10553400325445618280011122CE26CC00102326EC
:10554400A4FE2324B4FE2322C4FE814499A083270D
:10555400C4FE03C70700832784FE93861700232411
:10556400D4FE83C70700B307F74093F7F70F93946C
:105574008701E18495E08327C4FE1387170023265F
:10558400E4FE83C7070089CB832744FEFD1723224B
:10559400F4FE832744FEC5FFA6873E857244E24499
:1055A40005618280011122CE00102326A4FE23244B
:1055B400B4FE19A88327C4FE85072326F4FE832797
:1055C40084FE85072324F4FE8327C4FE83C70700D3
:1055D40099CB8327C4FE03C70700832784FE83C7B0
:1055E4000700E309F7FC8327C4FE83C707003E874F
:1055F400832784FE83C70700B307F7403E857244C0
:1056040005618280797122D60018232EA4FC232CF4
:10561400B4FC8327C4FD2326F4FE31A08327C4FEF3
:1056240085072326F4FE8327C4FE83C7070081CFA2
:105634000327C4FE8327C4FDB307F7403E878327AF
:1056440084FDE36DF7FC0327C4FE8327C4FDB30781
:10565400F7403E85325445618280797122D6001824
:10566400232EA4FC8327C4FD2326F4FE31A0832724
:10567400C4FE85072326F4FE8327C4FE83C70700E0
:10568400FDF70327C4FE8327C4FDB307F7403E8517
:10569400325445618280797106D622D40018232EB3
:1056A400A4FC0325C4FD553FAA8785072326F4FEE1
:1056B4000325C4FEEF10A0242324A4FE832784FE24
:1056C40099E3814711A80326C4FE8325C4FD03255D
:1056D40084FE213C832784FE3E85B25022544561DA
:1056E4008280411106C622C4000817A500001305D4
:1056F400657AEF00D03717A500001305657AEF002F
:10570400103717A700001307E77B8D460146914524
:1057140017A500001305C57BEF00703517A5000021
:105724001305057DEF00B0340100B240224441016D
:105734008280797122D60018232EA4FC232CB4FC79
:10574400032784FDA9476317F7028327C4FD9C43FD
:105754003E87A947B377F7022326F4FE8327C4FDC7
:105764009C433E87A947B357F7023E878327C4FD6E
:1057740098C339A88327C4FD9C43BD8B2326F4FE1C
:105784008327C4FD9C4391833E878327C4FD98C32C
:105794008327C4FE3E85325445618280011122CEA6
:1057A40026CC00102326A4FE81441DA0A6878A07C8
:1057B400A69786073E868327C4FE9C4393861700DC
:1057C4000327C4FE14C383C70700B297938407FD5D
:1057D4008327C4FE9C4383C70700938707FD3E8746
:1057E400A547E3F5E7FCA6873E857244E2440561DC
:1057F40082805D7186C6A2C4A6C2CAC08008232660
:10580400A4FC2324B4FC2322C4FC2320D4FC232E94
:10581400E4FA232CF4FA232A04FB832784FB2324AD
:10582400F4FE8324C4FB832744FB93F7070491C746
:1058340097B700009387879729A097B700009387AD
:1058440027982322F4FE832744FBC18B91C7832727
:1058540044FBF99B232AF4FA832744FB858B81C7F5
:105864009307000319A093070002A301F4FEA30702
:1058740004FE832744FB898BA9C3832744FC63DD8F
:1058840007009307D002A307F4FE832744FCB30761
:10589400F0402322F4FC15A0832744FB918B91C78D
:1058A4009307B002A307F4FE09A8832744FBA18B46
:1058B40089C793070002A307F4FE0149832744FC28
:1058C400A9E3CA8713891700130704FFBA971307BC
:1058D40000032380E7FE0DA8930744FC832504FC02
:1058E4003E85813DAA873E87832744FE3E97CA872B
:1058F4001389170003470700930604FFB697238014
:10590400E7FE832744FCE9FB832784FB63D4270158
:10591400232C24FB832784FB9D8C832744FBC58B8A
:1059240095EF8347F4FE95C763559002FD1415A0C7
:105934000327C4FC832784FC6378F7008327C4FC13
:10594400130700022380E7008327C4FC850723266E
:10595400F4FCA6879384F7FFE34CF0FC8347F4FE42
:105964009DC30327C4FC832784FC6378F700832743
:10597400C4FC0347F4FE2380E700FD148327C4FC22
:1059840085072326F4FC832744FBC18BB1EB15A0C8
:105994000327C4FC832784FC6378F7008327C4FCB3
:1059A400034734FE2380E7008327C4FC85072326AE
:1059B400F4FCA6879384F7FFE34CF0FC15A00327BF
:1059C400C4FC832784FC6378F7008327C4FC130793
:1059D40000032380E7008327C4FC85072326F4FC07
:1059E400832784FB1387F7FF232CE4FAE349F9FCAC
:1059F4002DA00327C4FC832784FC637BF700930753
:105A040004FFCA9703C707FE8327C4FC2380E7006B
:105A14008327C4FC85072326F4FCCA871389F7FF70
:105A24006357F002832784FEE9F715A00327C4FC1B
:105A3400832784FC6378F7008327C4FC13070002E0
:105A44002380E7008327C4FC85072326F4FCA6876C
:105A54009384F7FFE34CF0FC8327C4FC3E85B640F7
:105A6400264496440649616182805D7186C6A2C45B
:105A74008008232EA4FA232CB4FA232AC4FA232858
:105A8400D4FA8327C4FB2320F4FE0327C4FB832713
:105A940084FBBA97232EF4FC0327C4FD8327C4FB9D
:105AA4006375F75AFD57232EF4FC0327C4FD83279F
:105AB400C4FBB307F740232CF4FA41AB832744FB20
:105AC40003C70700930750026306F702032704FE87
